{
	"contracts/eventTest.sol": {
		"MyContract": {
			"abi": [
				{
					"inputs": [],
					"stateMutability": "nonpayable",
					"type": "constructor"
				},
				{
					"anonymous": false,
					"inputs": [
						{
							"indexed": false,
							"internalType": "bytes32",
							"name": "msg",
							"type": "bytes32"
						}
					],
					"name": "myEvent",
					"type": "event"
				},
				{
					"anonymous": false,
					"inputs": [
						{
							"indexed": false,
							"internalType": "address",
							"name": "who",
							"type": "address"
						},
						{
							"indexed": false,
							"internalType": "bytes32",
							"name": "msg",
							"type": "bytes32"
						}
					],
					"name": "testEvent",
					"type": "event"
				},
				{
					"anonymous": false,
					"inputs": [
						{
							"indexed": false,
							"internalType": "address",
							"name": "who",
							"type": "address"
						},
						{
							"indexed": false,
							"internalType": "bytes32",
							"name": "msg",
							"type": "bytes32"
						}
					],
					"name": "transEvent",
					"type": "event"
				},
				{
					"inputs": [],
					"name": "addr",
					"outputs": [
						{
							"internalType": "address",
							"name": "",
							"type": "address"
						}
					],
					"stateMutability": "view",
					"type": "function"
				},
				{
					"inputs": [],
					"name": "sendEvent",
					"outputs": [],
					"stateMutability": "nonpayable",
					"type": "function"
				},
				{
					"inputs": [],
					"name": "sendMyEvent",
					"outputs": [],
					"stateMutability": "nonpayable",
					"type": "function"
				},
				{
					"inputs": [
						{
							"internalType": "address",
							"name": "to",
							"type": "address"
						}
					],
					"name": "sendToken",
					"outputs": [],
					"stateMutability": "payable",
					"type": "function"
				}
			],
			"devdoc": {
				"kind": "dev",
				"methods": {},
				"version": 1
			},
			"evm": {
				"assembly": "    /* \"contracts/eventTest.sol\":417:1195  contract MyContract is EventTest {... */\n  mstore(0x40, 0x80)\n    /* \"contracts/eventTest.sol\":538:542  1e18 */\n  0x0de0b6b3a7640000\n    /* \"contracts/eventTest.sol\":527:534  1 ether */\n  dup1\n    /* \"contracts/eventTest.sol\":527:542  1 ether == 1e18 */\n  eq\n    /* \"contracts/eventTest.sol\":514:542  bool equal = 1 ether == 1e18 */\n  0x00\n  exp(0x0100, 0x14)\n  dup2\n  sload\n  dup2\n  0xff\n  mul\n  not\n  and\n  swap1\n  dup4\n  iszero\n  iszero\n  mul\n  or\n  swap1\n  sstore\n  pop\n    /* \"contracts/eventTest.sol\":573:615  0xCA35b7d915458EF540aDe6068dFe2F44E8fa733c */\n  0xca35b7d915458ef540ade6068dfe2f44e8fa733c\n    /* \"contracts/eventTest.sol\":551:615  address public addr = 0xCA35b7d915458EF540aDe6068dFe2F44E8fa733c */\n  0x01\n  exp(0x0100, 0x00)\n  dup2\n  sload\n  dup2\n  0xffffffffffffffffffffffffffffffffffffffff\n  mul\n  not\n  and\n  swap1\n  dup4\n  0xffffffffffffffffffffffffffffffffffffffff\n  and\n  mul\n  or\n  swap1\n  sstore\n  pop\n    /* \"contracts/eventTest.sol\":747:798  constructor() {... */\n  callvalue\n  dup1\n  iszero\n  tag_1\n  jumpi\n  0x00\n  dup1\n  revert\ntag_1:\n  pop\n    /* \"contracts/eventTest.sol\":780:790  msg.sender */\n  caller\n    /* \"contracts/eventTest.sol\":772:777  owner */\n  0x00\n  dup1\n    /* \"contracts/eventTest.sol\":772:790  owner = msg.sender */\n  0x0100\n  exp\n  dup2\n  sload\n  dup2\n  0xffffffffffffffffffffffffffffffffffffffff\n  mul\n  not\n  and\n  swap1\n  dup4\n  0xffffffffffffffffffffffffffffffffffffffff\n  and\n  mul\n  or\n  swap1\n  sstore\n  pop\n    /* \"contracts/eventTest.sol\":417:1195  contract MyContract is EventTest {... */\n  dataSize(sub_0)\n  dup1\n  dataOffset(sub_0)\n  0x00\n  codecopy\n  0x00\n  return\nstop\n\nsub_0: assembly {\n        /* \"contracts/eventTest.sol\":417:1195  contract MyContract is EventTest {... */\n      mstore(0x40, 0x80)\n      jumpi(tag_1, lt(calldatasize, 0x04))\n      shr(0xe0, calldataload(0x00))\n      dup1\n      0x32b7a761\n      eq\n      tag_2\n      jumpi\n      dup1\n      0x7324eb0e\n      eq\n      tag_3\n      jumpi\n      dup1\n      0x767800de\n      eq\n      tag_4\n      jumpi\n      dup1\n      0xc575c238\n      eq\n      tag_5\n      jumpi\n    tag_1:\n      0x00\n      dup1\n      revert\n        /* \"contracts/eventTest.sol\":806:873  function sendEvent() public {... */\n    tag_2:\n      callvalue\n      dup1\n      iszero\n      tag_6\n      jumpi\n      0x00\n      dup1\n      revert\n    tag_6:\n      pop\n      tag_7\n      tag_8\n      jump\t// in\n    tag_7:\n      stop\n        /* \"contracts/eventTest.sol\":881:962  function sendMyEvent() public {... */\n    tag_3:\n      callvalue\n      dup1\n      iszero\n      tag_9\n      jumpi\n      0x00\n      dup1\n      revert\n    tag_9:\n      pop\n      tag_10\n      tag_11\n      jump\t// in\n    tag_10:\n      stop\n        /* \"contracts/eventTest.sol\":551:615  address public addr = 0xCA35b7d915458EF540aDe6068dFe2F44E8fa733c */\n    tag_4:\n      callvalue\n      dup1\n      iszero\n      tag_12\n      jumpi\n      0x00\n      dup1\n      revert\n    tag_12:\n      pop\n      tag_13\n      tag_14\n      jump\t// in\n    tag_13:\n      mload(0x40)\n      tag_15\n      swap2\n      swap1\n      tag_16\n      jump\t// in\n    tag_15:\n      mload(0x40)\n      dup1\n      swap2\n      sub\n      swap1\n      return\n        /* \"contracts/eventTest.sol\":970:1192  function sendToken(address to) public payable onlyOwner {... */\n    tag_5:\n      tag_17\n      0x04\n      dup1\n      calldatasize\n      sub\n      dup2\n      add\n      swap1\n      tag_18\n      swap2\n      swap1\n      tag_19\n      jump\t// in\n    tag_18:\n      tag_20\n      jump\t// in\n    tag_17:\n      stop\n        /* \"contracts/eventTest.sol\":806:873  function sendEvent() public {... */\n    tag_8:\n        /* \"contracts/eventTest.sol\":845:865  super.triggleEvent() */\n      tag_22\n        /* \"contracts/eventTest.sol\":845:863  super.triggleEvent */\n      tag_23\n        /* \"contracts/eventTest.sol\":845:865  super.triggleEvent() */\n      jump\t// in\n    tag_22:\n        /* \"contracts/eventTest.sol\":806:873  function sendEvent() public {... */\n      jump\t// out\n        /* \"contracts/eventTest.sol\":881:962  function sendMyEvent() public {... */\n    tag_11:\n        /* \"contracts/eventTest.sol\":927:954  myEvent(\"here is my event\") */\n      0x08f072437671712bd61d3a3d3ed598af9879f500c111f8282f212d047940c6d6\n      mload(0x40)\n      tag_25\n      swap1\n      tag_26\n      jump\t// in\n    tag_25:\n      mload(0x40)\n      dup1\n      swap2\n      sub\n      swap1\n      log1\n        /* \"contracts/eventTest.sol\":881:962  function sendMyEvent() public {... */\n      jump\t// out\n        /* \"contracts/eventTest.sol\":551:615  address public addr = 0xCA35b7d915458EF540aDe6068dFe2F44E8fa733c */\n    tag_14:\n      0x01\n      0x00\n      swap1\n      sload\n      swap1\n      0x0100\n      exp\n      swap1\n      div\n      0xffffffffffffffffffffffffffffffffffffffff\n      and\n      dup2\n      jump\t// out\n        /* \"contracts/eventTest.sol\":970:1192  function sendToken(address to) public payable onlyOwner {... */\n    tag_20:\n        /* \"contracts/eventTest.sol\":678:683  owner */\n      0x00\n      dup1\n      sload\n      swap1\n      0x0100\n      exp\n      swap1\n      div\n      0xffffffffffffffffffffffffffffffffffffffff\n      and\n        /* \"contracts/eventTest.sol\":664:683  msg.sender == owner */\n      0xffffffffffffffffffffffffffffffffffffffff\n      and\n        /* \"contracts/eventTest.sol\":664:674  msg.sender */\n      caller\n        /* \"contracts/eventTest.sol\":664:683  msg.sender == owner */\n      0xffffffffffffffffffffffffffffffffffffffff\n      and\n      eq\n        /* \"contracts/eventTest.sol\":656:719  require(msg.sender == owner, \"you are not the contract owner.\") */\n      tag_28\n      jumpi\n      mload(0x40)\n      0x08c379a000000000000000000000000000000000000000000000000000000000\n      dup2\n      mstore\n      0x04\n      add\n      tag_29\n      swap1\n      tag_30\n      jump\t// in\n    tag_29:\n      mload(0x40)\n      dup1\n      swap2\n      sub\n      swap1\n      revert\n    tag_28:\n        /* \"contracts/eventTest.sol\":1054:1063  msg.value */\n      callvalue\n        /* \"contracts/eventTest.sol\":1041:1043  to */\n      dup2\n        /* \"contracts/eventTest.sol\":1041:1051  to.balance */\n      0xffffffffffffffffffffffffffffffffffffffff\n      and\n      balance\n        /* \"contracts/eventTest.sol\":1041:1063  to.balance > msg.value */\n      gt\n        /* \"contracts/eventTest.sol\":1037:1185  if (to.balance > msg.value) {... */\n      iszero\n      tag_32\n      jumpi\n        /* \"contracts/eventTest.sol\":1088:1090  to */\n      dup1\n        /* \"contracts/eventTest.sol\":1080:1100  payable(to).transfer */\n      0xffffffffffffffffffffffffffffffffffffffff\n      and\n        /* \"contracts/eventTest.sol\":1080:1111  payable(to).transfer(msg.value) */\n      0x08fc\n        /* \"contracts/eventTest.sol\":1101:1110  msg.value */\n      callvalue\n        /* \"contracts/eventTest.sol\":1080:1111  payable(to).transfer(msg.value) */\n      swap1\n      dup2\n      iszero\n      mul\n      swap1\n      mload(0x40)\n      0x00\n      mload(0x40)\n      dup1\n      dup4\n      sub\n      dup2\n      dup6\n      dup9\n      dup9\n      call\n      swap4\n      pop\n      pop\n      pop\n      pop\n      iszero\n      dup1\n      iszero\n      tag_34\n      jumpi\n      returndatasize\n      0x00\n      dup1\n      returndatacopy\n      revert(0x00, returndatasize)\n    tag_34:\n      pop\n        /* \"contracts/eventTest.sol\":1037:1185  if (to.balance > msg.value) {... */\n      jump(tag_35)\n    tag_32:\n        /* \"contracts/eventTest.sol\":1144:1173  revert(\"not enough balance.\") */\n      mload(0x40)\n      0x08c379a000000000000000000000000000000000000000000000000000000000\n      dup2\n      mstore\n      0x04\n      add\n      tag_36\n      swap1\n      tag_37\n      jump\t// in\n    tag_36:\n      mload(0x40)\n      dup1\n      swap2\n      sub\n      swap1\n      revert\n        /* \"contracts/eventTest.sol\":1037:1185  if (to.balance > msg.value) {... */\n    tag_35:\n        /* \"contracts/eventTest.sol\":970:1192  function sendToken(address to) public payable onlyOwner {... */\n      pop\n      jump\t// out\n        /* \"contracts/eventTest.sol\":199:312  function triggleEvent() internal {... */\n    tag_23:\n        /* \"contracts/eventTest.sol\":248:304  testEvent(msg.sender, \"here is the test event message.\") */\n      0xa576367e245e28a1f2c38ea67a3f4e6d6c7e6a1b7883c0b33d13aa894499a694\n        /* \"contracts/eventTest.sol\":258:268  msg.sender */\n      caller\n        /* \"contracts/eventTest.sol\":248:304  testEvent(msg.sender, \"here is the test event message.\") */\n      mload(0x40)\n      tag_39\n      swap2\n      swap1\n      tag_40\n      jump\t// in\n    tag_39:\n      mload(0x40)\n      dup1\n      swap2\n      sub\n      swap1\n      log1\n        /* \"contracts/eventTest.sol\":199:312  function triggleEvent() internal {... */\n      jump\t// out\n        /* \"#utility.yul\":7:133   */\n    tag_41:\n        /* \"#utility.yul\":44:51   */\n      0x00\n        /* \"#utility.yul\":84:126   */\n      0xffffffffffffffffffffffffffffffffffffffff\n        /* \"#utility.yul\":77:82   */\n      dup3\n        /* \"#utility.yul\":73:127   */\n      and\n        /* \"#utility.yul\":62:127   */\n      swap1\n      pop\n        /* \"#utility.yul\":7:133   */\n      swap2\n      swap1\n      pop\n      jump\t// out\n        /* \"#utility.yul\":139:235   */\n    tag_42:\n        /* \"#utility.yul\":176:183   */\n      0x00\n        /* \"#utility.yul\":205:229   */\n      tag_59\n        /* \"#utility.yul\":223:228   */\n      dup3\n        /* \"#utility.yul\":205:229   */\n      tag_41\n      jump\t// in\n    tag_59:\n        /* \"#utility.yul\":194:229   */\n      swap1\n      pop\n        /* \"#utility.yul\":139:235   */\n      swap2\n      swap1\n      pop\n      jump\t// out\n        /* \"#utility.yul\":241:359   */\n    tag_43:\n        /* \"#utility.yul\":328:352   */\n      tag_61\n        /* \"#utility.yul\":346:351   */\n      dup2\n        /* \"#utility.yul\":328:352   */\n      tag_42\n      jump\t// in\n    tag_61:\n        /* \"#utility.yul\":323:326   */\n      dup3\n        /* \"#utility.yul\":316:353   */\n      mstore\n        /* \"#utility.yul\":241:359   */\n      pop\n      pop\n      jump\t// out\n        /* \"#utility.yul\":365:587   */\n    tag_16:\n        /* \"#utility.yul\":458:462   */\n      0x00\n        /* \"#utility.yul\":496:498   */\n      0x20\n        /* \"#utility.yul\":485:494   */\n      dup3\n        /* \"#utility.yul\":481:499   */\n      add\n        /* \"#utility.yul\":473:499   */\n      swap1\n      pop\n        /* \"#utility.yul\":509:580   */\n      tag_63\n        /* \"#utility.yul\":577:578   */\n      0x00\n        /* \"#utility.yul\":566:575   */\n      dup4\n        /* \"#utility.yul\":562:579   */\n      add\n        /* \"#utility.yul\":553:559   */\n      dup5\n        /* \"#utility.yul\":509:580   */\n      tag_43\n      jump\t// in\n    tag_63:\n        /* \"#utility.yul\":365:587   */\n      swap3\n      swap2\n      pop\n      pop\n      jump\t// out\n        /* \"#utility.yul\":674:791   */\n    tag_45:\n        /* \"#utility.yul\":783:784   */\n      0x00\n        /* \"#utility.yul\":780:781   */\n      dup1\n        /* \"#utility.yul\":773:785   */\n      revert\n        /* \"#utility.yul\":920:1042   */\n    tag_47:\n        /* \"#utility.yul\":993:1017   */\n      tag_68\n        /* \"#utility.yul\":1011:1016   */\n      dup2\n        /* \"#utility.yul\":993:1017   */\n      tag_42\n      jump\t// in\n    tag_68:\n        /* \"#utility.yul\":986:991   */\n      dup2\n        /* \"#utility.yul\":983:1018   */\n      eq\n        /* \"#utility.yul\":973:1036   */\n      tag_69\n      jumpi\n        /* \"#utility.yul\":1032:1033   */\n      0x00\n        /* \"#utility.yul\":1029:1030   */\n      dup1\n        /* \"#utility.yul\":1022:1034   */\n      revert\n        /* \"#utility.yul\":973:1036   */\n    tag_69:\n        /* \"#utility.yul\":920:1042   */\n      pop\n      jump\t// out\n        /* \"#utility.yul\":1048:1187   */\n    tag_48:\n        /* \"#utility.yul\":1094:1099   */\n      0x00\n        /* \"#utility.yul\":1132:1138   */\n      dup2\n        /* \"#utility.yul\":1119:1139   */\n      calldataload\n        /* \"#utility.yul\":1110:1139   */\n      swap1\n      pop\n        /* \"#utility.yul\":1148:1181   */\n      tag_71\n        /* \"#utility.yul\":1175:1180   */\n      dup2\n        /* \"#utility.yul\":1148:1181   */\n      tag_47\n      jump\t// in\n    tag_71:\n        /* \"#utility.yul\":1048:1187   */\n      swap3\n      swap2\n      pop\n      pop\n      jump\t// out\n        /* \"#utility.yul\":1193:1522   */\n    tag_19:\n        /* \"#utility.yul\":1252:1258   */\n      0x00\n        /* \"#utility.yul\":1301:1303   */\n      0x20\n        /* \"#utility.yul\":1289:1298   */\n      dup3\n        /* \"#utility.yul\":1280:1287   */\n      dup5\n        /* \"#utility.yul\":1276:1299   */\n      sub\n        /* \"#utility.yul\":1272:1304   */\n      slt\n        /* \"#utility.yul\":1269:1388   */\n      iszero\n      tag_73\n      jumpi\n        /* \"#utility.yul\":1307:1386   */\n      tag_74\n      tag_45\n      jump\t// in\n    tag_74:\n        /* \"#utility.yul\":1269:1388   */\n    tag_73:\n        /* \"#utility.yul\":1427:1428   */\n      0x00\n        /* \"#utility.yul\":1452:1505   */\n      tag_75\n        /* \"#utility.yul\":1497:1504   */\n      dup5\n        /* \"#utility.yul\":1488:1494   */\n      dup3\n        /* \"#utility.yul\":1477:1486   */\n      dup6\n        /* \"#utility.yul\":1473:1495   */\n      add\n        /* \"#utility.yul\":1452:1505   */\n      tag_48\n      jump\t// in\n    tag_75:\n        /* \"#utility.yul\":1442:1505   */\n      swap2\n      pop\n        /* \"#utility.yul\":1398:1515   */\n      pop\n        /* \"#utility.yul\":1193:1522   */\n      swap3\n      swap2\n      pop\n      pop\n      jump\t// out\n        /* \"#utility.yul\":1528:1704   */\n    tag_49:\n        /* \"#utility.yul\":1679:1697   */\n      0x68657265206973206d79206576656e7400000000000000000000000000000000\n        /* \"#utility.yul\":1674:1677   */\n      dup2\n        /* \"#utility.yul\":1667:1698   */\n      mstore\n        /* \"#utility.yul\":1528:1704   */\n      pop\n      jump\t// out\n        /* \"#utility.yul\":1710:2058   */\n    tag_26:\n        /* \"#utility.yul\":1866:1870   */\n      0x00\n        /* \"#utility.yul\":1904:1906   */\n      0x20\n        /* \"#utility.yul\":1893:1902   */\n      dup3\n        /* \"#utility.yul\":1889:1907   */\n      add\n        /* \"#utility.yul\":1881:1907   */\n      swap1\n      pop\n        /* \"#utility.yul\":1917:2051   */\n      tag_78\n        /* \"#utility.yul\":2048:2049   */\n      0x00\n        /* \"#utility.yul\":2037:2046   */\n      dup4\n        /* \"#utility.yul\":2033:2050   */\n      add\n        /* \"#utility.yul\":1917:2051   */\n      tag_49\n      jump\t// in\n    tag_78:\n        /* \"#utility.yul\":1710:2058   */\n      swap2\n      swap1\n      pop\n      jump\t// out\n        /* \"#utility.yul\":2064:2233   */\n    tag_50:\n        /* \"#utility.yul\":2148:2159   */\n      0x00\n        /* \"#utility.yul\":2182:2188   */\n      dup3\n        /* \"#utility.yul\":2177:2180   */\n      dup3\n        /* \"#utility.yul\":2170:2189   */\n      mstore\n        /* \"#utility.yul\":2222:2226   */\n      0x20\n        /* \"#utility.yul\":2217:2220   */\n      dup3\n        /* \"#utility.yul\":2213:2227   */\n      add\n        /* \"#utility.yul\":2198:2227   */\n      swap1\n      pop\n        /* \"#utility.yul\":2064:2233   */\n      swap3\n      swap2\n      pop\n      pop\n      jump\t// out\n        /* \"#utility.yul\":2239:2420   */\n    tag_51:\n        /* \"#utility.yul\":2379:2412   */\n      0x796f7520617265206e6f742074686520636f6e7472616374206f776e65722e00\n        /* \"#utility.yul\":2375:2376   */\n      0x00\n        /* \"#utility.yul\":2367:2373   */\n      dup3\n        /* \"#utility.yul\":2363:2377   */\n      add\n        /* \"#utility.yul\":2356:2413   */\n      mstore\n        /* \"#utility.yul\":2239:2420   */\n      pop\n      jump\t// out\n        /* \"#utility.yul\":2426:2792   */\n    tag_52:\n        /* \"#utility.yul\":2568:2571   */\n      0x00\n        /* \"#utility.yul\":2589:2656   */\n      tag_82\n        /* \"#utility.yul\":2653:2655   */\n      0x1f\n        /* \"#utility.yul\":2648:2651   */\n      dup4\n        /* \"#utility.yul\":2589:2656   */\n      tag_50\n      jump\t// in\n    tag_82:\n        /* \"#utility.yul\":2582:2656   */\n      swap2\n      pop\n        /* \"#utility.yul\":2665:2758   */\n      tag_83\n        /* \"#utility.yul\":2754:2757   */\n      dup3\n        /* \"#utility.yul\":2665:2758   */\n      tag_51\n      jump\t// in\n    tag_83:\n        /* \"#utility.yul\":2783:2785   */\n      0x20\n        /* \"#utility.yul\":2778:2781   */\n      dup3\n        /* \"#utility.yul\":2774:2786   */\n      add\n        /* \"#utility.yul\":2767:2786   */\n      swap1\n      pop\n        /* \"#utility.yul\":2426:2792   */\n      swap2\n      swap1\n      pop\n      jump\t// out\n        /* \"#utility.yul\":2798:3217   */\n    tag_30:\n        /* \"#utility.yul\":2964:2968   */\n      0x00\n        /* \"#utility.yul\":3002:3004   */\n      0x20\n        /* \"#utility.yul\":2991:3000   */\n      dup3\n        /* \"#utility.yul\":2987:3005   */\n      add\n        /* \"#utility.yul\":2979:3005   */\n      swap1\n      pop\n        /* \"#utility.yul\":3051:3060   */\n      dup2\n        /* \"#utility.yul\":3045:3049   */\n      dup2\n        /* \"#utility.yul\":3041:3061   */\n      sub\n        /* \"#utility.yul\":3037:3038   */\n      0x00\n        /* \"#utility.yul\":3026:3035   */\n      dup4\n        /* \"#utility.yul\":3022:3039   */\n      add\n        /* \"#utility.yul\":3015:3062   */\n      mstore\n        /* \"#utility.yul\":3079:3210   */\n      tag_85\n        /* \"#utility.yul\":3205:3209   */\n      dup2\n        /* \"#utility.yul\":3079:3210   */\n      tag_52\n      jump\t// in\n    tag_85:\n        /* \"#utility.yul\":3071:3210   */\n      swap1\n      pop\n        /* \"#utility.yul\":2798:3217   */\n      swap2\n      swap1\n      pop\n      jump\t// out\n        /* \"#utility.yul\":3223:3392   */\n    tag_53:\n        /* \"#utility.yul\":3363:3384   */\n      0x6e6f7420656e6f7567682062616c616e63652e00000000000000000000000000\n        /* \"#utility.yul\":3359:3360   */\n      0x00\n        /* \"#utility.yul\":3351:3357   */\n      dup3\n        /* \"#utility.yul\":3347:3361   */\n      add\n        /* \"#utility.yul\":3340:3385   */\n      mstore\n        /* \"#utility.yul\":3223:3392   */\n      pop\n      jump\t// out\n        /* \"#utility.yul\":3398:3764   */\n    tag_54:\n        /* \"#utility.yul\":3540:3543   */\n      0x00\n        /* \"#utility.yul\":3561:3628   */\n      tag_88\n        /* \"#utility.yul\":3625:3627   */\n      0x13\n        /* \"#utility.yul\":3620:3623   */\n      dup4\n        /* \"#utility.yul\":3561:3628   */\n      tag_50\n      jump\t// in\n    tag_88:\n        /* \"#utility.yul\":3554:3628   */\n      swap2\n      pop\n        /* \"#utility.yul\":3637:3730   */\n      tag_89\n        /* \"#utility.yul\":3726:3729   */\n      dup3\n        /* \"#utility.yul\":3637:3730   */\n      tag_53\n      jump\t// in\n    tag_89:\n        /* \"#utility.yul\":3755:3757   */\n      0x20\n        /* \"#utility.yul\":3750:3753   */\n      dup3\n        /* \"#utility.yul\":3746:3758   */\n      add\n        /* \"#utility.yul\":3739:3758   */\n      swap1\n      pop\n        /* \"#utility.yul\":3398:3764   */\n      swap2\n      swap1\n      pop\n      jump\t// out\n        /* \"#utility.yul\":3770:4189   */\n    tag_37:\n        /* \"#utility.yul\":3936:3940   */\n      0x00\n        /* \"#utility.yul\":3974:3976   */\n      0x20\n        /* \"#utility.yul\":3963:3972   */\n      dup3\n        /* \"#utility.yul\":3959:3977   */\n      add\n        /* \"#utility.yul\":3951:3977   */\n      swap1\n      pop\n        /* \"#utility.yul\":4023:4032   */\n      dup2\n        /* \"#utility.yul\":4017:4021   */\n      dup2\n        /* \"#utility.yul\":4013:4033   */\n      sub\n        /* \"#utility.yul\":4009:4010   */\n      0x00\n        /* \"#utility.yul\":3998:4007   */\n      dup4\n        /* \"#utility.yul\":3994:4011   */\n      add\n        /* \"#utility.yul\":3987:4034   */\n      mstore\n        /* \"#utility.yul\":4051:4182   */\n      tag_91\n        /* \"#utility.yul\":4177:4181   */\n      dup2\n        /* \"#utility.yul\":4051:4182   */\n      tag_54\n      jump\t// in\n    tag_91:\n        /* \"#utility.yul\":4043:4182   */\n      swap1\n      pop\n        /* \"#utility.yul\":3770:4189   */\n      swap2\n      swap1\n      pop\n      jump\t// out\n        /* \"#utility.yul\":4195:4386   */\n    tag_55:\n        /* \"#utility.yul\":4346:4379   */\n      0x68657265206973207468652074657374206576656e74206d6573736167652e00\n        /* \"#utility.yul\":4341:4344   */\n      dup2\n        /* \"#utility.yul\":4334:4380   */\n      mstore\n        /* \"#utility.yul\":4195:4386   */\n      pop\n      jump\t// out\n        /* \"#utility.yul\":4392:4850   */\n    tag_40:\n        /* \"#utility.yul\":4576:4580   */\n      0x00\n        /* \"#utility.yul\":4614:4616   */\n      0x40\n        /* \"#utility.yul\":4603:4612   */\n      dup3\n        /* \"#utility.yul\":4599:4617   */\n      add\n        /* \"#utility.yul\":4591:4617   */\n      swap1\n      pop\n        /* \"#utility.yul\":4627:4698   */\n      tag_94\n        /* \"#utility.yul\":4695:4696   */\n      0x00\n        /* \"#utility.yul\":4684:4693   */\n      dup4\n        /* \"#utility.yul\":4680:4697   */\n      add\n        /* \"#utility.yul\":4671:4677   */\n      dup5\n        /* \"#utility.yul\":4627:4698   */\n      tag_43\n      jump\t// in\n    tag_94:\n        /* \"#utility.yul\":4708:4843   */\n      tag_95\n        /* \"#utility.yul\":4839:4841   */\n      0x20\n        /* \"#utility.yul\":4828:4837   */\n      dup4\n        /* \"#utility.yul\":4824:4842   */\n      add\n        /* \"#utility.yul\":4708:4843   */\n      tag_55\n      jump\t// in\n    tag_95:\n        /* \"#utility.yul\":4392:4850   */\n      swap3\n      swap2\n      pop\n      pop\n      jump\t// out\n\n    auxdata: 0xa26469706673582212204252fb34402ab18c1bf19269215626dd9738a7fb9f4b1986b1e8babef7c55f3c64736f6c63430008100033\n}\n",
				"bytecode": {
					"linkReferences": {},
					"object": "6080604052670de0b6b3a76400008014600060146101000a81548160ff02191690831515021790555073ca35b7d915458ef540ade6068dfe2f44e8fa733c600160006101000a81548173ffffffffffffffffffffffffffffffffffffffff021916908373ffffffffffffffffffffffffffffffffffffffff16021790555034801561008957600080fd5b50336000806101000a81548173ffffffffffffffffffffffffffffffffffffffff021916908373ffffffffffffffffffffffffffffffffffffffff1602179055506104f5806100d96000396000f3fe60806040526004361061003f5760003560e01c806332b7a761146100445780637324eb0e1461005b578063767800de14610072578063c575c2381461009d575b600080fd5b34801561005057600080fd5b506100596100b9565b005b34801561006757600080fd5b506100706100c3565b005b34801561007e57600080fd5b506100876100fa565b60405161009491906102d1565b60405180910390f35b6100b760048036038101906100b2919061031d565b610120565b005b6100c1610257565b565b7f08f072437671712bd61d3a3d3ed598af9879f500c111f8282f212d047940c6d66040516100f090610370565b60405180910390a1565b600160009054906101000a900473ffffffffffffffffffffffffffffffffffffffff1681565b60008054906101000a900473ffffffffffffffffffffffffffffffffffffffff1673ffffffffffffffffffffffffffffffffffffffff163373ffffffffffffffffffffffffffffffffffffffff16146101ae576040517f08c379a00000000000000000000000000000000000000000000000000000000081526004016101a5906103e6565b60405180910390fd5b348173ffffffffffffffffffffffffffffffffffffffff16311115610219578073ffffffffffffffffffffffffffffffffffffffff166108fc349081150290604051600060405180830381858888f19350505050158015610213573d6000803e3d6000fd5b50610254565b6040517f08c379a000000000000000000000000000000000000000000000000000000000815260040161024b90610452565b60405180910390fd5b50565b7fa576367e245e28a1f2c38ea67a3f4e6d6c7e6a1b7883c0b33d13aa894499a694336040516102869190610498565b60405180910390a1565b600073ffffffffffffffffffffffffffffffffffffffff82169050919050565b60006102bb82610290565b9050919050565b6102cb816102b0565b82525050565b60006020820190506102e660008301846102c2565b92915050565b600080fd5b6102fa816102b0565b811461030557600080fd5b50565b600081359050610317816102f1565b92915050565b600060208284031215610333576103326102ec565b5b600061034184828501610308565b91505092915050565b7f68657265206973206d79206576656e7400000000000000000000000000000000815250565b60006020820190506103846000830161034a565b919050565b600082825260208201905092915050565b7f796f7520617265206e6f742074686520636f6e7472616374206f776e65722e00600082015250565b60006103d0601f83610389565b91506103db8261039a565b602082019050919050565b600060208201905081810360008301526103ff816103c3565b9050919050565b7f6e6f7420656e6f7567682062616c616e63652e00000000000000000000000000600082015250565b600061043c601383610389565b915061044782610406565b602082019050919050565b6000602082019050818103600083015261046b8161042f565b9050919050565b7f68657265206973207468652074657374206576656e74206d6573736167652e00815250565b60006040820190506104ad60008301846102c2565b6104b960208301610472565b9291505056fea26469706673582212204252fb34402ab18c1bf19269215626dd9738a7fb9f4b1986b1e8babef7c55f3c64736f6c63430008100033",
					"opcodes": "PUSH1 0x80 PUSH1 0x40 MSTORE PUSH8 0xDE0B6B3A7640000 DUP1 EQ PUSH1 0x0 PUSH1 0x14 PUSH2 0x100 EXP DUP2 SLOAD DUP2 PUSH1 0xFF MUL NOT AND SWAP1 DUP4 ISZERO ISZERO MUL OR SWAP1 SSTORE POP PUSH20 0xCA35B7D915458EF540ADE6068DFE2F44E8FA733C PUSH1 0x1 PUSH1 0x0 PUSH2 0x100 EXP DUP2 SLOAD DUP2 PUSH20 0xFFFFFFFFFFFFFFFFFFFFFFFFFFFFFFFFFFFFFFFF MUL NOT AND SWAP1 DUP4 PUSH20 0xFFFFFFFFFFFFFFFFFFFFFFFFFFFFFFFFFFFFFFFF AND MUL OR SWAP1 SSTORE POP CALLVALUE DUP1 ISZERO PUSH2 0x89 JUMPI PUSH1 0x0 DUP1 REVERT JUMPDEST POP CALLER PUSH1 0x0 DUP1 PUSH2 0x100 EXP DUP2 SLOAD DUP2 PUSH20 0xFFFFFFFFFFFFFFFFFFFFFFFFFFFFFFFFFFFFFFFF MUL NOT AND SWAP1 DUP4 PUSH20 0xFFFFFFFFFFFFFFFFFFFFFFFFFFFFFFFFFFFFFFFF AND MUL OR SWAP1 SSTORE POP PUSH2 0x4F5 DUP1 PUSH2 0xD9 PUSH1 0x0 CODECOPY PUSH1 0x0 RETURN INVALID PUSH1 0x80 PUSH1 0x40 MSTORE PUSH1 0x4 CALLDATASIZE LT PUSH2 0x3F JUMPI PUSH1 0x0 CALLDATALOAD PUSH1 0xE0 SHR DUP1 PUSH4 0x32B7A761 EQ PUSH2 0x44 JUMPI DUP1 PUSH4 0x7324EB0E EQ PUSH2 0x5B JUMPI DUP1 PUSH4 0x767800DE EQ PUSH2 0x72 JUMPI DUP1 PUSH4 0xC575C238 EQ PUSH2 0x9D JUMPI JUMPDEST PUSH1 0x0 DUP1 REVERT JUMPDEST CALLVALUE DUP1 ISZERO PUSH2 0x50 JUMPI PUSH1 0x0 DUP1 REVERT JUMPDEST POP PUSH2 0x59 PUSH2 0xB9 JUMP JUMPDEST STOP JUMPDEST CALLVALUE DUP1 ISZERO PUSH2 0x67 JUMPI PUSH1 0x0 DUP1 REVERT JUMPDEST POP PUSH2 0x70 PUSH2 0xC3 JUMP JUMPDEST STOP JUMPDEST CALLVALUE DUP1 ISZERO PUSH2 0x7E JUMPI PUSH1 0x0 DUP1 REVERT JUMPDEST POP PUSH2 0x87 PUSH2 0xFA JUMP JUMPDEST PUSH1 0x40 MLOAD PUSH2 0x94 SWAP2 SWAP1 PUSH2 0x2D1 JUMP JUMPDEST PUSH1 0x40 MLOAD DUP1 SWAP2 SUB SWAP1 RETURN JUMPDEST PUSH2 0xB7 PUSH1 0x4 DUP1 CALLDATASIZE SUB DUP2 ADD SWAP1 PUSH2 0xB2 SWAP2 SWAP1 PUSH2 0x31D JUMP JUMPDEST PUSH2 0x120 JUMP JUMPDEST STOP JUMPDEST PUSH2 0xC1 PUSH2 0x257 JUMP JUMPDEST JUMP JUMPDEST PUSH32 0x8F072437671712BD61D3A3D3ED598AF9879F500C111F8282F212D047940C6D6 PUSH1 0x40 MLOAD PUSH2 0xF0 SWAP1 PUSH2 0x370 JUMP JUMPDEST PUSH1 0x40 MLOAD DUP1 SWAP2 SUB SWAP1 LOG1 JUMP JUMPDEST PUSH1 0x1 PUSH1 0x0 SWAP1 SLOAD SWAP1 PUSH2 0x100 EXP SWAP1 DIV PUSH20 0xFFFFFFFFFFFFFFFFFFFFFFFFFFFFFFFFFFFFFFFF AND DUP2 JUMP JUMPDEST PUSH1 0x0 DUP1 SLOAD SWAP1 PUSH2 0x100 EXP SWAP1 DIV PUSH20 0xFFFFFFFFFFFFFFFFFFFFFFFFFFFFFFFFFFFFFFFF AND PUSH20 0xFFFFFFFFFFFFFFFFFFFFFFFFFFFFFFFFFFFFFFFF AND CALLER PUSH20 0xFFFFFFFFFFFFFFFFFFFFFFFFFFFFFFFFFFFFFFFF AND EQ PUSH2 0x1AE JUMPI PUSH1 0x40 MLOAD PUSH32 0x8C379A000000000000000000000000000000000000000000000000000000000 DUP2 MSTORE PUSH1 0x4 ADD PUSH2 0x1A5 SWAP1 PUSH2 0x3E6 JUMP JUMPDEST PUSH1 0x40 MLOAD DUP1 SWAP2 SUB SWAP1 REVERT JUMPDEST CALLVALUE DUP2 PUSH20 0xFFFFFFFFFFFFFFFFFFFFFFFFFFFFFFFFFFFFFFFF AND BALANCE GT ISZERO PUSH2 0x219 JUMPI DUP1 PUSH20 0xFFFFFFFFFFFFFFFFFFFFFFFFFFFFFFFFFFFFFFFF AND PUSH2 0x8FC CALLVALUE SWAP1 DUP2 ISZERO MUL SWAP1 PUSH1 0x40 MLOAD PUSH1 0x0 PUSH1 0x40 MLOAD DUP1 DUP4 SUB DUP2 DUP6 DUP9 DUP9 CALL SWAP4 POP POP POP POP ISZERO DUP1 ISZERO PUSH2 0x213 JUMPI RETURNDATASIZE PUSH1 0x0 DUP1 RETURNDATACOPY RETURNDATASIZE PUSH1 0x0 REVERT JUMPDEST POP PUSH2 0x254 JUMP JUMPDEST PUSH1 0x40 MLOAD PUSH32 0x8C379A000000000000000000000000000000000000000000000000000000000 DUP2 MSTORE PUSH1 0x4 ADD PUSH2 0x24B SWAP1 PUSH2 0x452 JUMP JUMPDEST PUSH1 0x40 MLOAD DUP1 SWAP2 SUB SWAP1 REVERT JUMPDEST POP JUMP JUMPDEST PUSH32 0xA576367E245E28A1F2C38EA67A3F4E6D6C7E6A1B7883C0B33D13AA894499A694 CALLER PUSH1 0x40 MLOAD PUSH2 0x286 SWAP2 SWAP1 PUSH2 0x498 JUMP JUMPDEST PUSH1 0x40 MLOAD DUP1 SWAP2 SUB SWAP1 LOG1 JUMP JUMPDEST PUSH1 0x0 PUSH20 0xFFFFFFFFFFFFFFFFFFFFFFFFFFFFFFFFFFFFFFFF DUP3 AND SWAP1 POP SWAP2 SWAP1 POP JUMP JUMPDEST PUSH1 0x0 PUSH2 0x2BB DUP3 PUSH2 0x290 JUMP JUMPDEST SWAP1 POP SWAP2 SWAP1 POP JUMP JUMPDEST PUSH2 0x2CB DUP2 PUSH2 0x2B0 JUMP JUMPDEST DUP3 MSTORE POP POP JUMP JUMPDEST PUSH1 0x0 PUSH1 0x20 DUP3 ADD SWAP1 POP PUSH2 0x2E6 PUSH1 0x0 DUP4 ADD DUP5 PUSH2 0x2C2 JUMP JUMPDEST SWAP3 SWAP2 POP POP JUMP JUMPDEST PUSH1 0x0 DUP1 REVERT JUMPDEST PUSH2 0x2FA DUP2 PUSH2 0x2B0 JUMP JUMPDEST DUP2 EQ PUSH2 0x305 JUMPI PUSH1 0x0 DUP1 REVERT JUMPDEST POP JUMP JUMPDEST PUSH1 0x0 DUP2 CALLDATALOAD SWAP1 POP PUSH2 0x317 DUP2 PUSH2 0x2F1 JUMP JUMPDEST SWAP3 SWAP2 POP POP JUMP JUMPDEST PUSH1 0x0 PUSH1 0x20 DUP3 DUP5 SUB SLT ISZERO PUSH2 0x333 JUMPI PUSH2 0x332 PUSH2 0x2EC JUMP JUMPDEST JUMPDEST PUSH1 0x0 PUSH2 0x341 DUP5 DUP3 DUP6 ADD PUSH2 0x308 JUMP JUMPDEST SWAP2 POP POP SWAP3 SWAP2 POP POP JUMP JUMPDEST PUSH32 0x68657265206973206D79206576656E7400000000000000000000000000000000 DUP2 MSTORE POP JUMP JUMPDEST PUSH1 0x0 PUSH1 0x20 DUP3 ADD SWAP1 POP PUSH2 0x384 PUSH1 0x0 DUP4 ADD PUSH2 0x34A JUMP JUMPDEST SWAP2 SWAP1 POP JUMP JUMPDEST PUSH1 0x0 DUP3 DUP3 MSTORE PUSH1 0x20 DUP3 ADD SWAP1 POP SWAP3 SWAP2 POP POP JUMP JUMPDEST PUSH32 0x796F7520617265206E6F742074686520636F6E7472616374206F776E65722E00 PUSH1 0x0 DUP3 ADD MSTORE POP JUMP JUMPDEST PUSH1 0x0 PUSH2 0x3D0 PUSH1 0x1F DUP4 PUSH2 0x389 JUMP JUMPDEST SWAP2 POP PUSH2 0x3DB DUP3 PUSH2 0x39A JUMP JUMPDEST PUSH1 0x20 DUP3 ADD SWAP1 POP SWAP2 SWAP1 POP JUMP JUMPDEST PUSH1 0x0 PUSH1 0x20 DUP3 ADD SWAP1 POP DUP2 DUP2 SUB PUSH1 0x0 DUP4 ADD MSTORE PUSH2 0x3FF DUP2 PUSH2 0x3C3 JUMP JUMPDEST SWAP1 POP SWAP2 SWAP1 POP JUMP JUMPDEST PUSH32 0x6E6F7420656E6F7567682062616C616E63652E00000000000000000000000000 PUSH1 0x0 DUP3 ADD MSTORE POP JUMP JUMPDEST PUSH1 0x0 PUSH2 0x43C PUSH1 0x13 DUP4 PUSH2 0x389 JUMP JUMPDEST SWAP2 POP PUSH2 0x447 DUP3 PUSH2 0x406 JUMP JUMPDEST PUSH1 0x20 DUP3 ADD SWAP1 POP SWAP2 SWAP1 POP JUMP JUMPDEST PUSH1 0x0 PUSH1 0x20 DUP3 ADD SWAP1 POP DUP2 DUP2 SUB PUSH1 0x0 DUP4 ADD MSTORE PUSH2 0x46B DUP2 PUSH2 0x42F JUMP JUMPDEST SWAP1 POP SWAP2 SWAP1 POP JUMP JUMPDEST PUSH32 0x68657265206973207468652074657374206576656E74206D6573736167652E00 DUP2 MSTORE POP JUMP JUMPDEST PUSH1 0x0 PUSH1 0x40 DUP3 ADD SWAP1 POP PUSH2 0x4AD PUSH1 0x0 DUP4 ADD DUP5 PUSH2 0x2C2 JUMP JUMPDEST PUSH2 0x4B9 PUSH1 0x20 DUP4 ADD PUSH2 0x472 JUMP JUMPDEST SWAP3 SWAP2 POP POP JUMP INVALID LOG2 PUSH5 0x6970667358 0x22 SLT KECCAK256 TIMESTAMP MSTORE 0xFB CALLVALUE BLOCKHASH 0x2A 0xB1 DUP13 SHL CALL SWAP3 PUSH10 0x215626DD9738A7FB9F4B NOT DUP7 0xB1 0xE8 0xBA 0xBE 0xF7 0xC5 0x5F EXTCODECOPY PUSH5 0x736F6C6343 STOP ADDMOD LT STOP CALLER "
				},
				"gasEstimates": {
					"creation": {
						"codeDepositCost": "253800",
						"executionCost": "73150",
						"totalCost": "326950"
					},
					"external": {
						"addr()": "2536",
						"sendEvent()": "1688",
						"sendMyEvent()": "1279",
						"sendToken(address)": "infinite"
					}
				},
				"methodIdentifiers": {
					"addr()": "767800de",
					"sendEvent()": "32b7a761",
					"sendMyEvent()": "7324eb0e",
					"sendToken(address)": "c575c238"
				}
			},
			"storageLayout": {
				"storage": [
					{
						"astId": 38,
						"contract": "contracts/eventTest.sol:MyContract",
						"label": "owner",
						"offset": 0,
						"slot": "0",
						"type": "t_address"
					},
					{
						"astId": 47,
						"contract": "contracts/eventTest.sol:MyContract",
						"label": "equal",
						"offset": 20,
						"slot": "0",
						"type": "t_bool"
					},
					{
						"astId": 50,
						"contract": "contracts/eventTest.sol:MyContract",
						"label": "addr",
						"offset": 0,
						"slot": "1",
						"type": "t_address"
					}
				],
				"types": {
					"t_address": {
						"encoding": "inplace",
						"label": "address",
						"numberOfBytes": "20"
					},
					"t_bool": {
						"encoding": "inplace",
						"label": "bool",
						"numberOfBytes": "1"
					}
				}
			},
			"userdoc": {
				"kind": "user",
				"methods": {},
				"version": 1
			}
		}
	}
}