{
	"data": {
		"bytecode": {
			"linkReferences": {},
			"object": "608060405234801561001057600080fd5b506104c8806100206000396000f3fe608060405234801561001057600080fd5b50600436106100365760003560e01c806371e5ee5f1461003b578063f8a8fd6d1461006b575b600080fd5b6100556004803603810190610050919061034b565b610075565b6040516100629190610387565b60405180910390f35b610073610099565b005b6000818154811061008557600080fd5b906000526020600020016000915090505481565b604051806101000160405280600160ff168152602001600260ff168152602001600360ff168152602001600460ff168152602001600560ff168152602001600660ff168152602001600760ff168152602001600860ff1681525060009060086101039291906102a1565b5061010e6001610224565b600760008054905014610124576101236103a2565b5b60016000808154811061013a576101396103d1565b5b906000526020600020015414610153576101526103a2565b5b6008600060018154811061016a576101696103d1565b5b906000526020600020015414610183576101826103a2565b5b61019d6001600080549050610198919061042f565b610224565b6006600080549050146101b3576101b26103a2565b5b6001600080815481106101c9576101c86103d1565b5b9060005260206000200154146101e2576101e16103a2565b5b6006600060016000805490506101f8919061042f565b81548110610209576102086103d1565b5b906000526020600020015414610222576102216103a2565b5b565b60006001600080549050610238919061042f565b81548110610249576102486103d1565b5b906000526020600020015460008281548110610268576102676103d1565b5b9060005260206000200181905550600080548061028857610287610463565b5b6001900381819060005260206000200160009055905550565b8280548282559060005260206000209081019282156102e2579160200282015b828111156102e1578251829060ff169055916020019190600101906102c1565b5b5090506102ef91906102f3565b5090565b5b8082111561030c5760008160009055506001016102f4565b5090565b600080fd5b6000819050919050565b61032881610315565b811461033357600080fd5b50565b6000813590506103458161031f565b92915050565b60006020828403121561036157610360610310565b5b600061036f84828501610336565b91505092915050565b61038181610315565b82525050565b600060208201905061039c6000830184610378565b92915050565b7f4e487b7100000000000000000000000000000000000000000000000000000000600052600160045260246000fd5b7f4e487b7100000000000000000000000000000000000000000000000000000000600052603260045260246000fd5b7f4e487b7100000000000000000000000000000000000000000000000000000000600052601160045260246000fd5b600061043a82610315565b915061044583610315565b92508282101561045857610457610400565b5b828203905092915050565b7f4e487b7100000000000000000000000000000000000000000000000000000000600052603160045260246000fdfea2646970667358221220fb0cf892da86c0f9bcc48cbbcd83cdb59b42b04097c6175b8fc474eebd31242b64736f6c634300080f0033",
			"opcodes": "PUSH1 0x80 PUSH1 0x40 MSTORE CALLVALUE DUP1 ISZERO PUSH2 0x10 JUMPI PUSH1 0x0 DUP1 REVERT JUMPDEST POP PUSH2 0x4C8 DUP1 PUSH2 0x20 PUSH1 0x0 CODECOPY PUSH1 0x0 RETURN INVALID PUSH1 0x80 PUSH1 0x40 MSTORE CALLVALUE DUP1 ISZERO PUSH2 0x10 JUMPI PUSH1 0x0 DUP1 REVERT JUMPDEST POP PUSH1 0x4 CALLDATASIZE LT PUSH2 0x36 JUMPI PUSH1 0x0 CALLDATALOAD PUSH1 0xE0 SHR DUP1 PUSH4 0x71E5EE5F EQ PUSH2 0x3B JUMPI DUP1 PUSH4 0xF8A8FD6D EQ PUSH2 0x6B JUMPI JUMPDEST PUSH1 0x0 DUP1 REVERT JUMPDEST PUSH2 0x55 PUSH1 0x4 DUP1 CALLDATASIZE SUB DUP2 ADD SWAP1 PUSH2 0x50 SWAP2 SWAP1 PUSH2 0x34B JUMP JUMPDEST PUSH2 0x75 JUMP JUMPDEST PUSH1 0x40 MLOAD PUSH2 0x62 SWAP2 SWAP1 PUSH2 0x387 JUMP JUMPDEST PUSH1 0x40 MLOAD DUP1 SWAP2 SUB SWAP1 RETURN JUMPDEST PUSH2 0x73 PUSH2 0x99 JUMP JUMPDEST STOP JUMPDEST PUSH1 0x0 DUP2 DUP2 SLOAD DUP2 LT PUSH2 0x85 JUMPI PUSH1 0x0 DUP1 REVERT JUMPDEST SWAP1 PUSH1 0x0 MSTORE PUSH1 0x20 PUSH1 0x0 KECCAK256 ADD PUSH1 0x0 SWAP2 POP SWAP1 POP SLOAD DUP2 JUMP JUMPDEST PUSH1 0x40 MLOAD DUP1 PUSH2 0x100 ADD PUSH1 0x40 MSTORE DUP1 PUSH1 0x1 PUSH1 0xFF AND DUP2 MSTORE PUSH1 0x20 ADD PUSH1 0x2 PUSH1 0xFF AND DUP2 MSTORE PUSH1 0x20 ADD PUSH1 0x3 PUSH1 0xFF AND DUP2 MSTORE PUSH1 0x20 ADD PUSH1 0x4 PUSH1 0xFF AND DUP2 MSTORE PUSH1 0x20 ADD PUSH1 0x5 PUSH1 0xFF AND DUP2 MSTORE PUSH1 0x20 ADD PUSH1 0x6 PUSH1 0xFF AND DUP2 MSTORE PUSH1 0x20 ADD PUSH1 0x7 PUSH1 0xFF AND DUP2 MSTORE PUSH1 0x20 ADD PUSH1 0x8 PUSH1 0xFF AND DUP2 MSTORE POP PUSH1 0x0 SWAP1 PUSH1 0x8 PUSH2 0x103 SWAP3 SWAP2 SWAP1 PUSH2 0x2A1 JUMP JUMPDEST POP PUSH2 0x10E PUSH1 0x1 PUSH2 0x224 JUMP JUMPDEST PUSH1 0x7 PUSH1 0x0 DUP1 SLOAD SWAP1 POP EQ PUSH2 0x124 JUMPI PUSH2 0x123 PUSH2 0x3A2 JUMP JUMPDEST JUMPDEST PUSH1 0x1 PUSH1 0x0 DUP1 DUP2 SLOAD DUP2 LT PUSH2 0x13A JUMPI PUSH2 0x139 PUSH2 0x3D1 JUMP JUMPDEST JUMPDEST SWAP1 PUSH1 0x0 MSTORE PUSH1 0x20 PUSH1 0x0 KECCAK256 ADD SLOAD EQ PUSH2 0x153 JUMPI PUSH2 0x152 PUSH2 0x3A2 JUMP JUMPDEST JUMPDEST PUSH1 0x8 PUSH1 0x0 PUSH1 0x1 DUP2 SLOAD DUP2 LT PUSH2 0x16A JUMPI PUSH2 0x169 PUSH2 0x3D1 JUMP JUMPDEST JUMPDEST SWAP1 PUSH1 0x0 MSTORE PUSH1 0x20 PUSH1 0x0 KECCAK256 ADD SLOAD EQ PUSH2 0x183 JUMPI PUSH2 0x182 PUSH2 0x3A2 JUMP JUMPDEST JUMPDEST PUSH2 0x19D PUSH1 0x1 PUSH1 0x0 DUP1 SLOAD SWAP1 POP PUSH2 0x198 SWAP2 SWAP1 PUSH2 0x42F JUMP JUMPDEST PUSH2 0x224 JUMP JUMPDEST PUSH1 0x6 PUSH1 0x0 DUP1 SLOAD SWAP1 POP EQ PUSH2 0x1B3 JUMPI PUSH2 0x1B2 PUSH2 0x3A2 JUMP JUMPDEST JUMPDEST PUSH1 0x1 PUSH1 0x0 DUP1 DUP2 SLOAD DUP2 LT PUSH2 0x1C9 JUMPI PUSH2 0x1C8 PUSH2 0x3D1 JUMP JUMPDEST JUMPDEST SWAP1 PUSH1 0x0 MSTORE PUSH1 0x20 PUSH1 0x0 KECCAK256 ADD SLOAD EQ PUSH2 0x1E2 JUMPI PUSH2 0x1E1 PUSH2 0x3A2 JUMP JUMPDEST JUMPDEST PUSH1 0x6 PUSH1 0x0 PUSH1 0x1 PUSH1 0x0 DUP1 SLOAD SWAP1 POP PUSH2 0x1F8 SWAP2 SWAP1 PUSH2 0x42F JUMP JUMPDEST DUP2 SLOAD DUP2 LT PUSH2 0x209 JUMPI PUSH2 0x208 PUSH2 0x3D1 JUMP JUMPDEST JUMPDEST SWAP1 PUSH1 0x0 MSTORE PUSH1 0x20 PUSH1 0x0 KECCAK256 ADD SLOAD EQ PUSH2 0x222 JUMPI PUSH2 0x221 PUSH2 0x3A2 JUMP JUMPDEST JUMPDEST JUMP JUMPDEST PUSH1 0x0 PUSH1 0x1 PUSH1 0x0 DUP1 SLOAD SWAP1 POP PUSH2 0x238 SWAP2 SWAP1 PUSH2 0x42F JUMP JUMPDEST DUP2 SLOAD DUP2 LT PUSH2 0x249 JUMPI PUSH2 0x248 PUSH2 0x3D1 JUMP JUMPDEST JUMPDEST SWAP1 PUSH1 0x0 MSTORE PUSH1 0x20 PUSH1 0x0 KECCAK256 ADD SLOAD PUSH1 0x0 DUP3 DUP2 SLOAD DUP2 LT PUSH2 0x268 JUMPI PUSH2 0x267 PUSH2 0x3D1 JUMP JUMPDEST JUMPDEST SWAP1 PUSH1 0x0 MSTORE PUSH1 0x20 PUSH1 0x0 KECCAK256 ADD DUP2 SWAP1 SSTORE POP PUSH1 0x0 DUP1 SLOAD DUP1 PUSH2 0x288 JUMPI PUSH2 0x287 PUSH2 0x463 JUMP JUMPDEST JUMPDEST PUSH1 0x1 SWAP1 SUB DUP2 DUP2 SWAP1 PUSH1 0x0 MSTORE PUSH1 0x20 PUSH1 0x0 KECCAK256 ADD PUSH1 0x0 SWAP1 SSTORE SWAP1 SSTORE POP JUMP JUMPDEST DUP3 DUP1 SLOAD DUP3 DUP3 SSTORE SWAP1 PUSH1 0x0 MSTORE PUSH1 0x20 PUSH1 0x0 KECCAK256 SWAP1 DUP2 ADD SWAP3 DUP3 ISZERO PUSH2 0x2E2 JUMPI SWAP2 PUSH1 0x20 MUL DUP3 ADD JUMPDEST DUP3 DUP2 GT ISZERO PUSH2 0x2E1 JUMPI DUP3 MLOAD DUP3 SWAP1 PUSH1 0xFF AND SWAP1 SSTORE SWAP2 PUSH1 0x20 ADD SWAP2 SWAP1 PUSH1 0x1 ADD SWAP1 PUSH2 0x2C1 JUMP JUMPDEST JUMPDEST POP SWAP1 POP PUSH2 0x2EF SWAP2 SWAP1 PUSH2 0x2F3 JUMP JUMPDEST POP SWAP1 JUMP JUMPDEST JUMPDEST DUP1 DUP3 GT ISZERO PUSH2 0x30C JUMPI PUSH1 0x0 DUP2 PUSH1 0x0 SWAP1 SSTORE POP PUSH1 0x1 ADD PUSH2 0x2F4 JUMP JUMPDEST POP SWAP1 JUMP JUMPDEST PUSH1 0x0 DUP1 REVERT JUMPDEST PUSH1 0x0 DUP2 SWAP1 POP SWAP2 SWAP1 POP JUMP JUMPDEST PUSH2 0x328 DUP2 PUSH2 0x315 JUMP JUMPDEST DUP2 EQ PUSH2 0x333 JUMPI PUSH1 0x0 DUP1 REVERT JUMPDEST POP JUMP JUMPDEST PUSH1 0x0 DUP2 CALLDATALOAD SWAP1 POP PUSH2 0x345 DUP2 PUSH2 0x31F JUMP JUMPDEST SWAP3 SWAP2 POP POP JUMP JUMPDEST PUSH1 0x0 PUSH1 0x20 DUP3 DUP5 SUB SLT ISZERO PUSH2 0x361 JUMPI PUSH2 0x360 PUSH2 0x310 JUMP JUMPDEST JUMPDEST PUSH1 0x0 PUSH2 0x36F DUP5 DUP3 DUP6 ADD PUSH2 0x336 JUMP JUMPDEST SWAP2 POP POP SWAP3 SWAP2 POP POP JUMP JUMPDEST PUSH2 0x381 DUP2 PUSH2 0x315 JUMP JUMPDEST DUP3 MSTORE POP POP JUMP JUMPDEST PUSH1 0x0 PUSH1 0x20 DUP3 ADD SWAP1 POP PUSH2 0x39C PUSH1 0x0 DUP4 ADD DUP5 PUSH2 0x378 JUMP JUMPDEST SWAP3 SWAP2 POP POP JUMP JUMPDEST PUSH32 0x4E487B7100000000000000000000000000000000000000000000000000000000 PUSH1 0x0 MSTORE PUSH1 0x1 PUSH1 0x4 MSTORE PUSH1 0x24 PUSH1 0x0 REVERT JUMPDEST PUSH32 0x4E487B7100000000000000000000000000000000000000000000000000000000 PUSH1 0x0 MSTORE PUSH1 0x32 PUSH1 0x4 MSTORE PUSH1 0x24 PUSH1 0x0 REVERT JUMPDEST PUSH32 0x4E487B7100000000000000000000000000000000000000000000000000000000 PUSH1 0x0 MSTORE PUSH1 0x11 PUSH1 0x4 MSTORE PUSH1 0x24 PUSH1 0x0 REVERT JUMPDEST PUSH1 0x0 PUSH2 0x43A DUP3 PUSH2 0x315 JUMP JUMPDEST SWAP2 POP PUSH2 0x445 DUP4 PUSH2 0x315 JUMP JUMPDEST SWAP3 POP DUP3 DUP3 LT ISZERO PUSH2 0x458 JUMPI PUSH2 0x457 PUSH2 0x400 JUMP JUMPDEST JUMPDEST DUP3 DUP3 SUB SWAP1 POP SWAP3 SWAP2 POP POP JUMP JUMPDEST PUSH32 0x4E487B7100000000000000000000000000000000000000000000000000000000 PUSH1 0x0 MSTORE PUSH1 0x31 PUSH1 0x4 MSTORE PUSH1 0x24 PUSH1 0x0 REVERT INVALID LOG2 PUSH5 0x6970667358 0x22 SLT KECCAK256 0xFB 0xC 0xF8 SWAP3 0xDA DUP7 0xC0 0xF9 0xBC 0xC4 DUP13 0xBB 0xCD DUP4 0xCD 0xB5 SWAP12 TIMESTAMP 0xB0 BLOCKHASH SWAP8 0xC6 OR JUMPDEST DUP16 0xC4 PUSH21 0xEEBD31242B64736F6C634300080F00330000000000 "
		},
		"gasEstimates": {
			"creation": {
				"codeDepositCost": "244800",
				"executionCost": "287",
				"totalCost": "245087"
			},
			"external": {
				"arr(uint256)": "infinite",
				"test()": "infinite"
			},
			"internal": {
				"replaceFromEnd(uint256)": "infinite"
			}
		},
		"methodIdentifiers": {
			"arr(uint256)": "71e5ee5f",
			"test()": "f8a8fd6d"
		}
	},
	"abi": [
		{
			"inputs": [
				{
					"internalType": "uint256",
					"name": "",
					"type": "uint256"
				}
			],
			"name": "arr",
			"outputs": [
				{
					"internalType": "uint256",
					"name": "",
					"type": "uint256"
				}
			],
			"stateMutability": "view",
			"type": "function"
		},
		{
			"inputs": [],
			"name": "test",
			"outputs": [],
			"stateMutability": "nonpayable",
			"type": "function"
		}
	]
}