{
	"data": {
		"bytecode": {
			"linkReferences": {},
			"object": "6080604052348015600f57600080fd5b5060958061001e6000396000f3fe6080604052348015600f57600080fd5b5060043610603c5760003560e01c80637558593e14604157806392277933146049578063f8a8fd6d146051575b600080fd5b60476059565b005b604f605b565b005b6057605d565b005b565b565b56fea2646970667358221220f9ebd4301741e5d805b37b0b13237f572f3c8d02f399bc7ae26ff2eaeb2b924764736f6c634300080f0033",
			"opcodes": "PUSH1 0x80 PUSH1 0x40 MSTORE CALLVALUE DUP1 ISZERO PUSH1 0xF JUMPI PUSH1 0x0 DUP1 REVERT JUMPDEST POP PUSH1 0x95 DUP1 PUSH2 0x1E PUSH1 0x0 CODECOPY PUSH1 0x0 RETURN INVALID PUSH1 0x80 PUSH1 0x40 MSTORE CALLVALUE DUP1 ISZERO PUSH1 0xF JUMPI PUSH1 0x0 DUP1 REVERT JUMPDEST POP PUSH1 0x4 CALLDATASIZE LT PUSH1 0x3C JUMPI PUSH1 0x0 CALLDATALOAD PUSH1 0xE0 SHR DUP1 PUSH4 0x7558593E EQ PUSH1 0x41 JUMPI DUP1 PUSH4 0x92277933 EQ PUSH1 0x49 JUMPI DUP1 PUSH4 0xF8A8FD6D EQ PUSH1 0x51 JUMPI JUMPDEST PUSH1 0x0 DUP1 REVERT JUMPDEST PUSH1 0x47 PUSH1 0x59 JUMP JUMPDEST STOP JUMPDEST PUSH1 0x4F PUSH1 0x5B JUMP JUMPDEST STOP JUMPDEST PUSH1 0x57 PUSH1 0x5D JUMP JUMPDEST STOP JUMPDEST JUMP JUMPDEST JUMP JUMPDEST JUMP INVALID LOG2 PUSH5 0x6970667358 0x22 SLT KECCAK256 0xF9 0xEB 0xD4 ADDRESS OR COINBASE 0xE5 0xD8 SDIV 0xB3 PUSH28 0xB13237F572F3C8D02F399BC7AE26FF2EAEB2B924764736F6C634300 ADDMOD 0xF STOP CALLER "
		},
		"gasEstimates": {
			"creation": {
				"codeDepositCost": "29800",
				"executionCost": "81",
				"totalCost": "29881"
			},
			"external": {
				"abc()": "144",
				"test()": "166",
				"testII()": "122"
			}
		},
		"methodIdentifiers": {
			"abc()": "92277933",
			"test()": "f8a8fd6d",
			"testII()": "7558593e"
		}
	},
	"abi": [
		{
			"inputs": [],
			"name": "abc",
			"outputs": [],
			"stateMutability": "nonpayable",
			"type": "function"
		},
		{
			"inputs": [],
			"name": "test",
			"outputs": [],
			"stateMutability": "nonpayable",
			"type": "function"
		},
		{
			"inputs": [],
			"name": "testII",
			"outputs": [],
			"stateMutability": "nonpayable",
			"type": "function"
		}
	]
}