{
	"data": {
		"bytecode": {
			"linkReferences": {},
			"object": "6080604052600a600055737a58c0be72be218b41c608b7fe7c5bb630736c71600160006101000a81548173ffffffffffffffffffffffffffffffffffffffff021916908373ffffffffffffffffffffffffffffffffffffffff1602179055506040518060400160405280600481526020017f307841410000000000000000000000000000000000000000000000000000000081525060029081620000a49190620003cc565b506040518060400160405280600560ff168152602001600660ff168152506003906002620000d4929190620000e9565b50348015620000e257600080fd5b50620004b3565b826002810192821562000120579160200282015b828111156200011f578251829060ff16905591602001919060010190620000fd565b5b5090506200012f919062000133565b5090565b5b808211156200014e57600081600090555060010162000134565b5090565b600081519050919050565b7f4e487b7100000000000000000000000000000000000000000000000000000000600052604160045260246000fd5b7f4e487b7100000000000000000000000000000000000000000000000000000000600052602260045260246000fd5b60006002820490506001821680620001d457607f821691505b602082108103620001ea57620001e96200018c565b5b50919050565b60008190508160005260206000209050919050565b60006020601f8301049050919050565b600082821b905092915050565b600060088302620002547fffffffffffffffffffffffffffffffffffffffffffffffffffffffffffffffff8262000215565b62000260868362000215565b95508019841693508086168417925050509392505050565b6000819050919050565b6000819050919050565b6000620002ad620002a7620002a18462000278565b62000282565b62000278565b9050919050565b6000819050919050565b620002c9836200028c565b620002e1620002d882620002b4565b84845462000222565b825550505050565b600090565b620002f8620002e9565b62000305818484620002be565b505050565b5b818110156200032d5762000321600082620002ee565b6001810190506200030b565b5050565b601f8211156200037c576200034681620001f0565b620003518462000205565b8101602085101562000361578190505b62000379620003708562000205565b8301826200030a565b50505b505050565b600082821c905092915050565b6000620003a16000198460080262000381565b1980831691505092915050565b6000620003bc83836200038e565b9150826002028217905092915050565b620003d78262000152565b67ffffffffffffffff811115620003f357620003f26200015d565b5b620003ff8254620001bb565b6200040c82828562000331565b600060209050601f8311600181146200044457600084156200042f578287015190505b6200043b8582620003ae565b865550620004ab565b601f1984166200045486620001f0565b60005b828110156200047e5784890151825560018201915060208501945060208101905062000457565b868310156200049e57848901516200049a601f8916826200038e565b8355505b6001600288020188555050505b505050505050565b6109cd80620004c36000396000f3fe608060405234801561001057600080fd5b50600436106100365760003560e01c80631e27f7391461003b578063e5c5e9a31461006b575b600080fd5b61005560048036038101906100509190610290565b61009e565b60405161006291906103d0565b60405180910390f35b61008560048036038101906100809190610448565b6100d6565b60405161009594939291906105b3565b60405180910390f35b60608686868686866040516020016100bb969594939291906106ad565b60405160208183030381529060405290509695505050505050565b60008060606100e361010b565b85858101906100f29190610914565b8094508195508296508397505050505092959194509250565b6040518060400160405280600290602082028036833780820191505090505090565b6000604051905090565b600080fd5b600080fd5b6000819050919050565b61015481610141565b811461015f57600080fd5b50565b6000813590506101718161014b565b92915050565b600073ffffffffffffffffffffffffffffffffffffffff82169050919050565b60006101a282610177565b9050919050565b6101b281610197565b81146101bd57600080fd5b50565b6000813590506101cf816101a9565b92915050565b600080fd5b600080fd5b600080fd5b60008083601f8401126101fa576101f96101d5565b5b8235905067ffffffffffffffff811115610217576102166101da565b5b602083019150836001820283011115610233576102326101df565b5b9250929050565b60008083601f8401126102505761024f6101d5565b5b8235905067ffffffffffffffff81111561026d5761026c6101da565b5b602083019150836020820283011115610289576102886101df565b5b9250929050565b600080600080600080608087890312156102ad576102ac610137565b5b60006102bb89828a01610162565b96505060206102cc89828a016101c0565b955050604087013567ffffffffffffffff8111156102ed576102ec61013c565b5b6102f989828a016101e4565b9450945050606087013567ffffffffffffffff81111561031c5761031b61013c565b5b61032889828a0161023a565b92509250509295509295509295565b600081519050919050565b600082825260208201905092915050565b60005b83811015610371578082015181840152602081019050610356565b83811115610380576000848401525b50505050565b6000601f19601f8301169050919050565b60006103a282610337565b6103ac8185610342565b93506103bc818560208601610353565b6103c581610386565b840191505092915050565b600060208201905081810360008301526103ea8184610397565b905092915050565b60008083601f840112610408576104076101d5565b5b8235905067ffffffffffffffff811115610425576104246101da565b5b602083019150836001820283011115610441576104406101df565b5b9250929050565b6000806020838503121561045f5761045e610137565b5b600083013567ffffffffffffffff81111561047d5761047c61013c565b5b610489858286016103f2565b92509250509250929050565b61049e81610141565b82525050565b6104ad81610197565b82525050565b600081519050919050565b600082825260208201905092915050565b60006104da826104b3565b6104e481856104be565b93506104f4818560208601610353565b6104fd81610386565b840191505092915050565b600060029050919050565b600081905092915050565b6000819050919050565b61053181610141565b82525050565b60006105438383610528565b60208301905092915050565b6000602082019050919050565b61056581610508565b61056f8184610513565b925061057a8261051e565b8060005b838110156105ab5781516105928782610537565b965061059d8361054f565b92505060018101905061057e565b505050505050565b600060a0820190506105c86000830187610495565b6105d560208301866104a4565b81810360408301526105e781856104cf565b90506105f6606083018461055c565b95945050505050565b82818337600083830152505050565b600061061a83856104be565b93506106278385846105ff565b61063083610386565b840190509392505050565b600082825260208201905092915050565b600080fd5b600061065d838561063b565b93507f07ffffffffffffffffffffffffffffffffffffffffffffffffffffffffffffff8311156106905761068f61064c565b5b6020830292506106a18385846105ff565b82840190509392505050565b60006080820190506106c26000830189610495565b6106cf60208301886104a4565b81810360408301526106e281868861060e565b905081810360608301526106f7818486610651565b9050979650505050505050565b600061070f82610177565b9050919050565b61071f81610704565b811461072a57600080fd5b50565b60008135905061073c81610716565b92915050565b600080fd5b7f4e487b7100000000000000000000000000000000000000000000000000000000600052604160045260246000fd5b61077f82610386565b810181811067ffffffffffffffff8211171561079e5761079d610747565b5b80604052505050565b60006107b161012d565b90506107bd8282610776565b919050565b600067ffffffffffffffff8211156107dd576107dc610747565b5b6107e682610386565b9050602081019050919050565b6000610806610801846107c2565b6107a7565b90508281526020810184848401111561082257610821610742565b5b61082d8482856105ff565b509392505050565b600082601f83011261084a576108496101d5565b5b813561085a8482602086016107f3565b91505092915050565b600067ffffffffffffffff82111561087e5761087d610747565b5b602082029050919050565b600061089c61089784610863565b6107a7565b905080602084028301858111156108b6576108b56101df565b5b835b818110156108df57806108cb8882610162565b8452602084019350506020810190506108b8565b5050509392505050565b600082601f8301126108fe576108fd6101d5565b5b600261090b848285610889565b91505092915050565b60008060008060a0858703121561092e5761092d610137565b5b600061093c87828801610162565b945050602061094d8782880161072d565b935050604085013567ffffffffffffffff81111561096e5761096d61013c565b5b61097a87828801610835565b925050606061098b878288016108e9565b9150509295919450925056fea26469706673582212203143dfe8267279318fff3812f10e84f1b86881dae6408768014cedcfb04956b364736f6c634300080f0033",
			"opcodes": "PUSH1 0x80 PUSH1 0x40 MSTORE PUSH1 0xA PUSH1 0x0 SSTORE PUSH20 0x7A58C0BE72BE218B41C608B7FE7C5BB630736C71 PUSH1 0x1 PUSH1 0x0 PUSH2 0x100 EXP DUP2 SLOAD DUP2 PUSH20 0xFFFFFFFFFFFFFFFFFFFFFFFFFFFFFFFFFFFFFFFF MUL NOT AND SWAP1 DUP4 PUSH20 0xFFFFFFFFFFFFFFFFFFFFFFFFFFFFFFFFFFFFFFFF AND MUL OR SWAP1 SSTORE POP PUSH1 0x40 MLOAD DUP1 PUSH1 0x40 ADD PUSH1 0x40 MSTORE DUP1 PUSH1 0x4 DUP2 MSTORE PUSH1 0x20 ADD PUSH32 0x3078414100000000000000000000000000000000000000000000000000000000 DUP2 MSTORE POP PUSH1 0x2 SWAP1 DUP2 PUSH3 0xA4 SWAP2 SWAP1 PUSH3 0x3CC JUMP JUMPDEST POP PUSH1 0x40 MLOAD DUP1 PUSH1 0x40 ADD PUSH1 0x40 MSTORE DUP1 PUSH1 0x5 PUSH1 0xFF AND DUP2 MSTORE PUSH1 0x20 ADD PUSH1 0x6 PUSH1 0xFF AND DUP2 MSTORE POP PUSH1 0x3 SWAP1 PUSH1 0x2 PUSH3 0xD4 SWAP3 SWAP2 SWAP1 PUSH3 0xE9 JUMP JUMPDEST POP CALLVALUE DUP1 ISZERO PUSH3 0xE2 JUMPI PUSH1 0x0 DUP1 REVERT JUMPDEST POP PUSH3 0x4B3 JUMP JUMPDEST DUP3 PUSH1 0x2 DUP2 ADD SWAP3 DUP3 ISZERO PUSH3 0x120 JUMPI SWAP2 PUSH1 0x20 MUL DUP3 ADD JUMPDEST DUP3 DUP2 GT ISZERO PUSH3 0x11F JUMPI DUP3 MLOAD DUP3 SWAP1 PUSH1 0xFF AND SWAP1 SSTORE SWAP2 PUSH1 0x20 ADD SWAP2 SWAP1 PUSH1 0x1 ADD SWAP1 PUSH3 0xFD JUMP JUMPDEST JUMPDEST POP SWAP1 POP PUSH3 0x12F SWAP2 SWAP1 PUSH3 0x133 JUMP JUMPDEST POP SWAP1 JUMP JUMPDEST JUMPDEST DUP1 DUP3 GT ISZERO PUSH3 0x14E JUMPI PUSH1 0x0 DUP2 PUSH1 0x0 SWAP1 SSTORE POP PUSH1 0x1 ADD PUSH3 0x134 JUMP JUMPDEST POP SWAP1 JUMP JUMPDEST PUSH1 0x0 DUP2 MLOAD SWAP1 POP SWAP2 SWAP1 POP JUMP JUMPDEST PUSH32 0x4E487B7100000000000000000000000000000000000000000000000000000000 PUSH1 0x0 MSTORE PUSH1 0x41 PUSH1 0x4 MSTORE PUSH1 0x24 PUSH1 0x0 REVERT JUMPDEST PUSH32 0x4E487B7100000000000000000000000000000000000000000000000000000000 PUSH1 0x0 MSTORE PUSH1 0x22 PUSH1 0x4 MSTORE PUSH1 0x24 PUSH1 0x0 REVERT JUMPDEST PUSH1 0x0 PUSH1 0x2 DUP3 DIV SWAP1 POP PUSH1 0x1 DUP3 AND DUP1 PUSH3 0x1D4 JUMPI PUSH1 0x7F DUP3 AND SWAP2 POP JUMPDEST PUSH1 0x20 DUP3 LT DUP2 SUB PUSH3 0x1EA JUMPI PUSH3 0x1E9 PUSH3 0x18C JUMP JUMPDEST JUMPDEST POP SWAP2 SWAP1 POP JUMP JUMPDEST PUSH1 0x0 DUP2 SWAP1 POP DUP2 PUSH1 0x0 MSTORE PUSH1 0x20 PUSH1 0x0 KECCAK256 SWAP1 POP SWAP2 SWAP1 POP JUMP JUMPDEST PUSH1 0x0 PUSH1 0x20 PUSH1 0x1F DUP4 ADD DIV SWAP1 POP SWAP2 SWAP1 POP JUMP JUMPDEST PUSH1 0x0 DUP3 DUP3 SHL SWAP1 POP SWAP3 SWAP2 POP POP JUMP JUMPDEST PUSH1 0x0 PUSH1 0x8 DUP4 MUL PUSH3 0x254 PUSH32 0xFFFFFFFFFFFFFFFFFFFFFFFFFFFFFFFFFFFFFFFFFFFFFFFFFFFFFFFFFFFFFFFF DUP3 PUSH3 0x215 JUMP JUMPDEST PUSH3 0x260 DUP7 DUP4 PUSH3 0x215 JUMP JUMPDEST SWAP6 POP DUP1 NOT DUP5 AND SWAP4 POP DUP1 DUP7 AND DUP5 OR SWAP3 POP POP POP SWAP4 SWAP3 POP POP POP JUMP JUMPDEST PUSH1 0x0 DUP2 SWAP1 POP SWAP2 SWAP1 POP JUMP JUMPDEST PUSH1 0x0 DUP2 SWAP1 POP SWAP2 SWAP1 POP JUMP JUMPDEST PUSH1 0x0 PUSH3 0x2AD PUSH3 0x2A7 PUSH3 0x2A1 DUP5 PUSH3 0x278 JUMP JUMPDEST PUSH3 0x282 JUMP JUMPDEST PUSH3 0x278 JUMP JUMPDEST SWAP1 POP SWAP2 SWAP1 POP JUMP JUMPDEST PUSH1 0x0 DUP2 SWAP1 POP SWAP2 SWAP1 POP JUMP JUMPDEST PUSH3 0x2C9 DUP4 PUSH3 0x28C JUMP JUMPDEST PUSH3 0x2E1 PUSH3 0x2D8 DUP3 PUSH3 0x2B4 JUMP JUMPDEST DUP5 DUP5 SLOAD PUSH3 0x222 JUMP JUMPDEST DUP3 SSTORE POP POP POP POP JUMP JUMPDEST PUSH1 0x0 SWAP1 JUMP JUMPDEST PUSH3 0x2F8 PUSH3 0x2E9 JUMP JUMPDEST PUSH3 0x305 DUP2 DUP5 DUP5 PUSH3 0x2BE JUMP JUMPDEST POP POP POP JUMP JUMPDEST JUMPDEST DUP2 DUP2 LT ISZERO PUSH3 0x32D JUMPI PUSH3 0x321 PUSH1 0x0 DUP3 PUSH3 0x2EE JUMP JUMPDEST PUSH1 0x1 DUP2 ADD SWAP1 POP PUSH3 0x30B JUMP JUMPDEST POP POP JUMP JUMPDEST PUSH1 0x1F DUP3 GT ISZERO PUSH3 0x37C JUMPI PUSH3 0x346 DUP2 PUSH3 0x1F0 JUMP JUMPDEST PUSH3 0x351 DUP5 PUSH3 0x205 JUMP JUMPDEST DUP2 ADD PUSH1 0x20 DUP6 LT ISZERO PUSH3 0x361 JUMPI DUP2 SWAP1 POP JUMPDEST PUSH3 0x379 PUSH3 0x370 DUP6 PUSH3 0x205 JUMP JUMPDEST DUP4 ADD DUP3 PUSH3 0x30A JUMP JUMPDEST POP POP JUMPDEST POP POP POP JUMP JUMPDEST PUSH1 0x0 DUP3 DUP3 SHR SWAP1 POP SWAP3 SWAP2 POP POP JUMP JUMPDEST PUSH1 0x0 PUSH3 0x3A1 PUSH1 0x0 NOT DUP5 PUSH1 0x8 MUL PUSH3 0x381 JUMP JUMPDEST NOT DUP1 DUP4 AND SWAP2 POP POP SWAP3 SWAP2 POP POP JUMP JUMPDEST PUSH1 0x0 PUSH3 0x3BC DUP4 DUP4 PUSH3 0x38E JUMP JUMPDEST SWAP2 POP DUP3 PUSH1 0x2 MUL DUP3 OR SWAP1 POP SWAP3 SWAP2 POP POP JUMP JUMPDEST PUSH3 0x3D7 DUP3 PUSH3 0x152 JUMP JUMPDEST PUSH8 0xFFFFFFFFFFFFFFFF DUP2 GT ISZERO PUSH3 0x3F3 JUMPI PUSH3 0x3F2 PUSH3 0x15D JUMP JUMPDEST JUMPDEST PUSH3 0x3FF DUP3 SLOAD PUSH3 0x1BB JUMP JUMPDEST PUSH3 0x40C DUP3 DUP3 DUP6 PUSH3 0x331 JUMP JUMPDEST PUSH1 0x0 PUSH1 0x20 SWAP1 POP PUSH1 0x1F DUP4 GT PUSH1 0x1 DUP2 EQ PUSH3 0x444 JUMPI PUSH1 0x0 DUP5 ISZERO PUSH3 0x42F JUMPI DUP3 DUP8 ADD MLOAD SWAP1 POP JUMPDEST PUSH3 0x43B DUP6 DUP3 PUSH3 0x3AE JUMP JUMPDEST DUP7 SSTORE POP PUSH3 0x4AB JUMP JUMPDEST PUSH1 0x1F NOT DUP5 AND PUSH3 0x454 DUP7 PUSH3 0x1F0 JUMP JUMPDEST PUSH1 0x0 JUMPDEST DUP3 DUP2 LT ISZERO PUSH3 0x47E JUMPI DUP5 DUP10 ADD MLOAD DUP3 SSTORE PUSH1 0x1 DUP3 ADD SWAP2 POP PUSH1 0x20 DUP6 ADD SWAP5 POP PUSH1 0x20 DUP2 ADD SWAP1 POP PUSH3 0x457 JUMP JUMPDEST DUP7 DUP4 LT ISZERO PUSH3 0x49E JUMPI DUP5 DUP10 ADD MLOAD PUSH3 0x49A PUSH1 0x1F DUP10 AND DUP3 PUSH3 0x38E JUMP JUMPDEST DUP4 SSTORE POP JUMPDEST PUSH1 0x1 PUSH1 0x2 DUP9 MUL ADD DUP9 SSTORE POP POP POP JUMPDEST POP POP POP POP POP POP JUMP JUMPDEST PUSH2 0x9CD DUP1 PUSH3 0x4C3 PUSH1 0x0 CODECOPY PUSH1 0x0 RETURN INVALID PUSH1 0x80 PUSH1 0x40 MSTORE CALLVALUE DUP1 ISZERO PUSH2 0x10 JUMPI PUSH1 0x0 DUP1 REVERT JUMPDEST POP PUSH1 0x4 CALLDATASIZE LT PUSH2 0x36 JUMPI PUSH1 0x0 CALLDATALOAD PUSH1 0xE0 SHR DUP1 PUSH4 0x1E27F739 EQ PUSH2 0x3B JUMPI DUP1 PUSH4 0xE5C5E9A3 EQ PUSH2 0x6B JUMPI JUMPDEST PUSH1 0x0 DUP1 REVERT JUMPDEST PUSH2 0x55 PUSH1 0x4 DUP1 CALLDATASIZE SUB DUP2 ADD SWAP1 PUSH2 0x50 SWAP2 SWAP1 PUSH2 0x290 JUMP JUMPDEST PUSH2 0x9E JUMP JUMPDEST PUSH1 0x40 MLOAD PUSH2 0x62 SWAP2 SWAP1 PUSH2 0x3D0 JUMP JUMPDEST PUSH1 0x40 MLOAD DUP1 SWAP2 SUB SWAP1 RETURN JUMPDEST PUSH2 0x85 PUSH1 0x4 DUP1 CALLDATASIZE SUB DUP2 ADD SWAP1 PUSH2 0x80 SWAP2 SWAP1 PUSH2 0x448 JUMP JUMPDEST PUSH2 0xD6 JUMP JUMPDEST PUSH1 0x40 MLOAD PUSH2 0x95 SWAP5 SWAP4 SWAP3 SWAP2 SWAP1 PUSH2 0x5B3 JUMP JUMPDEST PUSH1 0x40 MLOAD DUP1 SWAP2 SUB SWAP1 RETURN JUMPDEST PUSH1 0x60 DUP7 DUP7 DUP7 DUP7 DUP7 DUP7 PUSH1 0x40 MLOAD PUSH1 0x20 ADD PUSH2 0xBB SWAP7 SWAP6 SWAP5 SWAP4 SWAP3 SWAP2 SWAP1 PUSH2 0x6AD JUMP JUMPDEST PUSH1 0x40 MLOAD PUSH1 0x20 DUP2 DUP4 SUB SUB DUP2 MSTORE SWAP1 PUSH1 0x40 MSTORE SWAP1 POP SWAP7 SWAP6 POP POP POP POP POP POP JUMP JUMPDEST PUSH1 0x0 DUP1 PUSH1 0x60 PUSH2 0xE3 PUSH2 0x10B JUMP JUMPDEST DUP6 DUP6 DUP2 ADD SWAP1 PUSH2 0xF2 SWAP2 SWAP1 PUSH2 0x914 JUMP JUMPDEST DUP1 SWAP5 POP DUP2 SWAP6 POP DUP3 SWAP7 POP DUP4 SWAP8 POP POP POP POP POP SWAP3 SWAP6 SWAP2 SWAP5 POP SWAP3 POP JUMP JUMPDEST PUSH1 0x40 MLOAD DUP1 PUSH1 0x40 ADD PUSH1 0x40 MSTORE DUP1 PUSH1 0x2 SWAP1 PUSH1 0x20 DUP3 MUL DUP1 CALLDATASIZE DUP4 CALLDATACOPY DUP1 DUP3 ADD SWAP2 POP POP SWAP1 POP POP SWAP1 JUMP JUMPDEST PUSH1 0x0 PUSH1 0x40 MLOAD SWAP1 POP SWAP1 JUMP JUMPDEST PUSH1 0x0 DUP1 REVERT JUMPDEST PUSH1 0x0 DUP1 REVERT JUMPDEST PUSH1 0x0 DUP2 SWAP1 POP SWAP2 SWAP1 POP JUMP JUMPDEST PUSH2 0x154 DUP2 PUSH2 0x141 JUMP JUMPDEST DUP2 EQ PUSH2 0x15F JUMPI PUSH1 0x0 DUP1 REVERT JUMPDEST POP JUMP JUMPDEST PUSH1 0x0 DUP2 CALLDATALOAD SWAP1 POP PUSH2 0x171 DUP2 PUSH2 0x14B JUMP JUMPDEST SWAP3 SWAP2 POP POP JUMP JUMPDEST PUSH1 0x0 PUSH20 0xFFFFFFFFFFFFFFFFFFFFFFFFFFFFFFFFFFFFFFFF DUP3 AND SWAP1 POP SWAP2 SWAP1 POP JUMP JUMPDEST PUSH1 0x0 PUSH2 0x1A2 DUP3 PUSH2 0x177 JUMP JUMPDEST SWAP1 POP SWAP2 SWAP1 POP JUMP JUMPDEST PUSH2 0x1B2 DUP2 PUSH2 0x197 JUMP JUMPDEST DUP2 EQ PUSH2 0x1BD JUMPI PUSH1 0x0 DUP1 REVERT JUMPDEST POP JUMP JUMPDEST PUSH1 0x0 DUP2 CALLDATALOAD SWAP1 POP PUSH2 0x1CF DUP2 PUSH2 0x1A9 JUMP JUMPDEST SWAP3 SWAP2 POP POP JUMP JUMPDEST PUSH1 0x0 DUP1 REVERT JUMPDEST PUSH1 0x0 DUP1 REVERT JUMPDEST PUSH1 0x0 DUP1 REVERT JUMPDEST PUSH1 0x0 DUP1 DUP4 PUSH1 0x1F DUP5 ADD SLT PUSH2 0x1FA JUMPI PUSH2 0x1F9 PUSH2 0x1D5 JUMP JUMPDEST JUMPDEST DUP3 CALLDATALOAD SWAP1 POP PUSH8 0xFFFFFFFFFFFFFFFF DUP2 GT ISZERO PUSH2 0x217 JUMPI PUSH2 0x216 PUSH2 0x1DA JUMP JUMPDEST JUMPDEST PUSH1 0x20 DUP4 ADD SWAP2 POP DUP4 PUSH1 0x1 DUP3 MUL DUP4 ADD GT ISZERO PUSH2 0x233 JUMPI PUSH2 0x232 PUSH2 0x1DF JUMP JUMPDEST JUMPDEST SWAP3 POP SWAP3 SWAP1 POP JUMP JUMPDEST PUSH1 0x0 DUP1 DUP4 PUSH1 0x1F DUP5 ADD SLT PUSH2 0x250 JUMPI PUSH2 0x24F PUSH2 0x1D5 JUMP JUMPDEST JUMPDEST DUP3 CALLDATALOAD SWAP1 POP PUSH8 0xFFFFFFFFFFFFFFFF DUP2 GT ISZERO PUSH2 0x26D JUMPI PUSH2 0x26C PUSH2 0x1DA JUMP JUMPDEST JUMPDEST PUSH1 0x20 DUP4 ADD SWAP2 POP DUP4 PUSH1 0x20 DUP3 MUL DUP4 ADD GT ISZERO PUSH2 0x289 JUMPI PUSH2 0x288 PUSH2 0x1DF JUMP JUMPDEST JUMPDEST SWAP3 POP SWAP3 SWAP1 POP JUMP JUMPDEST PUSH1 0x0 DUP1 PUSH1 0x0 DUP1 PUSH1 0x0 DUP1 PUSH1 0x80 DUP8 DUP10 SUB SLT ISZERO PUSH2 0x2AD JUMPI PUSH2 0x2AC PUSH2 0x137 JUMP JUMPDEST JUMPDEST PUSH1 0x0 PUSH2 0x2BB DUP10 DUP3 DUP11 ADD PUSH2 0x162 JUMP JUMPDEST SWAP7 POP POP PUSH1 0x20 PUSH2 0x2CC DUP10 DUP3 DUP11 ADD PUSH2 0x1C0 JUMP JUMPDEST SWAP6 POP POP PUSH1 0x40 DUP8 ADD CALLDATALOAD PUSH8 0xFFFFFFFFFFFFFFFF DUP2 GT ISZERO PUSH2 0x2ED JUMPI PUSH2 0x2EC PUSH2 0x13C JUMP JUMPDEST JUMPDEST PUSH2 0x2F9 DUP10 DUP3 DUP11 ADD PUSH2 0x1E4 JUMP JUMPDEST SWAP5 POP SWAP5 POP POP PUSH1 0x60 DUP8 ADD CALLDATALOAD PUSH8 0xFFFFFFFFFFFFFFFF DUP2 GT ISZERO PUSH2 0x31C JUMPI PUSH2 0x31B PUSH2 0x13C JUMP JUMPDEST JUMPDEST PUSH2 0x328 DUP10 DUP3 DUP11 ADD PUSH2 0x23A JUMP JUMPDEST SWAP3 POP SWAP3 POP POP SWAP3 SWAP6 POP SWAP3 SWAP6 POP SWAP3 SWAP6 JUMP JUMPDEST PUSH1 0x0 DUP2 MLOAD SWAP1 POP SWAP2 SWAP1 POP JUMP JUMPDEST PUSH1 0x0 DUP3 DUP3 MSTORE PUSH1 0x20 DUP3 ADD SWAP1 POP SWAP3 SWAP2 POP POP JUMP JUMPDEST PUSH1 0x0 JUMPDEST DUP4 DUP2 LT ISZERO PUSH2 0x371 JUMPI DUP1 DUP3 ADD MLOAD DUP2 DUP5 ADD MSTORE PUSH1 0x20 DUP2 ADD SWAP1 POP PUSH2 0x356 JUMP JUMPDEST DUP4 DUP2 GT ISZERO PUSH2 0x380 JUMPI PUSH1 0x0 DUP5 DUP5 ADD MSTORE JUMPDEST POP POP POP POP JUMP JUMPDEST PUSH1 0x0 PUSH1 0x1F NOT PUSH1 0x1F DUP4 ADD AND SWAP1 POP SWAP2 SWAP1 POP JUMP JUMPDEST PUSH1 0x0 PUSH2 0x3A2 DUP3 PUSH2 0x337 JUMP JUMPDEST PUSH2 0x3AC DUP2 DUP6 PUSH2 0x342 JUMP JUMPDEST SWAP4 POP PUSH2 0x3BC DUP2 DUP6 PUSH1 0x20 DUP7 ADD PUSH2 0x353 JUMP JUMPDEST PUSH2 0x3C5 DUP2 PUSH2 0x386 JUMP JUMPDEST DUP5 ADD SWAP2 POP POP SWAP3 SWAP2 POP POP JUMP JUMPDEST PUSH1 0x0 PUSH1 0x20 DUP3 ADD SWAP1 POP DUP2 DUP2 SUB PUSH1 0x0 DUP4 ADD MSTORE PUSH2 0x3EA DUP2 DUP5 PUSH2 0x397 JUMP JUMPDEST SWAP1 POP SWAP3 SWAP2 POP POP JUMP JUMPDEST PUSH1 0x0 DUP1 DUP4 PUSH1 0x1F DUP5 ADD SLT PUSH2 0x408 JUMPI PUSH2 0x407 PUSH2 0x1D5 JUMP JUMPDEST JUMPDEST DUP3 CALLDATALOAD SWAP1 POP PUSH8 0xFFFFFFFFFFFFFFFF DUP2 GT ISZERO PUSH2 0x425 JUMPI PUSH2 0x424 PUSH2 0x1DA JUMP JUMPDEST JUMPDEST PUSH1 0x20 DUP4 ADD SWAP2 POP DUP4 PUSH1 0x1 DUP3 MUL DUP4 ADD GT ISZERO PUSH2 0x441 JUMPI PUSH2 0x440 PUSH2 0x1DF JUMP JUMPDEST JUMPDEST SWAP3 POP SWAP3 SWAP1 POP JUMP JUMPDEST PUSH1 0x0 DUP1 PUSH1 0x20 DUP4 DUP6 SUB SLT ISZERO PUSH2 0x45F JUMPI PUSH2 0x45E PUSH2 0x137 JUMP JUMPDEST JUMPDEST PUSH1 0x0 DUP4 ADD CALLDATALOAD PUSH8 0xFFFFFFFFFFFFFFFF DUP2 GT ISZERO PUSH2 0x47D JUMPI PUSH2 0x47C PUSH2 0x13C JUMP JUMPDEST JUMPDEST PUSH2 0x489 DUP6 DUP3 DUP7 ADD PUSH2 0x3F2 JUMP JUMPDEST SWAP3 POP SWAP3 POP POP SWAP3 POP SWAP3 SWAP1 POP JUMP JUMPDEST PUSH2 0x49E DUP2 PUSH2 0x141 JUMP JUMPDEST DUP3 MSTORE POP POP JUMP JUMPDEST PUSH2 0x4AD DUP2 PUSH2 0x197 JUMP JUMPDEST DUP3 MSTORE POP POP JUMP JUMPDEST PUSH1 0x0 DUP2 MLOAD SWAP1 POP SWAP2 SWAP1 POP JUMP JUMPDEST PUSH1 0x0 DUP3 DUP3 MSTORE PUSH1 0x20 DUP3 ADD SWAP1 POP SWAP3 SWAP2 POP POP JUMP JUMPDEST PUSH1 0x0 PUSH2 0x4DA DUP3 PUSH2 0x4B3 JUMP JUMPDEST PUSH2 0x4E4 DUP2 DUP6 PUSH2 0x4BE JUMP JUMPDEST SWAP4 POP PUSH2 0x4F4 DUP2 DUP6 PUSH1 0x20 DUP7 ADD PUSH2 0x353 JUMP JUMPDEST PUSH2 0x4FD DUP2 PUSH2 0x386 JUMP JUMPDEST DUP5 ADD SWAP2 POP POP SWAP3 SWAP2 POP POP JUMP JUMPDEST PUSH1 0x0 PUSH1 0x2 SWAP1 POP SWAP2 SWAP1 POP JUMP JUMPDEST PUSH1 0x0 DUP2 SWAP1 POP SWAP3 SWAP2 POP POP JUMP JUMPDEST PUSH1 0x0 DUP2 SWAP1 POP SWAP2 SWAP1 POP JUMP JUMPDEST PUSH2 0x531 DUP2 PUSH2 0x141 JUMP JUMPDEST DUP3 MSTORE POP POP JUMP JUMPDEST PUSH1 0x0 PUSH2 0x543 DUP4 DUP4 PUSH2 0x528 JUMP JUMPDEST PUSH1 0x20 DUP4 ADD SWAP1 POP SWAP3 SWAP2 POP POP JUMP JUMPDEST PUSH1 0x0 PUSH1 0x20 DUP3 ADD SWAP1 POP SWAP2 SWAP1 POP JUMP JUMPDEST PUSH2 0x565 DUP2 PUSH2 0x508 JUMP JUMPDEST PUSH2 0x56F DUP2 DUP5 PUSH2 0x513 JUMP JUMPDEST SWAP3 POP PUSH2 0x57A DUP3 PUSH2 0x51E JUMP JUMPDEST DUP1 PUSH1 0x0 JUMPDEST DUP4 DUP2 LT ISZERO PUSH2 0x5AB JUMPI DUP2 MLOAD PUSH2 0x592 DUP8 DUP3 PUSH2 0x537 JUMP JUMPDEST SWAP7 POP PUSH2 0x59D DUP4 PUSH2 0x54F JUMP JUMPDEST SWAP3 POP POP PUSH1 0x1 DUP2 ADD SWAP1 POP PUSH2 0x57E JUMP JUMPDEST POP POP POP POP POP POP JUMP JUMPDEST PUSH1 0x0 PUSH1 0xA0 DUP3 ADD SWAP1 POP PUSH2 0x5C8 PUSH1 0x0 DUP4 ADD DUP8 PUSH2 0x495 JUMP JUMPDEST PUSH2 0x5D5 PUSH1 0x20 DUP4 ADD DUP7 PUSH2 0x4A4 JUMP JUMPDEST DUP2 DUP2 SUB PUSH1 0x40 DUP4 ADD MSTORE PUSH2 0x5E7 DUP2 DUP6 PUSH2 0x4CF JUMP JUMPDEST SWAP1 POP PUSH2 0x5F6 PUSH1 0x60 DUP4 ADD DUP5 PUSH2 0x55C JUMP JUMPDEST SWAP6 SWAP5 POP POP POP POP POP JUMP JUMPDEST DUP3 DUP2 DUP4 CALLDATACOPY PUSH1 0x0 DUP4 DUP4 ADD MSTORE POP POP POP JUMP JUMPDEST PUSH1 0x0 PUSH2 0x61A DUP4 DUP6 PUSH2 0x4BE JUMP JUMPDEST SWAP4 POP PUSH2 0x627 DUP4 DUP6 DUP5 PUSH2 0x5FF JUMP JUMPDEST PUSH2 0x630 DUP4 PUSH2 0x386 JUMP JUMPDEST DUP5 ADD SWAP1 POP SWAP4 SWAP3 POP POP POP JUMP JUMPDEST PUSH1 0x0 DUP3 DUP3 MSTORE PUSH1 0x20 DUP3 ADD SWAP1 POP SWAP3 SWAP2 POP POP JUMP JUMPDEST PUSH1 0x0 DUP1 REVERT JUMPDEST PUSH1 0x0 PUSH2 0x65D DUP4 DUP6 PUSH2 0x63B JUMP JUMPDEST SWAP4 POP PUSH32 0x7FFFFFFFFFFFFFFFFFFFFFFFFFFFFFFFFFFFFFFFFFFFFFFFFFFFFFFFFFFFFFF DUP4 GT ISZERO PUSH2 0x690 JUMPI PUSH2 0x68F PUSH2 0x64C JUMP JUMPDEST JUMPDEST PUSH1 0x20 DUP4 MUL SWAP3 POP PUSH2 0x6A1 DUP4 DUP6 DUP5 PUSH2 0x5FF JUMP JUMPDEST DUP3 DUP5 ADD SWAP1 POP SWAP4 SWAP3 POP POP POP JUMP JUMPDEST PUSH1 0x0 PUSH1 0x80 DUP3 ADD SWAP1 POP PUSH2 0x6C2 PUSH1 0x0 DUP4 ADD DUP10 PUSH2 0x495 JUMP JUMPDEST PUSH2 0x6CF PUSH1 0x20 DUP4 ADD DUP9 PUSH2 0x4A4 JUMP JUMPDEST DUP2 DUP2 SUB PUSH1 0x40 DUP4 ADD MSTORE PUSH2 0x6E2 DUP2 DUP7 DUP9 PUSH2 0x60E JUMP JUMPDEST SWAP1 POP DUP2 DUP2 SUB PUSH1 0x60 DUP4 ADD MSTORE PUSH2 0x6F7 DUP2 DUP5 DUP7 PUSH2 0x651 JUMP JUMPDEST SWAP1 POP SWAP8 SWAP7 POP POP POP POP POP POP POP JUMP JUMPDEST PUSH1 0x0 PUSH2 0x70F DUP3 PUSH2 0x177 JUMP JUMPDEST SWAP1 POP SWAP2 SWAP1 POP JUMP JUMPDEST PUSH2 0x71F DUP2 PUSH2 0x704 JUMP JUMPDEST DUP2 EQ PUSH2 0x72A JUMPI PUSH1 0x0 DUP1 REVERT JUMPDEST POP JUMP JUMPDEST PUSH1 0x0 DUP2 CALLDATALOAD SWAP1 POP PUSH2 0x73C DUP2 PUSH2 0x716 JUMP JUMPDEST SWAP3 SWAP2 POP POP JUMP JUMPDEST PUSH1 0x0 DUP1 REVERT JUMPDEST PUSH32 0x4E487B7100000000000000000000000000000000000000000000000000000000 PUSH1 0x0 MSTORE PUSH1 0x41 PUSH1 0x4 MSTORE PUSH1 0x24 PUSH1 0x0 REVERT JUMPDEST PUSH2 0x77F DUP3 PUSH2 0x386 JUMP JUMPDEST DUP2 ADD DUP2 DUP2 LT PUSH8 0xFFFFFFFFFFFFFFFF DUP3 GT OR ISZERO PUSH2 0x79E JUMPI PUSH2 0x79D PUSH2 0x747 JUMP JUMPDEST JUMPDEST DUP1 PUSH1 0x40 MSTORE POP POP POP JUMP JUMPDEST PUSH1 0x0 PUSH2 0x7B1 PUSH2 0x12D JUMP JUMPDEST SWAP1 POP PUSH2 0x7BD DUP3 DUP3 PUSH2 0x776 JUMP JUMPDEST SWAP2 SWAP1 POP JUMP JUMPDEST PUSH1 0x0 PUSH8 0xFFFFFFFFFFFFFFFF DUP3 GT ISZERO PUSH2 0x7DD JUMPI PUSH2 0x7DC PUSH2 0x747 JUMP JUMPDEST JUMPDEST PUSH2 0x7E6 DUP3 PUSH2 0x386 JUMP JUMPDEST SWAP1 POP PUSH1 0x20 DUP2 ADD SWAP1 POP SWAP2 SWAP1 POP JUMP JUMPDEST PUSH1 0x0 PUSH2 0x806 PUSH2 0x801 DUP5 PUSH2 0x7C2 JUMP JUMPDEST PUSH2 0x7A7 JUMP JUMPDEST SWAP1 POP DUP3 DUP2 MSTORE PUSH1 0x20 DUP2 ADD DUP5 DUP5 DUP5 ADD GT ISZERO PUSH2 0x822 JUMPI PUSH2 0x821 PUSH2 0x742 JUMP JUMPDEST JUMPDEST PUSH2 0x82D DUP5 DUP3 DUP6 PUSH2 0x5FF JUMP JUMPDEST POP SWAP4 SWAP3 POP POP POP JUMP JUMPDEST PUSH1 0x0 DUP3 PUSH1 0x1F DUP4 ADD SLT PUSH2 0x84A JUMPI PUSH2 0x849 PUSH2 0x1D5 JUMP JUMPDEST JUMPDEST DUP2 CALLDATALOAD PUSH2 0x85A DUP5 DUP3 PUSH1 0x20 DUP7 ADD PUSH2 0x7F3 JUMP JUMPDEST SWAP2 POP POP SWAP3 SWAP2 POP POP JUMP JUMPDEST PUSH1 0x0 PUSH8 0xFFFFFFFFFFFFFFFF DUP3 GT ISZERO PUSH2 0x87E JUMPI PUSH2 0x87D PUSH2 0x747 JUMP JUMPDEST JUMPDEST PUSH1 0x20 DUP3 MUL SWAP1 POP SWAP2 SWAP1 POP JUMP JUMPDEST PUSH1 0x0 PUSH2 0x89C PUSH2 0x897 DUP5 PUSH2 0x863 JUMP JUMPDEST PUSH2 0x7A7 JUMP JUMPDEST SWAP1 POP DUP1 PUSH1 0x20 DUP5 MUL DUP4 ADD DUP6 DUP2 GT ISZERO PUSH2 0x8B6 JUMPI PUSH2 0x8B5 PUSH2 0x1DF JUMP JUMPDEST JUMPDEST DUP4 JUMPDEST DUP2 DUP2 LT ISZERO PUSH2 0x8DF JUMPI DUP1 PUSH2 0x8CB DUP9 DUP3 PUSH2 0x162 JUMP JUMPDEST DUP5 MSTORE PUSH1 0x20 DUP5 ADD SWAP4 POP POP PUSH1 0x20 DUP2 ADD SWAP1 POP PUSH2 0x8B8 JUMP JUMPDEST POP POP POP SWAP4 SWAP3 POP POP POP JUMP JUMPDEST PUSH1 0x0 DUP3 PUSH1 0x1F DUP4 ADD SLT PUSH2 0x8FE JUMPI PUSH2 0x8FD PUSH2 0x1D5 JUMP JUMPDEST JUMPDEST PUSH1 0x2 PUSH2 0x90B DUP5 DUP3 DUP6 PUSH2 0x889 JUMP JUMPDEST SWAP2 POP POP SWAP3 SWAP2 POP POP JUMP JUMPDEST PUSH1 0x0 DUP1 PUSH1 0x0 DUP1 PUSH1 0xA0 DUP6 DUP8 SUB SLT ISZERO PUSH2 0x92E JUMPI PUSH2 0x92D PUSH2 0x137 JUMP JUMPDEST JUMPDEST PUSH1 0x0 PUSH2 0x93C DUP8 DUP3 DUP9 ADD PUSH2 0x162 JUMP JUMPDEST SWAP5 POP POP PUSH1 0x20 PUSH2 0x94D DUP8 DUP3 DUP9 ADD PUSH2 0x72D JUMP JUMPDEST SWAP4 POP POP PUSH1 0x40 DUP6 ADD CALLDATALOAD PUSH8 0xFFFFFFFFFFFFFFFF DUP2 GT ISZERO PUSH2 0x96E JUMPI PUSH2 0x96D PUSH2 0x13C JUMP JUMPDEST JUMPDEST PUSH2 0x97A DUP8 DUP3 DUP9 ADD PUSH2 0x835 JUMP JUMPDEST SWAP3 POP POP PUSH1 0x60 PUSH2 0x98B DUP8 DUP3 DUP9 ADD PUSH2 0x8E9 JUMP JUMPDEST SWAP2 POP POP SWAP3 SWAP6 SWAP2 SWAP5 POP SWAP3 POP JUMP INVALID LOG2 PUSH5 0x6970667358 0x22 SLT KECCAK256 BALANCE NUMBER 0xDF 0xE8 0x26 PUSH19 0x79318FFF3812F10E84F1B86881DAE640876801 0x4C 0xED 0xCF 0xB0 0x49 JUMP 0xB3 PUSH5 0x736F6C6343 STOP ADDMOD 0xF STOP CALLER "
		},
		"gasEstimates": {
			"creation": {
				"codeDepositCost": "501800",
				"executionCost": "infinite",
				"totalCost": "infinite"
			},
			"external": {
				"decode(bytes)": "infinite",
				"encode(uint256,address,string,uint256[])": "infinite"
			}
		},
		"methodIdentifiers": {
			"decode(bytes)": "e5c5e9a3",
			"encode(uint256,address,string,uint256[])": "1e27f739"
		}
	},
	"abi": [
		{
			"inputs": [
				{
					"internalType": "bytes",
					"name": "_data",
					"type": "bytes"
				}
			],
			"name": "decode",
			"outputs": [
				{
					"internalType": "uint256",
					"name": "_x",
					"type": "uint256"
				},
				{
					"internalType": "address",
					"name": "_addr",
					"type": "address"
				},
				{
					"internalType": "string",
					"name": "_name",
					"type": "string"
				},
				{
					"internalType": "uint256[2]",
					"name": "_array",
					"type": "uint256[2]"
				}
			],
			"stateMutability": "pure",
			"type": "function"
		},
		{
			"inputs": [
				{
					"internalType": "uint256",
					"name": "_x",
					"type": "uint256"
				},
				{
					"internalType": "address",
					"name": "_addr",
					"type": "address"
				},
				{
					"internalType": "string",
					"name": "_name",
					"type": "string"
				},
				{
					"internalType": "uint256[]",
					"name": "_array",
					"type": "uint256[]"
				}
			],
			"name": "encode",
			"outputs": [
				{
					"internalType": "bytes",
					"name": "",
					"type": "bytes"
				}
			],
			"stateMutability": "pure",
			"type": "function"
		}
	]
}