{
	"data": {
		"bytecode": {
			"linkReferences": {},
			"object": "60806040527f60298f78cc0b47170ba79c10aa3851d7648bd96f2f8e46a19dbc777c36fb0c0060001b60005534801561003757600080fd5b50610279806100476000396000f3fe608060405234801561001057600080fd5b50600436106100365760003560e01c80634eee59b31461003b57806385bb7d691461006b575b600080fd5b61005560048036038101906100509190610134565b610089565b604051610062919061019c565b60405180910390f35b6100736100bf565b60405161008091906101d0565b60405180910390f35b6000805483836040516020016100a092919061022a565b6040516020818303038152906040528051906020012014905092915050565b60005481565b600080fd5b600080fd5b600080fd5b600080fd5b600080fd5b60008083601f8401126100f4576100f36100cf565b5b8235905067ffffffffffffffff811115610111576101106100d4565b5b60208301915083600182028301111561012d5761012c6100d9565b5b9250929050565b6000806020838503121561014b5761014a6100c5565b5b600083013567ffffffffffffffff811115610169576101686100ca565b5b610175858286016100de565b92509250509250929050565b60008115159050919050565b61019681610181565b82525050565b60006020820190506101b1600083018461018d565b92915050565b6000819050919050565b6101ca816101b7565b82525050565b60006020820190506101e560008301846101c1565b92915050565b600081905092915050565b82818337600083830152505050565b600061021183856101eb565b935061021e8385846101f6565b82840190509392505050565b6000610237828486610205565b9150819050939250505056fea26469706673582212207996fcb669cb256b105764ab628c94eeb9c91c0074cb09c7587a2f9800b550b664736f6c634300080f0033",
			"opcodes": "PUSH1 0x80 PUSH1 0x40 MSTORE PUSH32 0x60298F78CC0B47170BA79C10AA3851D7648BD96F2F8E46A19DBC777C36FB0C00 PUSH1 0x0 SHL PUSH1 0x0 SSTORE CALLVALUE DUP1 ISZERO PUSH2 0x37 JUMPI PUSH1 0x0 DUP1 REVERT JUMPDEST POP PUSH2 0x279 DUP1 PUSH2 0x47 PUSH1 0x0 CODECOPY PUSH1 0x0 RETURN INVALID PUSH1 0x80 PUSH1 0x40 MSTORE CALLVALUE DUP1 ISZERO PUSH2 0x10 JUMPI PUSH1 0x0 DUP1 REVERT JUMPDEST POP PUSH1 0x4 CALLDATASIZE LT PUSH2 0x36 JUMPI PUSH1 0x0 CALLDATALOAD PUSH1 0xE0 SHR DUP1 PUSH4 0x4EEE59B3 EQ PUSH2 0x3B JUMPI DUP1 PUSH4 0x85BB7D69 EQ PUSH2 0x6B JUMPI JUMPDEST PUSH1 0x0 DUP1 REVERT JUMPDEST PUSH2 0x55 PUSH1 0x4 DUP1 CALLDATASIZE SUB DUP2 ADD SWAP1 PUSH2 0x50 SWAP2 SWAP1 PUSH2 0x134 JUMP JUMPDEST PUSH2 0x89 JUMP JUMPDEST PUSH1 0x40 MLOAD PUSH2 0x62 SWAP2 SWAP1 PUSH2 0x19C JUMP JUMPDEST PUSH1 0x40 MLOAD DUP1 SWAP2 SUB SWAP1 RETURN JUMPDEST PUSH2 0x73 PUSH2 0xBF JUMP JUMPDEST PUSH1 0x40 MLOAD PUSH2 0x80 SWAP2 SWAP1 PUSH2 0x1D0 JUMP JUMPDEST PUSH1 0x40 MLOAD DUP1 SWAP2 SUB SWAP1 RETURN JUMPDEST PUSH1 0x0 DUP1 SLOAD DUP4 DUP4 PUSH1 0x40 MLOAD PUSH1 0x20 ADD PUSH2 0xA0 SWAP3 SWAP2 SWAP1 PUSH2 0x22A JUMP JUMPDEST PUSH1 0x40 MLOAD PUSH1 0x20 DUP2 DUP4 SUB SUB DUP2 MSTORE SWAP1 PUSH1 0x40 MSTORE DUP1 MLOAD SWAP1 PUSH1 0x20 ADD KECCAK256 EQ SWAP1 POP SWAP3 SWAP2 POP POP JUMP JUMPDEST PUSH1 0x0 SLOAD DUP2 JUMP JUMPDEST PUSH1 0x0 DUP1 REVERT JUMPDEST PUSH1 0x0 DUP1 REVERT JUMPDEST PUSH1 0x0 DUP1 REVERT JUMPDEST PUSH1 0x0 DUP1 REVERT JUMPDEST PUSH1 0x0 DUP1 REVERT JUMPDEST PUSH1 0x0 DUP1 DUP4 PUSH1 0x1F DUP5 ADD SLT PUSH2 0xF4 JUMPI PUSH2 0xF3 PUSH2 0xCF JUMP JUMPDEST JUMPDEST DUP3 CALLDATALOAD SWAP1 POP PUSH8 0xFFFFFFFFFFFFFFFF DUP2 GT ISZERO PUSH2 0x111 JUMPI PUSH2 0x110 PUSH2 0xD4 JUMP JUMPDEST JUMPDEST PUSH1 0x20 DUP4 ADD SWAP2 POP DUP4 PUSH1 0x1 DUP3 MUL DUP4 ADD GT ISZERO PUSH2 0x12D JUMPI PUSH2 0x12C PUSH2 0xD9 JUMP JUMPDEST JUMPDEST SWAP3 POP SWAP3 SWAP1 POP JUMP JUMPDEST PUSH1 0x0 DUP1 PUSH1 0x20 DUP4 DUP6 SUB SLT ISZERO PUSH2 0x14B JUMPI PUSH2 0x14A PUSH2 0xC5 JUMP JUMPDEST JUMPDEST PUSH1 0x0 DUP4 ADD CALLDATALOAD PUSH8 0xFFFFFFFFFFFFFFFF DUP2 GT ISZERO PUSH2 0x169 JUMPI PUSH2 0x168 PUSH2 0xCA JUMP JUMPDEST JUMPDEST PUSH2 0x175 DUP6 DUP3 DUP7 ADD PUSH2 0xDE JUMP JUMPDEST SWAP3 POP SWAP3 POP POP SWAP3 POP SWAP3 SWAP1 POP JUMP JUMPDEST PUSH1 0x0 DUP2 ISZERO ISZERO SWAP1 POP SWAP2 SWAP1 POP JUMP JUMPDEST PUSH2 0x196 DUP2 PUSH2 0x181 JUMP JUMPDEST DUP3 MSTORE POP POP JUMP JUMPDEST PUSH1 0x0 PUSH1 0x20 DUP3 ADD SWAP1 POP PUSH2 0x1B1 PUSH1 0x0 DUP4 ADD DUP5 PUSH2 0x18D JUMP JUMPDEST SWAP3 SWAP2 POP POP JUMP JUMPDEST PUSH1 0x0 DUP2 SWAP1 POP SWAP2 SWAP1 POP JUMP JUMPDEST PUSH2 0x1CA DUP2 PUSH2 0x1B7 JUMP JUMPDEST DUP3 MSTORE POP POP JUMP JUMPDEST PUSH1 0x0 PUSH1 0x20 DUP3 ADD SWAP1 POP PUSH2 0x1E5 PUSH1 0x0 DUP4 ADD DUP5 PUSH2 0x1C1 JUMP JUMPDEST SWAP3 SWAP2 POP POP JUMP JUMPDEST PUSH1 0x0 DUP2 SWAP1 POP SWAP3 SWAP2 POP POP JUMP JUMPDEST DUP3 DUP2 DUP4 CALLDATACOPY PUSH1 0x0 DUP4 DUP4 ADD MSTORE POP POP POP JUMP JUMPDEST PUSH1 0x0 PUSH2 0x211 DUP4 DUP6 PUSH2 0x1EB JUMP JUMPDEST SWAP4 POP PUSH2 0x21E DUP4 DUP6 DUP5 PUSH2 0x1F6 JUMP JUMPDEST DUP3 DUP5 ADD SWAP1 POP SWAP4 SWAP3 POP POP POP JUMP JUMPDEST PUSH1 0x0 PUSH2 0x237 DUP3 DUP5 DUP7 PUSH2 0x205 JUMP JUMPDEST SWAP2 POP DUP2 SWAP1 POP SWAP4 SWAP3 POP POP POP JUMP INVALID LOG2 PUSH5 0x6970667358 0x22 SLT KECCAK256 PUSH26 0x96FCB669CB256B105764AB628C94EEB9C91C0074CB09C7587A2F SWAP9 STOP 0xB5 POP 0xB6 PUSH5 0x736F6C6343 STOP ADDMOD 0xF STOP CALLER "
		},
		"gasEstimates": {
			"creation": {
				"codeDepositCost": "126600",
				"executionCost": "22283",
				"totalCost": "148883"
			},
			"external": {
				"answer()": "2429",
				"guess(string)": "infinite"
			}
		},
		"methodIdentifiers": {
			"answer()": "85bb7d69",
			"guess(string)": "4eee59b3"
		}
	},
	"abi": [
		{
			"inputs": [],
			"name": "answer",
			"outputs": [
				{
					"internalType": "bytes32",
					"name": "",
					"type": "bytes32"
				}
			],
			"stateMutability": "view",
			"type": "function"
		},
		{
			"inputs": [
				{
					"internalType": "string",
					"name": "_text",
					"type": "string"
				}
			],
			"name": "guess",
			"outputs": [
				{
					"internalType": "bool",
					"name": "",
					"type": "bool"
				}
			],
			"stateMutability": "view",
			"type": "function"
		}
	]
}