{
	"data": {
		"bytecode": {
			"linkReferences": {},
			"object": "608060405234801561001057600080fd5b506105d9806100206000396000f3fe608060405234801561001057600080fd5b50600436106100365760003560e01c806371e5ee5f1461003b578063f8a8fd6d1461006b575b600080fd5b61005560048036038101906100509190610341565b610075565b604051610062919061037d565b60405180910390f35b610073610099565b005b6000818154811061008557600080fd5b906000526020600020016000915090505481565b604051806101000160405280600160ff168152602001600260ff168152602001600360ff168152602001600460ff168152602001600560ff168152602001600660ff168152602001600760ff168152602001600860ff168152506000906008610103929190610297565b5061010e60056101a5565b60076000805490501461012457610123610398565b5b6007600060058154811061013b5761013a6103c7565b5b90600052602060002001541461015457610153610398565b5b61015e60006101a5565b60066000805490501461017457610173610398565b5b60026000808154811061018a576101896103c7565b5b9060005260206000200154146101a3576101a2610398565b5b565b60008054905081106101ec576040517f08c379a00000000000000000000000000000000000000000000000000000000081526004016101e390610453565b60405180910390fd5b60008190505b600160008054905061020491906104a2565b81101561026b57600060018261021a91906104d6565b8154811061022b5761022a6103c7565b5b90600052602060002001546000828154811061024a576102496103c7565b5b906000526020600020018190555080806102639061052c565b9150506101f2565b50600080548061027e5761027d610574565b5b6001900381819060005260206000200160009055905550565b8280548282559060005260206000209081019282156102d8579160200282015b828111156102d7578251829060ff169055916020019190600101906102b7565b5b5090506102e591906102e9565b5090565b5b808211156103025760008160009055506001016102ea565b5090565b600080fd5b6000819050919050565b61031e8161030b565b811461032957600080fd5b50565b60008135905061033b81610315565b92915050565b60006020828403121561035757610356610306565b5b60006103658482850161032c565b91505092915050565b6103778161030b565b82525050565b6000602082019050610392600083018461036e565b92915050565b7f4e487b7100000000000000000000000000000000000000000000000000000000600052600160045260246000fd5b7f4e487b7100000000000000000000000000000000000000000000000000000000600052603260045260246000fd5b600082825260208201905092915050565b7f74686520696e64657820697320746f6f206269672e0000000000000000000000600082015250565b600061043d6015836103f6565b915061044882610407565b602082019050919050565b6000602082019050818103600083015261046c81610430565b9050919050565b7f4e487b7100000000000000000000000000000000000000000000000000000000600052601160045260246000fd5b60006104ad8261030b565b91506104b88361030b565b9250828210156104cb576104ca610473565b5b828203905092915050565b60006104e18261030b565b91506104ec8361030b565b9250827fffffffffffffffffffffffffffffffffffffffffffffffffffffffffffffffff0382111561052157610520610473565b5b828201905092915050565b60006105378261030b565b91507fffffffffffffffffffffffffffffffffffffffffffffffffffffffffffffffff820361056957610568610473565b5b600182019050919050565b7f4e487b7100000000000000000000000000000000000000000000000000000000600052603160045260246000fdfea2646970667358221220c50ab926864a82864c0f9887384413ffa6397f243658921db90b0a7bfb72a7bc64736f6c634300080f0033",
			"opcodes": "PUSH1 0x80 PUSH1 0x40 MSTORE CALLVALUE DUP1 ISZERO PUSH2 0x10 JUMPI PUSH1 0x0 DUP1 REVERT JUMPDEST POP PUSH2 0x5D9 DUP1 PUSH2 0x20 PUSH1 0x0 CODECOPY PUSH1 0x0 RETURN INVALID PUSH1 0x80 PUSH1 0x40 MSTORE CALLVALUE DUP1 ISZERO PUSH2 0x10 JUMPI PUSH1 0x0 DUP1 REVERT JUMPDEST POP PUSH1 0x4 CALLDATASIZE LT PUSH2 0x36 JUMPI PUSH1 0x0 CALLDATALOAD PUSH1 0xE0 SHR DUP1 PUSH4 0x71E5EE5F EQ PUSH2 0x3B JUMPI DUP1 PUSH4 0xF8A8FD6D EQ PUSH2 0x6B JUMPI JUMPDEST PUSH1 0x0 DUP1 REVERT JUMPDEST PUSH2 0x55 PUSH1 0x4 DUP1 CALLDATASIZE SUB DUP2 ADD SWAP1 PUSH2 0x50 SWAP2 SWAP1 PUSH2 0x341 JUMP JUMPDEST PUSH2 0x75 JUMP JUMPDEST PUSH1 0x40 MLOAD PUSH2 0x62 SWAP2 SWAP1 PUSH2 0x37D JUMP JUMPDEST PUSH1 0x40 MLOAD DUP1 SWAP2 SUB SWAP1 RETURN JUMPDEST PUSH2 0x73 PUSH2 0x99 JUMP JUMPDEST STOP JUMPDEST PUSH1 0x0 DUP2 DUP2 SLOAD DUP2 LT PUSH2 0x85 JUMPI PUSH1 0x0 DUP1 REVERT JUMPDEST SWAP1 PUSH1 0x0 MSTORE PUSH1 0x20 PUSH1 0x0 KECCAK256 ADD PUSH1 0x0 SWAP2 POP SWAP1 POP SLOAD DUP2 JUMP JUMPDEST PUSH1 0x40 MLOAD DUP1 PUSH2 0x100 ADD PUSH1 0x40 MSTORE DUP1 PUSH1 0x1 PUSH1 0xFF AND DUP2 MSTORE PUSH1 0x20 ADD PUSH1 0x2 PUSH1 0xFF AND DUP2 MSTORE PUSH1 0x20 ADD PUSH1 0x3 PUSH1 0xFF AND DUP2 MSTORE PUSH1 0x20 ADD PUSH1 0x4 PUSH1 0xFF AND DUP2 MSTORE PUSH1 0x20 ADD PUSH1 0x5 PUSH1 0xFF AND DUP2 MSTORE PUSH1 0x20 ADD PUSH1 0x6 PUSH1 0xFF AND DUP2 MSTORE PUSH1 0x20 ADD PUSH1 0x7 PUSH1 0xFF AND DUP2 MSTORE PUSH1 0x20 ADD PUSH1 0x8 PUSH1 0xFF AND DUP2 MSTORE POP PUSH1 0x0 SWAP1 PUSH1 0x8 PUSH2 0x103 SWAP3 SWAP2 SWAP1 PUSH2 0x297 JUMP JUMPDEST POP PUSH2 0x10E PUSH1 0x5 PUSH2 0x1A5 JUMP JUMPDEST PUSH1 0x7 PUSH1 0x0 DUP1 SLOAD SWAP1 POP EQ PUSH2 0x124 JUMPI PUSH2 0x123 PUSH2 0x398 JUMP JUMPDEST JUMPDEST PUSH1 0x7 PUSH1 0x0 PUSH1 0x5 DUP2 SLOAD DUP2 LT PUSH2 0x13B JUMPI PUSH2 0x13A PUSH2 0x3C7 JUMP JUMPDEST JUMPDEST SWAP1 PUSH1 0x0 MSTORE PUSH1 0x20 PUSH1 0x0 KECCAK256 ADD SLOAD EQ PUSH2 0x154 JUMPI PUSH2 0x153 PUSH2 0x398 JUMP JUMPDEST JUMPDEST PUSH2 0x15E PUSH1 0x0 PUSH2 0x1A5 JUMP JUMPDEST PUSH1 0x6 PUSH1 0x0 DUP1 SLOAD SWAP1 POP EQ PUSH2 0x174 JUMPI PUSH2 0x173 PUSH2 0x398 JUMP JUMPDEST JUMPDEST PUSH1 0x2 PUSH1 0x0 DUP1 DUP2 SLOAD DUP2 LT PUSH2 0x18A JUMPI PUSH2 0x189 PUSH2 0x3C7 JUMP JUMPDEST JUMPDEST SWAP1 PUSH1 0x0 MSTORE PUSH1 0x20 PUSH1 0x0 KECCAK256 ADD SLOAD EQ PUSH2 0x1A3 JUMPI PUSH2 0x1A2 PUSH2 0x398 JUMP JUMPDEST JUMPDEST JUMP JUMPDEST PUSH1 0x0 DUP1 SLOAD SWAP1 POP DUP2 LT PUSH2 0x1EC JUMPI PUSH1 0x40 MLOAD PUSH32 0x8C379A000000000000000000000000000000000000000000000000000000000 DUP2 MSTORE PUSH1 0x4 ADD PUSH2 0x1E3 SWAP1 PUSH2 0x453 JUMP JUMPDEST PUSH1 0x40 MLOAD DUP1 SWAP2 SUB SWAP1 REVERT JUMPDEST PUSH1 0x0 DUP2 SWAP1 POP JUMPDEST PUSH1 0x1 PUSH1 0x0 DUP1 SLOAD SWAP1 POP PUSH2 0x204 SWAP2 SWAP1 PUSH2 0x4A2 JUMP JUMPDEST DUP2 LT ISZERO PUSH2 0x26B JUMPI PUSH1 0x0 PUSH1 0x1 DUP3 PUSH2 0x21A SWAP2 SWAP1 PUSH2 0x4D6 JUMP JUMPDEST DUP2 SLOAD DUP2 LT PUSH2 0x22B JUMPI PUSH2 0x22A PUSH2 0x3C7 JUMP JUMPDEST JUMPDEST SWAP1 PUSH1 0x0 MSTORE PUSH1 0x20 PUSH1 0x0 KECCAK256 ADD SLOAD PUSH1 0x0 DUP3 DUP2 SLOAD DUP2 LT PUSH2 0x24A JUMPI PUSH2 0x249 PUSH2 0x3C7 JUMP JUMPDEST JUMPDEST SWAP1 PUSH1 0x0 MSTORE PUSH1 0x20 PUSH1 0x0 KECCAK256 ADD DUP2 SWAP1 SSTORE POP DUP1 DUP1 PUSH2 0x263 SWAP1 PUSH2 0x52C JUMP JUMPDEST SWAP2 POP POP PUSH2 0x1F2 JUMP JUMPDEST POP PUSH1 0x0 DUP1 SLOAD DUP1 PUSH2 0x27E JUMPI PUSH2 0x27D PUSH2 0x574 JUMP JUMPDEST JUMPDEST PUSH1 0x1 SWAP1 SUB DUP2 DUP2 SWAP1 PUSH1 0x0 MSTORE PUSH1 0x20 PUSH1 0x0 KECCAK256 ADD PUSH1 0x0 SWAP1 SSTORE SWAP1 SSTORE POP JUMP JUMPDEST DUP3 DUP1 SLOAD DUP3 DUP3 SSTORE SWAP1 PUSH1 0x0 MSTORE PUSH1 0x20 PUSH1 0x0 KECCAK256 SWAP1 DUP2 ADD SWAP3 DUP3 ISZERO PUSH2 0x2D8 JUMPI SWAP2 PUSH1 0x20 MUL DUP3 ADD JUMPDEST DUP3 DUP2 GT ISZERO PUSH2 0x2D7 JUMPI DUP3 MLOAD DUP3 SWAP1 PUSH1 0xFF AND SWAP1 SSTORE SWAP2 PUSH1 0x20 ADD SWAP2 SWAP1 PUSH1 0x1 ADD SWAP1 PUSH2 0x2B7 JUMP JUMPDEST JUMPDEST POP SWAP1 POP PUSH2 0x2E5 SWAP2 SWAP1 PUSH2 0x2E9 JUMP JUMPDEST POP SWAP1 JUMP JUMPDEST JUMPDEST DUP1 DUP3 GT ISZERO PUSH2 0x302 JUMPI PUSH1 0x0 DUP2 PUSH1 0x0 SWAP1 SSTORE POP PUSH1 0x1 ADD PUSH2 0x2EA JUMP JUMPDEST POP SWAP1 JUMP JUMPDEST PUSH1 0x0 DUP1 REVERT JUMPDEST PUSH1 0x0 DUP2 SWAP1 POP SWAP2 SWAP1 POP JUMP JUMPDEST PUSH2 0x31E DUP2 PUSH2 0x30B JUMP JUMPDEST DUP2 EQ PUSH2 0x329 JUMPI PUSH1 0x0 DUP1 REVERT JUMPDEST POP JUMP JUMPDEST PUSH1 0x0 DUP2 CALLDATALOAD SWAP1 POP PUSH2 0x33B DUP2 PUSH2 0x315 JUMP JUMPDEST SWAP3 SWAP2 POP POP JUMP JUMPDEST PUSH1 0x0 PUSH1 0x20 DUP3 DUP5 SUB SLT ISZERO PUSH2 0x357 JUMPI PUSH2 0x356 PUSH2 0x306 JUMP JUMPDEST JUMPDEST PUSH1 0x0 PUSH2 0x365 DUP5 DUP3 DUP6 ADD PUSH2 0x32C JUMP JUMPDEST SWAP2 POP POP SWAP3 SWAP2 POP POP JUMP JUMPDEST PUSH2 0x377 DUP2 PUSH2 0x30B JUMP JUMPDEST DUP3 MSTORE POP POP JUMP JUMPDEST PUSH1 0x0 PUSH1 0x20 DUP3 ADD SWAP1 POP PUSH2 0x392 PUSH1 0x0 DUP4 ADD DUP5 PUSH2 0x36E JUMP JUMPDEST SWAP3 SWAP2 POP POP JUMP JUMPDEST PUSH32 0x4E487B7100000000000000000000000000000000000000000000000000000000 PUSH1 0x0 MSTORE PUSH1 0x1 PUSH1 0x4 MSTORE PUSH1 0x24 PUSH1 0x0 REVERT JUMPDEST PUSH32 0x4E487B7100000000000000000000000000000000000000000000000000000000 PUSH1 0x0 MSTORE PUSH1 0x32 PUSH1 0x4 MSTORE PUSH1 0x24 PUSH1 0x0 REVERT JUMPDEST PUSH1 0x0 DUP3 DUP3 MSTORE PUSH1 0x20 DUP3 ADD SWAP1 POP SWAP3 SWAP2 POP POP JUMP JUMPDEST PUSH32 0x74686520696E64657820697320746F6F206269672E0000000000000000000000 PUSH1 0x0 DUP3 ADD MSTORE POP JUMP JUMPDEST PUSH1 0x0 PUSH2 0x43D PUSH1 0x15 DUP4 PUSH2 0x3F6 JUMP JUMPDEST SWAP2 POP PUSH2 0x448 DUP3 PUSH2 0x407 JUMP JUMPDEST PUSH1 0x20 DUP3 ADD SWAP1 POP SWAP2 SWAP1 POP JUMP JUMPDEST PUSH1 0x0 PUSH1 0x20 DUP3 ADD SWAP1 POP DUP2 DUP2 SUB PUSH1 0x0 DUP4 ADD MSTORE PUSH2 0x46C DUP2 PUSH2 0x430 JUMP JUMPDEST SWAP1 POP SWAP2 SWAP1 POP JUMP JUMPDEST PUSH32 0x4E487B7100000000000000000000000000000000000000000000000000000000 PUSH1 0x0 MSTORE PUSH1 0x11 PUSH1 0x4 MSTORE PUSH1 0x24 PUSH1 0x0 REVERT JUMPDEST PUSH1 0x0 PUSH2 0x4AD DUP3 PUSH2 0x30B JUMP JUMPDEST SWAP2 POP PUSH2 0x4B8 DUP4 PUSH2 0x30B JUMP JUMPDEST SWAP3 POP DUP3 DUP3 LT ISZERO PUSH2 0x4CB JUMPI PUSH2 0x4CA PUSH2 0x473 JUMP JUMPDEST JUMPDEST DUP3 DUP3 SUB SWAP1 POP SWAP3 SWAP2 POP POP JUMP JUMPDEST PUSH1 0x0 PUSH2 0x4E1 DUP3 PUSH2 0x30B JUMP JUMPDEST SWAP2 POP PUSH2 0x4EC DUP4 PUSH2 0x30B JUMP JUMPDEST SWAP3 POP DUP3 PUSH32 0xFFFFFFFFFFFFFFFFFFFFFFFFFFFFFFFFFFFFFFFFFFFFFFFFFFFFFFFFFFFFFFFF SUB DUP3 GT ISZERO PUSH2 0x521 JUMPI PUSH2 0x520 PUSH2 0x473 JUMP JUMPDEST JUMPDEST DUP3 DUP3 ADD SWAP1 POP SWAP3 SWAP2 POP POP JUMP JUMPDEST PUSH1 0x0 PUSH2 0x537 DUP3 PUSH2 0x30B JUMP JUMPDEST SWAP2 POP PUSH32 0xFFFFFFFFFFFFFFFFFFFFFFFFFFFFFFFFFFFFFFFFFFFFFFFFFFFFFFFFFFFFFFFF DUP3 SUB PUSH2 0x569 JUMPI PUSH2 0x568 PUSH2 0x473 JUMP JUMPDEST JUMPDEST PUSH1 0x1 DUP3 ADD SWAP1 POP SWAP2 SWAP1 POP JUMP JUMPDEST PUSH32 0x4E487B7100000000000000000000000000000000000000000000000000000000 PUSH1 0x0 MSTORE PUSH1 0x31 PUSH1 0x4 MSTORE PUSH1 0x24 PUSH1 0x0 REVERT INVALID LOG2 PUSH5 0x6970667358 0x22 SLT KECCAK256 0xC5 EXP 0xB9 0x26 DUP7 0x4A DUP3 DUP7 0x4C 0xF SWAP9 DUP8 CODESIZE DIFFICULTY SGT SELFDESTRUCT 0xA6 CODECOPY PUSH32 0x243658921DB90B0A7BFB72A7BC64736F6C634300080F00330000000000000000 "
		},
		"gasEstimates": {
			"creation": {
				"codeDepositCost": "299400",
				"executionCost": "337",
				"totalCost": "299737"
			},
			"external": {
				"arr(uint256)": "infinite",
				"test()": "infinite"
			},
			"internal": {
				"remove(uint256)": "infinite"
			}
		},
		"methodIdentifiers": {
			"arr(uint256)": "71e5ee5f",
			"test()": "f8a8fd6d"
		}
	},
	"abi": [
		{
			"inputs": [
				{
					"internalType": "uint256",
					"name": "",
					"type": "uint256"
				}
			],
			"name": "arr",
			"outputs": [
				{
					"internalType": "uint256",
					"name": "",
					"type": "uint256"
				}
			],
			"stateMutability": "view",
			"type": "function"
		},
		{
			"inputs": [],
			"name": "test",
			"outputs": [],
			"stateMutability": "nonpayable",
			"type": "function"
		}
	]
}