{
	"data": {
		"bytecode": {
			"linkReferences": {},
			"object": "608060405234801561001057600080fd5b5060ee8061001f6000396000f3fe6080604052348015600f57600080fd5b506004361060285760003560e01c806362b22b4814602d575b600080fd5b60436004803603810190603f9190607f565b6045565b005b5050565b600080fd5b6000819050919050565b605f81604e565b8114606957600080fd5b50565b6000813590506079816058565b92915050565b6000806040838503121560935760926049565b5b6000609f85828601606c565b925050602060ae85828601606c565b915050925092905056fea26469706673582212209cb17fd33756d4d33b9b96af654e0609a472e6305097cfa1140d00ec9b13e11464736f6c634300080f0033",
			"opcodes": "PUSH1 0x80 PUSH1 0x40 MSTORE CALLVALUE DUP1 ISZERO PUSH2 0x10 JUMPI PUSH1 0x0 DUP1 REVERT JUMPDEST POP PUSH1 0xEE DUP1 PUSH2 0x1F PUSH1 0x0 CODECOPY PUSH1 0x0 RETURN INVALID PUSH1 0x80 PUSH1 0x40 MSTORE CALLVALUE DUP1 ISZERO PUSH1 0xF JUMPI PUSH1 0x0 DUP1 REVERT JUMPDEST POP PUSH1 0x4 CALLDATASIZE LT PUSH1 0x28 JUMPI PUSH1 0x0 CALLDATALOAD PUSH1 0xE0 SHR DUP1 PUSH4 0x62B22B48 EQ PUSH1 0x2D JUMPI JUMPDEST PUSH1 0x0 DUP1 REVERT JUMPDEST PUSH1 0x43 PUSH1 0x4 DUP1 CALLDATASIZE SUB DUP2 ADD SWAP1 PUSH1 0x3F SWAP2 SWAP1 PUSH1 0x7F JUMP JUMPDEST PUSH1 0x45 JUMP JUMPDEST STOP JUMPDEST POP POP JUMP JUMPDEST PUSH1 0x0 DUP1 REVERT JUMPDEST PUSH1 0x0 DUP2 SWAP1 POP SWAP2 SWAP1 POP JUMP JUMPDEST PUSH1 0x5F DUP2 PUSH1 0x4E JUMP JUMPDEST DUP2 EQ PUSH1 0x69 JUMPI PUSH1 0x0 DUP1 REVERT JUMPDEST POP JUMP JUMPDEST PUSH1 0x0 DUP2 CALLDATALOAD SWAP1 POP PUSH1 0x79 DUP2 PUSH1 0x58 JUMP JUMPDEST SWAP3 SWAP2 POP POP JUMP JUMPDEST PUSH1 0x0 DUP1 PUSH1 0x40 DUP4 DUP6 SUB SLT ISZERO PUSH1 0x93 JUMPI PUSH1 0x92 PUSH1 0x49 JUMP JUMPDEST JUMPDEST PUSH1 0x0 PUSH1 0x9F DUP6 DUP3 DUP7 ADD PUSH1 0x6C JUMP JUMPDEST SWAP3 POP POP PUSH1 0x20 PUSH1 0xAE DUP6 DUP3 DUP7 ADD PUSH1 0x6C JUMP JUMPDEST SWAP2 POP POP SWAP3 POP SWAP3 SWAP1 POP JUMP INVALID LOG2 PUSH5 0x6970667358 0x22 SLT KECCAK256 SWAP13 0xB1 PUSH32 0xD33756D4D33B9B96AF654E0609A472E6305097CFA1140D00EC9B13E11464736F PUSH13 0x634300080F0033000000000000 "
		},
		"gasEstimates": {
			"creation": {
				"codeDepositCost": "47600",
				"executionCost": "99",
				"totalCost": "47699"
			},
			"external": {
				"stack(uint256,uint256)": "infinite"
			}
		},
		"methodIdentifiers": {
			"stack(uint256,uint256)": "62b22b48"
		}
	},
	"abi": [
		{
			"inputs": [
				{
					"internalType": "uint256",
					"name": "a1",
					"type": "uint256"
				},
				{
					"internalType": "uint256",
					"name": "a2",
					"type": "uint256"
				}
			],
			"name": "stack",
			"outputs": [],
			"stateMutability": "nonpayable",
			"type": "function"
		}
	]
}