{
	"data": {
		"bytecode": {
			"linkReferences": {
				"contracts/iterableMap.sol": {
					"IterableMapping": [
						{
							"length": 20,
							"start": 94
						},
						{
							"length": 20,
							"start": 205
						},
						{
							"length": 20,
							"start": 317
						},
						{
							"length": 20,
							"start": 429
						},
						{
							"length": 20,
							"start": 541
						},
						{
							"length": 20,
							"start": 906
						},
						{
							"length": 20,
							"start": 1017
						},
						{
							"length": 20,
							"start": 1178
						},
						{
							"length": 20,
							"start": 1364
						},
						{
							"length": 20,
							"start": 1550
						}
					]
				}
			},
			"object": "608060405234801561001057600080fd5b50610c80806100206000396000f3fe608060405234801561001057600080fd5b506004361061002b5760003560e01c8063d230a0d514610030575b600080fd5b61003861003a565b005b600073__$31eea9783e61146f678731d749da803c15$__6348b77e7590916000806040518463ffffffff1660e01b815260040161007993929190610725565b60006040518083038186803b15801561009157600080fd5b505af41580156100a5573d6000803e3d6000fd5b50505050600073__$31eea9783e61146f678731d749da803c15$__6348b77e759091600160646040518463ffffffff1660e01b81526004016100e993929190610797565b60006040518083038186803b15801561010157600080fd5b505af4158015610115573d6000803e3d6000fd5b50505050600073__$31eea9783e61146f678731d749da803c15$__6348b77e759091600260c86040518463ffffffff1660e01b815260040161015993929190610809565b60006040518083038186803b15801561017157600080fd5b505af4158015610185573d6000803e3d6000fd5b50505050600073__$31eea9783e61146f678731d749da803c15$__6348b77e759091600260c86040518463ffffffff1660e01b81526004016101c993929190610809565b60006040518083038186803b1580156101e157600080fd5b505af41580156101f5573d6000803e3d6000fd5b50505050600073__$31eea9783e61146f678731d749da803c15$__6348b77e759091600361012c6040518463ffffffff1660e01b815260040161023a9392919061087b565b60006040518083038186803b15801561025257600080fd5b505af4158015610266573d6000803e3d6000fd5b5050505060005b6000800180549050811015610365576000806000018281548110610294576102936108b2565b5b9060005260206000200160009054906101000a900473ffffffffffffffffffffffffffffffffffffffff1690506064826102ce9190610910565b600060010160008373ffffffffffffffffffffffffffffffffffffffff1673ffffffffffffffffffffffffffffffffffffffff1681526020019081526020016000205414610351576040517f08c379a0000000000000000000000000000000000000000000000000000000008152600401610348906109c7565b60405180910390fd5b50808061035d906109e7565b91505061026d565b50600073__$31eea9783e61146f678731d749da803c15$__6328ea1ec8909160016040518363ffffffff1660e01b81526004016103a3929190610a2f565b60006040518083038186803b1580156103bb57600080fd5b505af41580156103cf573d6000803e3d6000fd5b505050506003600073__$31eea9783e61146f678731d749da803c15$__6373814df590916040518263ffffffff1660e01b815260040161040f9190610a58565b602060405180830381865af415801561042c573d6000803e3d6000fd5b505050506040513d601f19601f820116820180604052508101906104509190610aa4565b1461045e5761045d610ad1565b5b600073ffffffffffffffffffffffffffffffffffffffff16600073__$31eea9783e61146f678731d749da803c15$__63d1aa9e7e909160006040518363ffffffff1660e01b81526004016104b3929190610b00565b602060405180830381865af41580156104d0573d6000803e3d6000fd5b505050506040513d601f19601f820116820180604052508101906104f49190610b55565b73ffffffffffffffffffffffffffffffffffffffff161461051857610517610ad1565b5b600273ffffffffffffffffffffffffffffffffffffffff16600073__$31eea9783e61146f678731d749da803c15$__63d1aa9e7e909160016040518363ffffffff1660e01b815260040161056d929190610bbd565b602060405180830381865af415801561058a573d6000803e3d6000fd5b505050506040513d601f19601f820116820180604052508101906105ae9190610b55565b73ffffffffffffffffffffffffffffffffffffffff16146105d2576105d1610ad1565b5b600373ffffffffffffffffffffffffffffffffffffffff16600073__$31eea9783e61146f678731d749da803c15$__63d1aa9e7e909160026040518363ffffffff1660e01b8152600401610627929190610c21565b602060405180830381865af4158015610644573d6000803e3d6000fd5b505050506040513d601f19601f820116820180604052508101906106689190610b55565b73ffffffffffffffffffffffffffffffffffffffff161461068c5761068b610ad1565b5b565b8082525050565b600073ffffffffffffffffffffffffffffffffffffffff82169050919050565b60006106c082610695565b9050919050565b6106d0816106b5565b82525050565b6000819050919050565b6000819050919050565b6000819050919050565b600061070f61070a610705846106d6565b6106ea565b6106e0565b9050919050565b61071f816106f4565b82525050565b600060608201905061073a600083018661068e565b61074760208301856106c7565b6107546040830184610716565b949350505050565b6000819050919050565b600061078161077c6107778461075c565b6106ea565b6106e0565b9050919050565b61079181610766565b82525050565b60006060820190506107ac600083018661068e565b6107b960208301856106c7565b6107c66040830184610788565b949350505050565b6000819050919050565b60006107f36107ee6107e9846107ce565b6106ea565b6106e0565b9050919050565b610803816107d8565b82525050565b600060608201905061081e600083018661068e565b61082b60208301856106c7565b61083860408301846107fa565b949350505050565b6000819050919050565b600061086561086061085b84610840565b6106ea565b6106e0565b9050919050565b6108758161084a565b82525050565b6000606082019050610890600083018661068e565b61089d60208301856106c7565b6108aa604083018461086c565b949350505050565b7f4e487b7100000000000000000000000000000000000000000000000000000000600052603260045260246000fd5b7f4e487b7100000000000000000000000000000000000000000000000000000000600052601160045260246000fd5b600061091b826106e0565b9150610926836106e0565b9250817fffffffffffffffffffffffffffffffffffffffffffffffffffffffffffffffff048311821515161561095f5761095e6108e1565b5b828202905092915050565b600082825260208201905092915050565b7f76616c7565206973206e6f7420636f72726563742e0000000000000000000000600082015250565b60006109b160158361096a565b91506109bc8261097b565b602082019050919050565b600060208201905081810360008301526109e0816109a4565b9050919050565b60006109f2826106e0565b91507fffffffffffffffffffffffffffffffffffffffffffffffffffffffffffffffff8203610a2457610a236108e1565b5b600182019050919050565b6000604082019050610a44600083018561068e565b610a5160208301846106c7565b9392505050565b6000602082019050610a6d600083018461068e565b92915050565b600080fd5b610a81816106e0565b8114610a8c57600080fd5b50565b600081519050610a9e81610a78565b92915050565b600060208284031215610aba57610ab9610a73565b5b6000610ac884828501610a8f565b91505092915050565b7f4e487b7100000000000000000000000000000000000000000000000000000000600052600160045260246000fd5b6000604082019050610b15600083018561068e565b610b226020830184610716565b9392505050565b610b32816106b5565b8114610b3d57600080fd5b50565b600081519050610b4f81610b29565b92915050565b600060208284031215610b6b57610b6a610a73565b5b6000610b7984828501610b40565b91505092915050565b6000819050919050565b6000610ba7610ba2610b9d84610b82565b6106ea565b6106e0565b9050919050565b610bb781610b8c565b82525050565b6000604082019050610bd2600083018561068e565b610bdf6020830184610bae565b9392505050565b6000819050919050565b6000610c0b610c06610c0184610be6565b6106ea565b6106e0565b9050919050565b610c1b81610bf0565b82525050565b6000604082019050610c36600083018561068e565b610c436020830184610c12565b939250505056fea264697066735822122013f4c2599d5d859f9e6049bfb2838eae604ed843a84cbdf5590ff2b446dfe01764736f6c634300080f0033",
			"opcodes": "PUSH1 0x80 PUSH1 0x40 MSTORE CALLVALUE DUP1 ISZERO PUSH2 0x10 JUMPI PUSH1 0x0 DUP1 REVERT JUMPDEST POP PUSH2 0xC80 DUP1 PUSH2 0x20 PUSH1 0x0 CODECOPY PUSH1 0x0 RETURN INVALID PUSH1 0x80 PUSH1 0x40 MSTORE CALLVALUE DUP1 ISZERO PUSH2 0x10 JUMPI PUSH1 0x0 DUP1 REVERT JUMPDEST POP PUSH1 0x4 CALLDATASIZE LT PUSH2 0x2B JUMPI PUSH1 0x0 CALLDATALOAD PUSH1 0xE0 SHR DUP1 PUSH4 0xD230A0D5 EQ PUSH2 0x30 JUMPI JUMPDEST PUSH1 0x0 DUP1 REVERT JUMPDEST PUSH2 0x38 PUSH2 0x3A JUMP JUMPDEST STOP JUMPDEST PUSH1 0x0 PUSH20 0x0 PUSH4 0x48B77E75 SWAP1 SWAP2 PUSH1 0x0 DUP1 PUSH1 0x40 MLOAD DUP5 PUSH4 0xFFFFFFFF AND PUSH1 0xE0 SHL DUP2 MSTORE PUSH1 0x4 ADD PUSH2 0x79 SWAP4 SWAP3 SWAP2 SWAP1 PUSH2 0x725 JUMP JUMPDEST PUSH1 0x0 PUSH1 0x40 MLOAD DUP1 DUP4 SUB DUP2 DUP7 DUP1 EXTCODESIZE ISZERO DUP1 ISZERO PUSH2 0x91 JUMPI PUSH1 0x0 DUP1 REVERT JUMPDEST POP GAS DELEGATECALL ISZERO DUP1 ISZERO PUSH2 0xA5 JUMPI RETURNDATASIZE PUSH1 0x0 DUP1 RETURNDATACOPY RETURNDATASIZE PUSH1 0x0 REVERT JUMPDEST POP POP POP POP PUSH1 0x0 PUSH20 0x0 PUSH4 0x48B77E75 SWAP1 SWAP2 PUSH1 0x1 PUSH1 0x64 PUSH1 0x40 MLOAD DUP5 PUSH4 0xFFFFFFFF AND PUSH1 0xE0 SHL DUP2 MSTORE PUSH1 0x4 ADD PUSH2 0xE9 SWAP4 SWAP3 SWAP2 SWAP1 PUSH2 0x797 JUMP JUMPDEST PUSH1 0x0 PUSH1 0x40 MLOAD DUP1 DUP4 SUB DUP2 DUP7 DUP1 EXTCODESIZE ISZERO DUP1 ISZERO PUSH2 0x101 JUMPI PUSH1 0x0 DUP1 REVERT JUMPDEST POP GAS DELEGATECALL ISZERO DUP1 ISZERO PUSH2 0x115 JUMPI RETURNDATASIZE PUSH1 0x0 DUP1 RETURNDATACOPY RETURNDATASIZE PUSH1 0x0 REVERT JUMPDEST POP POP POP POP PUSH1 0x0 PUSH20 0x0 PUSH4 0x48B77E75 SWAP1 SWAP2 PUSH1 0x2 PUSH1 0xC8 PUSH1 0x40 MLOAD DUP5 PUSH4 0xFFFFFFFF AND PUSH1 0xE0 SHL DUP2 MSTORE PUSH1 0x4 ADD PUSH2 0x159 SWAP4 SWAP3 SWAP2 SWAP1 PUSH2 0x809 JUMP JUMPDEST PUSH1 0x0 PUSH1 0x40 MLOAD DUP1 DUP4 SUB DUP2 DUP7 DUP1 EXTCODESIZE ISZERO DUP1 ISZERO PUSH2 0x171 JUMPI PUSH1 0x0 DUP1 REVERT JUMPDEST POP GAS DELEGATECALL ISZERO DUP1 ISZERO PUSH2 0x185 JUMPI RETURNDATASIZE PUSH1 0x0 DUP1 RETURNDATACOPY RETURNDATASIZE PUSH1 0x0 REVERT JUMPDEST POP POP POP POP PUSH1 0x0 PUSH20 0x0 PUSH4 0x48B77E75 SWAP1 SWAP2 PUSH1 0x2 PUSH1 0xC8 PUSH1 0x40 MLOAD DUP5 PUSH4 0xFFFFFFFF AND PUSH1 0xE0 SHL DUP2 MSTORE PUSH1 0x4 ADD PUSH2 0x1C9 SWAP4 SWAP3 SWAP2 SWAP1 PUSH2 0x809 JUMP JUMPDEST PUSH1 0x0 PUSH1 0x40 MLOAD DUP1 DUP4 SUB DUP2 DUP7 DUP1 EXTCODESIZE ISZERO DUP1 ISZERO PUSH2 0x1E1 JUMPI PUSH1 0x0 DUP1 REVERT JUMPDEST POP GAS DELEGATECALL ISZERO DUP1 ISZERO PUSH2 0x1F5 JUMPI RETURNDATASIZE PUSH1 0x0 DUP1 RETURNDATACOPY RETURNDATASIZE PUSH1 0x0 REVERT JUMPDEST POP POP POP POP PUSH1 0x0 PUSH20 0x0 PUSH4 0x48B77E75 SWAP1 SWAP2 PUSH1 0x3 PUSH2 0x12C PUSH1 0x40 MLOAD DUP5 PUSH4 0xFFFFFFFF AND PUSH1 0xE0 SHL DUP2 MSTORE PUSH1 0x4 ADD PUSH2 0x23A SWAP4 SWAP3 SWAP2 SWAP1 PUSH2 0x87B JUMP JUMPDEST PUSH1 0x0 PUSH1 0x40 MLOAD DUP1 DUP4 SUB DUP2 DUP7 DUP1 EXTCODESIZE ISZERO DUP1 ISZERO PUSH2 0x252 JUMPI PUSH1 0x0 DUP1 REVERT JUMPDEST POP GAS DELEGATECALL ISZERO DUP1 ISZERO PUSH2 0x266 JUMPI RETURNDATASIZE PUSH1 0x0 DUP1 RETURNDATACOPY RETURNDATASIZE PUSH1 0x0 REVERT JUMPDEST POP POP POP POP PUSH1 0x0 JUMPDEST PUSH1 0x0 DUP1 ADD DUP1 SLOAD SWAP1 POP DUP2 LT ISZERO PUSH2 0x365 JUMPI PUSH1 0x0 DUP1 PUSH1 0x0 ADD DUP3 DUP2 SLOAD DUP2 LT PUSH2 0x294 JUMPI PUSH2 0x293 PUSH2 0x8B2 JUMP JUMPDEST JUMPDEST SWAP1 PUSH1 0x0 MSTORE PUSH1 0x20 PUSH1 0x0 KECCAK256 ADD PUSH1 0x0 SWAP1 SLOAD SWAP1 PUSH2 0x100 EXP SWAP1 DIV PUSH20 0xFFFFFFFFFFFFFFFFFFFFFFFFFFFFFFFFFFFFFFFF AND SWAP1 POP PUSH1 0x64 DUP3 PUSH2 0x2CE SWAP2 SWAP1 PUSH2 0x910 JUMP JUMPDEST PUSH1 0x0 PUSH1 0x1 ADD PUSH1 0x0 DUP4 PUSH20 0xFFFFFFFFFFFFFFFFFFFFFFFFFFFFFFFFFFFFFFFF AND PUSH20 0xFFFFFFFFFFFFFFFFFFFFFFFFFFFFFFFFFFFFFFFF AND DUP2 MSTORE PUSH1 0x20 ADD SWAP1 DUP2 MSTORE PUSH1 0x20 ADD PUSH1 0x0 KECCAK256 SLOAD EQ PUSH2 0x351 JUMPI PUSH1 0x40 MLOAD PUSH32 0x8C379A000000000000000000000000000000000000000000000000000000000 DUP2 MSTORE PUSH1 0x4 ADD PUSH2 0x348 SWAP1 PUSH2 0x9C7 JUMP JUMPDEST PUSH1 0x40 MLOAD DUP1 SWAP2 SUB SWAP1 REVERT JUMPDEST POP DUP1 DUP1 PUSH2 0x35D SWAP1 PUSH2 0x9E7 JUMP JUMPDEST SWAP2 POP POP PUSH2 0x26D JUMP JUMPDEST POP PUSH1 0x0 PUSH20 0x0 PUSH4 0x28EA1EC8 SWAP1 SWAP2 PUSH1 0x1 PUSH1 0x40 MLOAD DUP4 PUSH4 0xFFFFFFFF AND PUSH1 0xE0 SHL DUP2 MSTORE PUSH1 0x4 ADD PUSH2 0x3A3 SWAP3 SWAP2 SWAP1 PUSH2 0xA2F JUMP JUMPDEST PUSH1 0x0 PUSH1 0x40 MLOAD DUP1 DUP4 SUB DUP2 DUP7 DUP1 EXTCODESIZE ISZERO DUP1 ISZERO PUSH2 0x3BB JUMPI PUSH1 0x0 DUP1 REVERT JUMPDEST POP GAS DELEGATECALL ISZERO DUP1 ISZERO PUSH2 0x3CF JUMPI RETURNDATASIZE PUSH1 0x0 DUP1 RETURNDATACOPY RETURNDATASIZE PUSH1 0x0 REVERT JUMPDEST POP POP POP POP PUSH1 0x3 PUSH1 0x0 PUSH20 0x0 PUSH4 0x73814DF5 SWAP1 SWAP2 PUSH1 0x40 MLOAD DUP3 PUSH4 0xFFFFFFFF AND PUSH1 0xE0 SHL DUP2 MSTORE PUSH1 0x4 ADD PUSH2 0x40F SWAP2 SWAP1 PUSH2 0xA58 JUMP JUMPDEST PUSH1 0x20 PUSH1 0x40 MLOAD DUP1 DUP4 SUB DUP2 DUP7 GAS DELEGATECALL ISZERO DUP1 ISZERO PUSH2 0x42C JUMPI RETURNDATASIZE PUSH1 0x0 DUP1 RETURNDATACOPY RETURNDATASIZE PUSH1 0x0 REVERT JUMPDEST POP POP POP POP PUSH1 0x40 MLOAD RETURNDATASIZE PUSH1 0x1F NOT PUSH1 0x1F DUP3 ADD AND DUP3 ADD DUP1 PUSH1 0x40 MSTORE POP DUP2 ADD SWAP1 PUSH2 0x450 SWAP2 SWAP1 PUSH2 0xAA4 JUMP JUMPDEST EQ PUSH2 0x45E JUMPI PUSH2 0x45D PUSH2 0xAD1 JUMP JUMPDEST JUMPDEST PUSH1 0x0 PUSH20 0xFFFFFFFFFFFFFFFFFFFFFFFFFFFFFFFFFFFFFFFF AND PUSH1 0x0 PUSH20 0x0 PUSH4 0xD1AA9E7E SWAP1 SWAP2 PUSH1 0x0 PUSH1 0x40 MLOAD DUP4 PUSH4 0xFFFFFFFF AND PUSH1 0xE0 SHL DUP2 MSTORE PUSH1 0x4 ADD PUSH2 0x4B3 SWAP3 SWAP2 SWAP1 PUSH2 0xB00 JUMP JUMPDEST PUSH1 0x20 PUSH1 0x40 MLOAD DUP1 DUP4 SUB DUP2 DUP7 GAS DELEGATECALL ISZERO DUP1 ISZERO PUSH2 0x4D0 JUMPI RETURNDATASIZE PUSH1 0x0 DUP1 RETURNDATACOPY RETURNDATASIZE PUSH1 0x0 REVERT JUMPDEST POP POP POP POP PUSH1 0x40 MLOAD RETURNDATASIZE PUSH1 0x1F NOT PUSH1 0x1F DUP3 ADD AND DUP3 ADD DUP1 PUSH1 0x40 MSTORE POP DUP2 ADD SWAP1 PUSH2 0x4F4 SWAP2 SWAP1 PUSH2 0xB55 JUMP JUMPDEST PUSH20 0xFFFFFFFFFFFFFFFFFFFFFFFFFFFFFFFFFFFFFFFF AND EQ PUSH2 0x518 JUMPI PUSH2 0x517 PUSH2 0xAD1 JUMP JUMPDEST JUMPDEST PUSH1 0x2 PUSH20 0xFFFFFFFFFFFFFFFFFFFFFFFFFFFFFFFFFFFFFFFF AND PUSH1 0x0 PUSH20 0x0 PUSH4 0xD1AA9E7E SWAP1 SWAP2 PUSH1 0x1 PUSH1 0x40 MLOAD DUP4 PUSH4 0xFFFFFFFF AND PUSH1 0xE0 SHL DUP2 MSTORE PUSH1 0x4 ADD PUSH2 0x56D SWAP3 SWAP2 SWAP1 PUSH2 0xBBD JUMP JUMPDEST PUSH1 0x20 PUSH1 0x40 MLOAD DUP1 DUP4 SUB DUP2 DUP7 GAS DELEGATECALL ISZERO DUP1 ISZERO PUSH2 0x58A JUMPI RETURNDATASIZE PUSH1 0x0 DUP1 RETURNDATACOPY RETURNDATASIZE PUSH1 0x0 REVERT JUMPDEST POP POP POP POP PUSH1 0x40 MLOAD RETURNDATASIZE PUSH1 0x1F NOT PUSH1 0x1F DUP3 ADD AND DUP3 ADD DUP1 PUSH1 0x40 MSTORE POP DUP2 ADD SWAP1 PUSH2 0x5AE SWAP2 SWAP1 PUSH2 0xB55 JUMP JUMPDEST PUSH20 0xFFFFFFFFFFFFFFFFFFFFFFFFFFFFFFFFFFFFFFFF AND EQ PUSH2 0x5D2 JUMPI PUSH2 0x5D1 PUSH2 0xAD1 JUMP JUMPDEST JUMPDEST PUSH1 0x3 PUSH20 0xFFFFFFFFFFFFFFFFFFFFFFFFFFFFFFFFFFFFFFFF AND PUSH1 0x0 PUSH20 0x0 PUSH4 0xD1AA9E7E SWAP1 SWAP2 PUSH1 0x2 PUSH1 0x40 MLOAD DUP4 PUSH4 0xFFFFFFFF AND PUSH1 0xE0 SHL DUP2 MSTORE PUSH1 0x4 ADD PUSH2 0x627 SWAP3 SWAP2 SWAP1 PUSH2 0xC21 JUMP JUMPDEST PUSH1 0x20 PUSH1 0x40 MLOAD DUP1 DUP4 SUB DUP2 DUP7 GAS DELEGATECALL ISZERO DUP1 ISZERO PUSH2 0x644 JUMPI RETURNDATASIZE PUSH1 0x0 DUP1 RETURNDATACOPY RETURNDATASIZE PUSH1 0x0 REVERT JUMPDEST POP POP POP POP PUSH1 0x40 MLOAD RETURNDATASIZE PUSH1 0x1F NOT PUSH1 0x1F DUP3 ADD AND DUP3 ADD DUP1 PUSH1 0x40 MSTORE POP DUP2 ADD SWAP1 PUSH2 0x668 SWAP2 SWAP1 PUSH2 0xB55 JUMP JUMPDEST PUSH20 0xFFFFFFFFFFFFFFFFFFFFFFFFFFFFFFFFFFFFFFFF AND EQ PUSH2 0x68C JUMPI PUSH2 0x68B PUSH2 0xAD1 JUMP JUMPDEST JUMPDEST JUMP JUMPDEST DUP1 DUP3 MSTORE POP POP JUMP JUMPDEST PUSH1 0x0 PUSH20 0xFFFFFFFFFFFFFFFFFFFFFFFFFFFFFFFFFFFFFFFF DUP3 AND SWAP1 POP SWAP2 SWAP1 POP JUMP JUMPDEST PUSH1 0x0 PUSH2 0x6C0 DUP3 PUSH2 0x695 JUMP JUMPDEST SWAP1 POP SWAP2 SWAP1 POP JUMP JUMPDEST PUSH2 0x6D0 DUP2 PUSH2 0x6B5 JUMP JUMPDEST DUP3 MSTORE POP POP JUMP JUMPDEST PUSH1 0x0 DUP2 SWAP1 POP SWAP2 SWAP1 POP JUMP JUMPDEST PUSH1 0x0 DUP2 SWAP1 POP SWAP2 SWAP1 POP JUMP JUMPDEST PUSH1 0x0 DUP2 SWAP1 POP SWAP2 SWAP1 POP JUMP JUMPDEST PUSH1 0x0 PUSH2 0x70F PUSH2 0x70A PUSH2 0x705 DUP5 PUSH2 0x6D6 JUMP JUMPDEST PUSH2 0x6EA JUMP JUMPDEST PUSH2 0x6E0 JUMP JUMPDEST SWAP1 POP SWAP2 SWAP1 POP JUMP JUMPDEST PUSH2 0x71F DUP2 PUSH2 0x6F4 JUMP JUMPDEST DUP3 MSTORE POP POP JUMP JUMPDEST PUSH1 0x0 PUSH1 0x60 DUP3 ADD SWAP1 POP PUSH2 0x73A PUSH1 0x0 DUP4 ADD DUP7 PUSH2 0x68E JUMP JUMPDEST PUSH2 0x747 PUSH1 0x20 DUP4 ADD DUP6 PUSH2 0x6C7 JUMP JUMPDEST PUSH2 0x754 PUSH1 0x40 DUP4 ADD DUP5 PUSH2 0x716 JUMP JUMPDEST SWAP5 SWAP4 POP POP POP POP JUMP JUMPDEST PUSH1 0x0 DUP2 SWAP1 POP SWAP2 SWAP1 POP JUMP JUMPDEST PUSH1 0x0 PUSH2 0x781 PUSH2 0x77C PUSH2 0x777 DUP5 PUSH2 0x75C JUMP JUMPDEST PUSH2 0x6EA JUMP JUMPDEST PUSH2 0x6E0 JUMP JUMPDEST SWAP1 POP SWAP2 SWAP1 POP JUMP JUMPDEST PUSH2 0x791 DUP2 PUSH2 0x766 JUMP JUMPDEST DUP3 MSTORE POP POP JUMP JUMPDEST PUSH1 0x0 PUSH1 0x60 DUP3 ADD SWAP1 POP PUSH2 0x7AC PUSH1 0x0 DUP4 ADD DUP7 PUSH2 0x68E JUMP JUMPDEST PUSH2 0x7B9 PUSH1 0x20 DUP4 ADD DUP6 PUSH2 0x6C7 JUMP JUMPDEST PUSH2 0x7C6 PUSH1 0x40 DUP4 ADD DUP5 PUSH2 0x788 JUMP JUMPDEST SWAP5 SWAP4 POP POP POP POP JUMP JUMPDEST PUSH1 0x0 DUP2 SWAP1 POP SWAP2 SWAP1 POP JUMP JUMPDEST PUSH1 0x0 PUSH2 0x7F3 PUSH2 0x7EE PUSH2 0x7E9 DUP5 PUSH2 0x7CE JUMP JUMPDEST PUSH2 0x6EA JUMP JUMPDEST PUSH2 0x6E0 JUMP JUMPDEST SWAP1 POP SWAP2 SWAP1 POP JUMP JUMPDEST PUSH2 0x803 DUP2 PUSH2 0x7D8 JUMP JUMPDEST DUP3 MSTORE POP POP JUMP JUMPDEST PUSH1 0x0 PUSH1 0x60 DUP3 ADD SWAP1 POP PUSH2 0x81E PUSH1 0x0 DUP4 ADD DUP7 PUSH2 0x68E JUMP JUMPDEST PUSH2 0x82B PUSH1 0x20 DUP4 ADD DUP6 PUSH2 0x6C7 JUMP JUMPDEST PUSH2 0x838 PUSH1 0x40 DUP4 ADD DUP5 PUSH2 0x7FA JUMP JUMPDEST SWAP5 SWAP4 POP POP POP POP JUMP JUMPDEST PUSH1 0x0 DUP2 SWAP1 POP SWAP2 SWAP1 POP JUMP JUMPDEST PUSH1 0x0 PUSH2 0x865 PUSH2 0x860 PUSH2 0x85B DUP5 PUSH2 0x840 JUMP JUMPDEST PUSH2 0x6EA JUMP JUMPDEST PUSH2 0x6E0 JUMP JUMPDEST SWAP1 POP SWAP2 SWAP1 POP JUMP JUMPDEST PUSH2 0x875 DUP2 PUSH2 0x84A JUMP JUMPDEST DUP3 MSTORE POP POP JUMP JUMPDEST PUSH1 0x0 PUSH1 0x60 DUP3 ADD SWAP1 POP PUSH2 0x890 PUSH1 0x0 DUP4 ADD DUP7 PUSH2 0x68E JUMP JUMPDEST PUSH2 0x89D PUSH1 0x20 DUP4 ADD DUP6 PUSH2 0x6C7 JUMP JUMPDEST PUSH2 0x8AA PUSH1 0x40 DUP4 ADD DUP5 PUSH2 0x86C JUMP JUMPDEST SWAP5 SWAP4 POP POP POP POP JUMP JUMPDEST PUSH32 0x4E487B7100000000000000000000000000000000000000000000000000000000 PUSH1 0x0 MSTORE PUSH1 0x32 PUSH1 0x4 MSTORE PUSH1 0x24 PUSH1 0x0 REVERT JUMPDEST PUSH32 0x4E487B7100000000000000000000000000000000000000000000000000000000 PUSH1 0x0 MSTORE PUSH1 0x11 PUSH1 0x4 MSTORE PUSH1 0x24 PUSH1 0x0 REVERT JUMPDEST PUSH1 0x0 PUSH2 0x91B DUP3 PUSH2 0x6E0 JUMP JUMPDEST SWAP2 POP PUSH2 0x926 DUP4 PUSH2 0x6E0 JUMP JUMPDEST SWAP3 POP DUP2 PUSH32 0xFFFFFFFFFFFFFFFFFFFFFFFFFFFFFFFFFFFFFFFFFFFFFFFFFFFFFFFFFFFFFFFF DIV DUP4 GT DUP3 ISZERO ISZERO AND ISZERO PUSH2 0x95F JUMPI PUSH2 0x95E PUSH2 0x8E1 JUMP JUMPDEST JUMPDEST DUP3 DUP3 MUL SWAP1 POP SWAP3 SWAP2 POP POP JUMP JUMPDEST PUSH1 0x0 DUP3 DUP3 MSTORE PUSH1 0x20 DUP3 ADD SWAP1 POP SWAP3 SWAP2 POP POP JUMP JUMPDEST PUSH32 0x76616C7565206973206E6F7420636F72726563742E0000000000000000000000 PUSH1 0x0 DUP3 ADD MSTORE POP JUMP JUMPDEST PUSH1 0x0 PUSH2 0x9B1 PUSH1 0x15 DUP4 PUSH2 0x96A JUMP JUMPDEST SWAP2 POP PUSH2 0x9BC DUP3 PUSH2 0x97B JUMP JUMPDEST PUSH1 0x20 DUP3 ADD SWAP1 POP SWAP2 SWAP1 POP JUMP JUMPDEST PUSH1 0x0 PUSH1 0x20 DUP3 ADD SWAP1 POP DUP2 DUP2 SUB PUSH1 0x0 DUP4 ADD MSTORE PUSH2 0x9E0 DUP2 PUSH2 0x9A4 JUMP JUMPDEST SWAP1 POP SWAP2 SWAP1 POP JUMP JUMPDEST PUSH1 0x0 PUSH2 0x9F2 DUP3 PUSH2 0x6E0 JUMP JUMPDEST SWAP2 POP PUSH32 0xFFFFFFFFFFFFFFFFFFFFFFFFFFFFFFFFFFFFFFFFFFFFFFFFFFFFFFFFFFFFFFFF DUP3 SUB PUSH2 0xA24 JUMPI PUSH2 0xA23 PUSH2 0x8E1 JUMP JUMPDEST JUMPDEST PUSH1 0x1 DUP3 ADD SWAP1 POP SWAP2 SWAP1 POP JUMP JUMPDEST PUSH1 0x0 PUSH1 0x40 DUP3 ADD SWAP1 POP PUSH2 0xA44 PUSH1 0x0 DUP4 ADD DUP6 PUSH2 0x68E JUMP JUMPDEST PUSH2 0xA51 PUSH1 0x20 DUP4 ADD DUP5 PUSH2 0x6C7 JUMP JUMPDEST SWAP4 SWAP3 POP POP POP JUMP JUMPDEST PUSH1 0x0 PUSH1 0x20 DUP3 ADD SWAP1 POP PUSH2 0xA6D PUSH1 0x0 DUP4 ADD DUP5 PUSH2 0x68E JUMP JUMPDEST SWAP3 SWAP2 POP POP JUMP JUMPDEST PUSH1 0x0 DUP1 REVERT JUMPDEST PUSH2 0xA81 DUP2 PUSH2 0x6E0 JUMP JUMPDEST DUP2 EQ PUSH2 0xA8C JUMPI PUSH1 0x0 DUP1 REVERT JUMPDEST POP JUMP JUMPDEST PUSH1 0x0 DUP2 MLOAD SWAP1 POP PUSH2 0xA9E DUP2 PUSH2 0xA78 JUMP JUMPDEST SWAP3 SWAP2 POP POP JUMP JUMPDEST PUSH1 0x0 PUSH1 0x20 DUP3 DUP5 SUB SLT ISZERO PUSH2 0xABA JUMPI PUSH2 0xAB9 PUSH2 0xA73 JUMP JUMPDEST JUMPDEST PUSH1 0x0 PUSH2 0xAC8 DUP5 DUP3 DUP6 ADD PUSH2 0xA8F JUMP JUMPDEST SWAP2 POP POP SWAP3 SWAP2 POP POP JUMP JUMPDEST PUSH32 0x4E487B7100000000000000000000000000000000000000000000000000000000 PUSH1 0x0 MSTORE PUSH1 0x1 PUSH1 0x4 MSTORE PUSH1 0x24 PUSH1 0x0 REVERT JUMPDEST PUSH1 0x0 PUSH1 0x40 DUP3 ADD SWAP1 POP PUSH2 0xB15 PUSH1 0x0 DUP4 ADD DUP6 PUSH2 0x68E JUMP JUMPDEST PUSH2 0xB22 PUSH1 0x20 DUP4 ADD DUP5 PUSH2 0x716 JUMP JUMPDEST SWAP4 SWAP3 POP POP POP JUMP JUMPDEST PUSH2 0xB32 DUP2 PUSH2 0x6B5 JUMP JUMPDEST DUP2 EQ PUSH2 0xB3D JUMPI PUSH1 0x0 DUP1 REVERT JUMPDEST POP JUMP JUMPDEST PUSH1 0x0 DUP2 MLOAD SWAP1 POP PUSH2 0xB4F DUP2 PUSH2 0xB29 JUMP JUMPDEST SWAP3 SWAP2 POP POP JUMP JUMPDEST PUSH1 0x0 PUSH1 0x20 DUP3 DUP5 SUB SLT ISZERO PUSH2 0xB6B JUMPI PUSH2 0xB6A PUSH2 0xA73 JUMP JUMPDEST JUMPDEST PUSH1 0x0 PUSH2 0xB79 DUP5 DUP3 DUP6 ADD PUSH2 0xB40 JUMP JUMPDEST SWAP2 POP POP SWAP3 SWAP2 POP POP JUMP JUMPDEST PUSH1 0x0 DUP2 SWAP1 POP SWAP2 SWAP1 POP JUMP JUMPDEST PUSH1 0x0 PUSH2 0xBA7 PUSH2 0xBA2 PUSH2 0xB9D DUP5 PUSH2 0xB82 JUMP JUMPDEST PUSH2 0x6EA JUMP JUMPDEST PUSH2 0x6E0 JUMP JUMPDEST SWAP1 POP SWAP2 SWAP1 POP JUMP JUMPDEST PUSH2 0xBB7 DUP2 PUSH2 0xB8C JUMP JUMPDEST DUP3 MSTORE POP POP JUMP JUMPDEST PUSH1 0x0 PUSH1 0x40 DUP3 ADD SWAP1 POP PUSH2 0xBD2 PUSH1 0x0 DUP4 ADD DUP6 PUSH2 0x68E JUMP JUMPDEST PUSH2 0xBDF PUSH1 0x20 DUP4 ADD DUP5 PUSH2 0xBAE JUMP JUMPDEST SWAP4 SWAP3 POP POP POP JUMP JUMPDEST PUSH1 0x0 DUP2 SWAP1 POP SWAP2 SWAP1 POP JUMP JUMPDEST PUSH1 0x0 PUSH2 0xC0B PUSH2 0xC06 PUSH2 0xC01 DUP5 PUSH2 0xBE6 JUMP JUMPDEST PUSH2 0x6EA JUMP JUMPDEST PUSH2 0x6E0 JUMP JUMPDEST SWAP1 POP SWAP2 SWAP1 POP JUMP JUMPDEST PUSH2 0xC1B DUP2 PUSH2 0xBF0 JUMP JUMPDEST DUP3 MSTORE POP POP JUMP JUMPDEST PUSH1 0x0 PUSH1 0x40 DUP3 ADD SWAP1 POP PUSH2 0xC36 PUSH1 0x0 DUP4 ADD DUP6 PUSH2 0x68E JUMP JUMPDEST PUSH2 0xC43 PUSH1 0x20 DUP4 ADD DUP5 PUSH2 0xC12 JUMP JUMPDEST SWAP4 SWAP3 POP POP POP JUMP INVALID LOG2 PUSH5 0x6970667358 0x22 SLT KECCAK256 SGT DELEGATECALL 0xC2 MSIZE SWAP14 0x5D DUP6 SWAP16 SWAP15 PUSH1 0x49 0xBF 0xB2 DUP4 DUP15 0xAE PUSH1 0x4E 0xD8 NUMBER 0xA8 0x4C 0xBD CREATE2 MSIZE 0xF CALLCODE 0xB4 CHAINID 0xDF 0xE0 OR PUSH5 0x736F6C6343 STOP ADDMOD 0xF STOP CALLER "
		},
		"gasEstimates": {
			"creation": {
				"codeDepositCost": "640000",
				"executionCost": "670",
				"totalCost": "640670"
			},
			"external": {
				"testIterableMap()": "infinite"
			}
		},
		"methodIdentifiers": {
			"testIterableMap()": "d230a0d5"
		}
	},
	"abi": [
		{
			"inputs": [],
			"name": "testIterableMap",
			"outputs": [],
			"stateMutability": "nonpayable",
			"type": "function"
		}
	]
}