{
	"data": {
		"bytecode": {
			"linkReferences": {},
			"object": "608060405234801561001057600080fd5b50610b2e806100206000396000f3fe608060405234801561001057600080fd5b506004361061004c5760003560e01c8063455f5024146100515780639507d39a1461006d578063b6a46b3b1461009e578063cd111614146100ba575b600080fd5b61006b60048036038101906100669190610452565b6100d6565b005b61008760048036038101906100829190610452565b610192565b604051610095929190610533565b60405180910390f35b6100b860048036038101906100b391906105c8565b6102cc565b005b6100d460048036038101906100cf9190610615565b61038f565b005b80600080549050811061011e576040517f08c379a0000000000000000000000000000000000000000000000000000000008152600401610115906106c1565b60405180910390fd5b60008281548110610132576101316106e1565b5b906000526020600020906002020160010160009054906101000a900460ff161560008381548110610166576101656106e1565b5b906000526020600020906002020160010160006101000a81548160ff0219169083151502179055505050565b606060008260008054905081106101de576040517f08c379a00000000000000000000000000000000000000000000000000000000081526004016101d5906106c1565b60405180910390fd5b600084815481106101f2576101f16106e1565b5b906000526020600020906002020160000160008581548110610217576102166106e1565b5b906000526020600020906002020160010160009054906101000a900460ff168180546102429061073f565b80601f016020809104026020016040519081016040528092919081815260200182805461026e9061073f565b80156102bb5780601f10610290576101008083540402835291602001916102bb565b820191906000526020600020905b81548152906001019060200180831161029e57829003601f168201915b505050505091509250925050915091565b6000604051806040016040528084848080601f016020809104026020016040519081016040528093929190818152602001838380828437600081840152601f19601f8201169050808301925050505050505081526020016000151581525090806001815401808255809150506001900390600052602060002090600202016000909190919091506000820151816000019081610368919061094b565b5060208201518160010160006101000a81548160ff02191690831515021790555050505050565b8260008054905081106103d7576040517f08c379a00000000000000000000000000000000000000000000000000000000081526004016103ce906106c1565b60405180910390fd5b8282600086815481106103ed576103ec6106e1565b5b9060005260206000209060020201600001918261040b929190610a28565b5050505050565b600080fd5b600080fd5b6000819050919050565b61042f8161041c565b811461043a57600080fd5b50565b60008135905061044c81610426565b92915050565b60006020828403121561046857610467610412565b5b60006104768482850161043d565b91505092915050565b600081519050919050565b600082825260208201905092915050565b60005b838110156104b957808201518184015260208101905061049e565b838111156104c8576000848401525b50505050565b6000601f19601f8301169050919050565b60006104ea8261047f565b6104f4818561048a565b935061050481856020860161049b565b61050d816104ce565b840191505092915050565b60008115159050919050565b61052d81610518565b82525050565b6000604082019050818103600083015261054d81856104df565b905061055c6020830184610524565b9392505050565b600080fd5b600080fd5b600080fd5b60008083601f84011261058857610587610563565b5b8235905067ffffffffffffffff8111156105a5576105a4610568565b5b6020830191508360018202830111156105c1576105c061056d565b5b9250929050565b600080602083850312156105df576105de610412565b5b600083013567ffffffffffffffff8111156105fd576105fc610417565b5b61060985828601610572565b92509250509250929050565b60008060006040848603121561062e5761062d610412565b5b600061063c8682870161043d565b935050602084013567ffffffffffffffff81111561065d5761065c610417565b5b61066986828701610572565b92509250509250925092565b7f696e64657820746f6f206269672e000000000000000000000000000000000000600082015250565b60006106ab600e8361048a565b91506106b682610675565b602082019050919050565b600060208201905081810360008301526106da8161069e565b9050919050565b7f4e487b7100000000000000000000000000000000000000000000000000000000600052603260045260246000fd5b7f4e487b7100000000000000000000000000000000000000000000000000000000600052602260045260246000fd5b6000600282049050600182168061075757607f821691505b60208210810361076a57610769610710565b5b50919050565b7f4e487b7100000000000000000000000000000000000000000000000000000000600052604160045260246000fd5b60008190508160005260206000209050919050565b60006020601f8301049050919050565b600082821b905092915050565b6000600883026108017fffffffffffffffffffffffffffffffffffffffffffffffffffffffffffffffff826107c4565b61080b86836107c4565b95508019841693508086168417925050509392505050565b6000819050919050565b600061084861084361083e8461041c565b610823565b61041c565b9050919050565b6000819050919050565b6108628361082d565b61087661086e8261084f565b8484546107d1565b825550505050565b600090565b61088b61087e565b610896818484610859565b505050565b5b818110156108ba576108af600082610883565b60018101905061089c565b5050565b601f8211156108ff576108d08161079f565b6108d9846107b4565b810160208510156108e8578190505b6108fc6108f4856107b4565b83018261089b565b50505b505050565b600082821c905092915050565b600061092260001984600802610904565b1980831691505092915050565b600061093b8383610911565b9150826002028217905092915050565b6109548261047f565b67ffffffffffffffff81111561096d5761096c610770565b5b610977825461073f565b6109828282856108be565b600060209050601f8311600181146109b557600084156109a3578287015190505b6109ad858261092f565b865550610a15565b601f1984166109c38661079f565b60005b828110156109eb578489015182556001820191506020850194506020810190506109c6565b86831015610a085784890151610a04601f891682610911565b8355505b6001600288020188555050505b505050505050565b600082905092915050565b610a328383610a1d565b67ffffffffffffffff811115610a4b57610a4a610770565b5b610a55825461073f565b610a608282856108be565b6000601f831160018114610a8f5760008415610a7d578287013590505b610a87858261092f565b865550610aef565b601f198416610a9d8661079f565b60005b82811015610ac557848901358255600182019150602085019450602081019050610aa0565b86831015610ae25784890135610ade601f891682610911565b8355505b6001600288020188555050505b5050505050505056fea2646970667358221220d492bfea1be6b6de69f6596a48537c9869762c4242ec324fb7e749cbc81d3f6f64736f6c634300080f0033",
			"opcodes": "PUSH1 0x80 PUSH1 0x40 MSTORE CALLVALUE DUP1 ISZERO PUSH2 0x10 JUMPI PUSH1 0x0 DUP1 REVERT JUMPDEST POP PUSH2 0xB2E DUP1 PUSH2 0x20 PUSH1 0x0 CODECOPY PUSH1 0x0 RETURN INVALID PUSH1 0x80 PUSH1 0x40 MSTORE CALLVALUE DUP1 ISZERO PUSH2 0x10 JUMPI PUSH1 0x0 DUP1 REVERT JUMPDEST POP PUSH1 0x4 CALLDATASIZE LT PUSH2 0x4C JUMPI PUSH1 0x0 CALLDATALOAD PUSH1 0xE0 SHR DUP1 PUSH4 0x455F5024 EQ PUSH2 0x51 JUMPI DUP1 PUSH4 0x9507D39A EQ PUSH2 0x6D JUMPI DUP1 PUSH4 0xB6A46B3B EQ PUSH2 0x9E JUMPI DUP1 PUSH4 0xCD111614 EQ PUSH2 0xBA JUMPI JUMPDEST PUSH1 0x0 DUP1 REVERT JUMPDEST PUSH2 0x6B PUSH1 0x4 DUP1 CALLDATASIZE SUB DUP2 ADD SWAP1 PUSH2 0x66 SWAP2 SWAP1 PUSH2 0x452 JUMP JUMPDEST PUSH2 0xD6 JUMP JUMPDEST STOP JUMPDEST PUSH2 0x87 PUSH1 0x4 DUP1 CALLDATASIZE SUB DUP2 ADD SWAP1 PUSH2 0x82 SWAP2 SWAP1 PUSH2 0x452 JUMP JUMPDEST PUSH2 0x192 JUMP JUMPDEST PUSH1 0x40 MLOAD PUSH2 0x95 SWAP3 SWAP2 SWAP1 PUSH2 0x533 JUMP JUMPDEST PUSH1 0x40 MLOAD DUP1 SWAP2 SUB SWAP1 RETURN JUMPDEST PUSH2 0xB8 PUSH1 0x4 DUP1 CALLDATASIZE SUB DUP2 ADD SWAP1 PUSH2 0xB3 SWAP2 SWAP1 PUSH2 0x5C8 JUMP JUMPDEST PUSH2 0x2CC JUMP JUMPDEST STOP JUMPDEST PUSH2 0xD4 PUSH1 0x4 DUP1 CALLDATASIZE SUB DUP2 ADD SWAP1 PUSH2 0xCF SWAP2 SWAP1 PUSH2 0x615 JUMP JUMPDEST PUSH2 0x38F JUMP JUMPDEST STOP JUMPDEST DUP1 PUSH1 0x0 DUP1 SLOAD SWAP1 POP DUP2 LT PUSH2 0x11E JUMPI PUSH1 0x40 MLOAD PUSH32 0x8C379A000000000000000000000000000000000000000000000000000000000 DUP2 MSTORE PUSH1 0x4 ADD PUSH2 0x115 SWAP1 PUSH2 0x6C1 JUMP JUMPDEST PUSH1 0x40 MLOAD DUP1 SWAP2 SUB SWAP1 REVERT JUMPDEST PUSH1 0x0 DUP3 DUP2 SLOAD DUP2 LT PUSH2 0x132 JUMPI PUSH2 0x131 PUSH2 0x6E1 JUMP JUMPDEST JUMPDEST SWAP1 PUSH1 0x0 MSTORE PUSH1 0x20 PUSH1 0x0 KECCAK256 SWAP1 PUSH1 0x2 MUL ADD PUSH1 0x1 ADD PUSH1 0x0 SWAP1 SLOAD SWAP1 PUSH2 0x100 EXP SWAP1 DIV PUSH1 0xFF AND ISZERO PUSH1 0x0 DUP4 DUP2 SLOAD DUP2 LT PUSH2 0x166 JUMPI PUSH2 0x165 PUSH2 0x6E1 JUMP JUMPDEST JUMPDEST SWAP1 PUSH1 0x0 MSTORE PUSH1 0x20 PUSH1 0x0 KECCAK256 SWAP1 PUSH1 0x2 MUL ADD PUSH1 0x1 ADD PUSH1 0x0 PUSH2 0x100 EXP DUP2 SLOAD DUP2 PUSH1 0xFF MUL NOT AND SWAP1 DUP4 ISZERO ISZERO MUL OR SWAP1 SSTORE POP POP POP JUMP JUMPDEST PUSH1 0x60 PUSH1 0x0 DUP3 PUSH1 0x0 DUP1 SLOAD SWAP1 POP DUP2 LT PUSH2 0x1DE JUMPI PUSH1 0x40 MLOAD PUSH32 0x8C379A000000000000000000000000000000000000000000000000000000000 DUP2 MSTORE PUSH1 0x4 ADD PUSH2 0x1D5 SWAP1 PUSH2 0x6C1 JUMP JUMPDEST PUSH1 0x40 MLOAD DUP1 SWAP2 SUB SWAP1 REVERT JUMPDEST PUSH1 0x0 DUP5 DUP2 SLOAD DUP2 LT PUSH2 0x1F2 JUMPI PUSH2 0x1F1 PUSH2 0x6E1 JUMP JUMPDEST JUMPDEST SWAP1 PUSH1 0x0 MSTORE PUSH1 0x20 PUSH1 0x0 KECCAK256 SWAP1 PUSH1 0x2 MUL ADD PUSH1 0x0 ADD PUSH1 0x0 DUP6 DUP2 SLOAD DUP2 LT PUSH2 0x217 JUMPI PUSH2 0x216 PUSH2 0x6E1 JUMP JUMPDEST JUMPDEST SWAP1 PUSH1 0x0 MSTORE PUSH1 0x20 PUSH1 0x0 KECCAK256 SWAP1 PUSH1 0x2 MUL ADD PUSH1 0x1 ADD PUSH1 0x0 SWAP1 SLOAD SWAP1 PUSH2 0x100 EXP SWAP1 DIV PUSH1 0xFF AND DUP2 DUP1 SLOAD PUSH2 0x242 SWAP1 PUSH2 0x73F JUMP JUMPDEST DUP1 PUSH1 0x1F ADD PUSH1 0x20 DUP1 SWAP2 DIV MUL PUSH1 0x20 ADD PUSH1 0x40 MLOAD SWAP1 DUP2 ADD PUSH1 0x40 MSTORE DUP1 SWAP3 SWAP2 SWAP1 DUP2 DUP2 MSTORE PUSH1 0x20 ADD DUP3 DUP1 SLOAD PUSH2 0x26E SWAP1 PUSH2 0x73F JUMP JUMPDEST DUP1 ISZERO PUSH2 0x2BB JUMPI DUP1 PUSH1 0x1F LT PUSH2 0x290 JUMPI PUSH2 0x100 DUP1 DUP4 SLOAD DIV MUL DUP4 MSTORE SWAP2 PUSH1 0x20 ADD SWAP2 PUSH2 0x2BB JUMP JUMPDEST DUP3 ADD SWAP2 SWAP1 PUSH1 0x0 MSTORE PUSH1 0x20 PUSH1 0x0 KECCAK256 SWAP1 JUMPDEST DUP2 SLOAD DUP2 MSTORE SWAP1 PUSH1 0x1 ADD SWAP1 PUSH1 0x20 ADD DUP1 DUP4 GT PUSH2 0x29E JUMPI DUP3 SWAP1 SUB PUSH1 0x1F AND DUP3 ADD SWAP2 JUMPDEST POP POP POP POP POP SWAP2 POP SWAP3 POP SWAP3 POP POP SWAP2 POP SWAP2 JUMP JUMPDEST PUSH1 0x0 PUSH1 0x40 MLOAD DUP1 PUSH1 0x40 ADD PUSH1 0x40 MSTORE DUP1 DUP5 DUP5 DUP1 DUP1 PUSH1 0x1F ADD PUSH1 0x20 DUP1 SWAP2 DIV MUL PUSH1 0x20 ADD PUSH1 0x40 MLOAD SWAP1 DUP2 ADD PUSH1 0x40 MSTORE DUP1 SWAP4 SWAP3 SWAP2 SWAP1 DUP2 DUP2 MSTORE PUSH1 0x20 ADD DUP4 DUP4 DUP1 DUP3 DUP5 CALLDATACOPY PUSH1 0x0 DUP2 DUP5 ADD MSTORE PUSH1 0x1F NOT PUSH1 0x1F DUP3 ADD AND SWAP1 POP DUP1 DUP4 ADD SWAP3 POP POP POP POP POP POP POP DUP2 MSTORE PUSH1 0x20 ADD PUSH1 0x0 ISZERO ISZERO DUP2 MSTORE POP SWAP1 DUP1 PUSH1 0x1 DUP2 SLOAD ADD DUP1 DUP3 SSTORE DUP1 SWAP2 POP POP PUSH1 0x1 SWAP1 SUB SWAP1 PUSH1 0x0 MSTORE PUSH1 0x20 PUSH1 0x0 KECCAK256 SWAP1 PUSH1 0x2 MUL ADD PUSH1 0x0 SWAP1 SWAP2 SWAP1 SWAP2 SWAP1 SWAP2 POP PUSH1 0x0 DUP3 ADD MLOAD DUP2 PUSH1 0x0 ADD SWAP1 DUP2 PUSH2 0x368 SWAP2 SWAP1 PUSH2 0x94B JUMP JUMPDEST POP PUSH1 0x20 DUP3 ADD MLOAD DUP2 PUSH1 0x1 ADD PUSH1 0x0 PUSH2 0x100 EXP DUP2 SLOAD DUP2 PUSH1 0xFF MUL NOT AND SWAP1 DUP4 ISZERO ISZERO MUL OR SWAP1 SSTORE POP POP POP POP POP JUMP JUMPDEST DUP3 PUSH1 0x0 DUP1 SLOAD SWAP1 POP DUP2 LT PUSH2 0x3D7 JUMPI PUSH1 0x40 MLOAD PUSH32 0x8C379A000000000000000000000000000000000000000000000000000000000 DUP2 MSTORE PUSH1 0x4 ADD PUSH2 0x3CE SWAP1 PUSH2 0x6C1 JUMP JUMPDEST PUSH1 0x40 MLOAD DUP1 SWAP2 SUB SWAP1 REVERT JUMPDEST DUP3 DUP3 PUSH1 0x0 DUP7 DUP2 SLOAD DUP2 LT PUSH2 0x3ED JUMPI PUSH2 0x3EC PUSH2 0x6E1 JUMP JUMPDEST JUMPDEST SWAP1 PUSH1 0x0 MSTORE PUSH1 0x20 PUSH1 0x0 KECCAK256 SWAP1 PUSH1 0x2 MUL ADD PUSH1 0x0 ADD SWAP2 DUP3 PUSH2 0x40B SWAP3 SWAP2 SWAP1 PUSH2 0xA28 JUMP JUMPDEST POP POP POP POP POP JUMP JUMPDEST PUSH1 0x0 DUP1 REVERT JUMPDEST PUSH1 0x0 DUP1 REVERT JUMPDEST PUSH1 0x0 DUP2 SWAP1 POP SWAP2 SWAP1 POP JUMP JUMPDEST PUSH2 0x42F DUP2 PUSH2 0x41C JUMP JUMPDEST DUP2 EQ PUSH2 0x43A JUMPI PUSH1 0x0 DUP1 REVERT JUMPDEST POP JUMP JUMPDEST PUSH1 0x0 DUP2 CALLDATALOAD SWAP1 POP PUSH2 0x44C DUP2 PUSH2 0x426 JUMP JUMPDEST SWAP3 SWAP2 POP POP JUMP JUMPDEST PUSH1 0x0 PUSH1 0x20 DUP3 DUP5 SUB SLT ISZERO PUSH2 0x468 JUMPI PUSH2 0x467 PUSH2 0x412 JUMP JUMPDEST JUMPDEST PUSH1 0x0 PUSH2 0x476 DUP5 DUP3 DUP6 ADD PUSH2 0x43D JUMP JUMPDEST SWAP2 POP POP SWAP3 SWAP2 POP POP JUMP JUMPDEST PUSH1 0x0 DUP2 MLOAD SWAP1 POP SWAP2 SWAP1 POP JUMP JUMPDEST PUSH1 0x0 DUP3 DUP3 MSTORE PUSH1 0x20 DUP3 ADD SWAP1 POP SWAP3 SWAP2 POP POP JUMP JUMPDEST PUSH1 0x0 JUMPDEST DUP4 DUP2 LT ISZERO PUSH2 0x4B9 JUMPI DUP1 DUP3 ADD MLOAD DUP2 DUP5 ADD MSTORE PUSH1 0x20 DUP2 ADD SWAP1 POP PUSH2 0x49E JUMP JUMPDEST DUP4 DUP2 GT ISZERO PUSH2 0x4C8 JUMPI PUSH1 0x0 DUP5 DUP5 ADD MSTORE JUMPDEST POP POP POP POP JUMP JUMPDEST PUSH1 0x0 PUSH1 0x1F NOT PUSH1 0x1F DUP4 ADD AND SWAP1 POP SWAP2 SWAP1 POP JUMP JUMPDEST PUSH1 0x0 PUSH2 0x4EA DUP3 PUSH2 0x47F JUMP JUMPDEST PUSH2 0x4F4 DUP2 DUP6 PUSH2 0x48A JUMP JUMPDEST SWAP4 POP PUSH2 0x504 DUP2 DUP6 PUSH1 0x20 DUP7 ADD PUSH2 0x49B JUMP JUMPDEST PUSH2 0x50D DUP2 PUSH2 0x4CE JUMP JUMPDEST DUP5 ADD SWAP2 POP POP SWAP3 SWAP2 POP POP JUMP JUMPDEST PUSH1 0x0 DUP2 ISZERO ISZERO SWAP1 POP SWAP2 SWAP1 POP JUMP JUMPDEST PUSH2 0x52D DUP2 PUSH2 0x518 JUMP JUMPDEST DUP3 MSTORE POP POP JUMP JUMPDEST PUSH1 0x0 PUSH1 0x40 DUP3 ADD SWAP1 POP DUP2 DUP2 SUB PUSH1 0x0 DUP4 ADD MSTORE PUSH2 0x54D DUP2 DUP6 PUSH2 0x4DF JUMP JUMPDEST SWAP1 POP PUSH2 0x55C PUSH1 0x20 DUP4 ADD DUP5 PUSH2 0x524 JUMP JUMPDEST SWAP4 SWAP3 POP POP POP JUMP JUMPDEST PUSH1 0x0 DUP1 REVERT JUMPDEST PUSH1 0x0 DUP1 REVERT JUMPDEST PUSH1 0x0 DUP1 REVERT JUMPDEST PUSH1 0x0 DUP1 DUP4 PUSH1 0x1F DUP5 ADD SLT PUSH2 0x588 JUMPI PUSH2 0x587 PUSH2 0x563 JUMP JUMPDEST JUMPDEST DUP3 CALLDATALOAD SWAP1 POP PUSH8 0xFFFFFFFFFFFFFFFF DUP2 GT ISZERO PUSH2 0x5A5 JUMPI PUSH2 0x5A4 PUSH2 0x568 JUMP JUMPDEST JUMPDEST PUSH1 0x20 DUP4 ADD SWAP2 POP DUP4 PUSH1 0x1 DUP3 MUL DUP4 ADD GT ISZERO PUSH2 0x5C1 JUMPI PUSH2 0x5C0 PUSH2 0x56D JUMP JUMPDEST JUMPDEST SWAP3 POP SWAP3 SWAP1 POP JUMP JUMPDEST PUSH1 0x0 DUP1 PUSH1 0x20 DUP4 DUP6 SUB SLT ISZERO PUSH2 0x5DF JUMPI PUSH2 0x5DE PUSH2 0x412 JUMP JUMPDEST JUMPDEST PUSH1 0x0 DUP4 ADD CALLDATALOAD PUSH8 0xFFFFFFFFFFFFFFFF DUP2 GT ISZERO PUSH2 0x5FD JUMPI PUSH2 0x5FC PUSH2 0x417 JUMP JUMPDEST JUMPDEST PUSH2 0x609 DUP6 DUP3 DUP7 ADD PUSH2 0x572 JUMP JUMPDEST SWAP3 POP SWAP3 POP POP SWAP3 POP SWAP3 SWAP1 POP JUMP JUMPDEST PUSH1 0x0 DUP1 PUSH1 0x0 PUSH1 0x40 DUP5 DUP7 SUB SLT ISZERO PUSH2 0x62E JUMPI PUSH2 0x62D PUSH2 0x412 JUMP JUMPDEST JUMPDEST PUSH1 0x0 PUSH2 0x63C DUP7 DUP3 DUP8 ADD PUSH2 0x43D JUMP JUMPDEST SWAP4 POP POP PUSH1 0x20 DUP5 ADD CALLDATALOAD PUSH8 0xFFFFFFFFFFFFFFFF DUP2 GT ISZERO PUSH2 0x65D JUMPI PUSH2 0x65C PUSH2 0x417 JUMP JUMPDEST JUMPDEST PUSH2 0x669 DUP7 DUP3 DUP8 ADD PUSH2 0x572 JUMP JUMPDEST SWAP3 POP SWAP3 POP POP SWAP3 POP SWAP3 POP SWAP3 JUMP JUMPDEST PUSH32 0x696E64657820746F6F206269672E000000000000000000000000000000000000 PUSH1 0x0 DUP3 ADD MSTORE POP JUMP JUMPDEST PUSH1 0x0 PUSH2 0x6AB PUSH1 0xE DUP4 PUSH2 0x48A JUMP JUMPDEST SWAP2 POP PUSH2 0x6B6 DUP3 PUSH2 0x675 JUMP JUMPDEST PUSH1 0x20 DUP3 ADD SWAP1 POP SWAP2 SWAP1 POP JUMP JUMPDEST PUSH1 0x0 PUSH1 0x20 DUP3 ADD SWAP1 POP DUP2 DUP2 SUB PUSH1 0x0 DUP4 ADD MSTORE PUSH2 0x6DA DUP2 PUSH2 0x69E JUMP JUMPDEST SWAP1 POP SWAP2 SWAP1 POP JUMP JUMPDEST PUSH32 0x4E487B7100000000000000000000000000000000000000000000000000000000 PUSH1 0x0 MSTORE PUSH1 0x32 PUSH1 0x4 MSTORE PUSH1 0x24 PUSH1 0x0 REVERT JUMPDEST PUSH32 0x4E487B7100000000000000000000000000000000000000000000000000000000 PUSH1 0x0 MSTORE PUSH1 0x22 PUSH1 0x4 MSTORE PUSH1 0x24 PUSH1 0x0 REVERT JUMPDEST PUSH1 0x0 PUSH1 0x2 DUP3 DIV SWAP1 POP PUSH1 0x1 DUP3 AND DUP1 PUSH2 0x757 JUMPI PUSH1 0x7F DUP3 AND SWAP2 POP JUMPDEST PUSH1 0x20 DUP3 LT DUP2 SUB PUSH2 0x76A JUMPI PUSH2 0x769 PUSH2 0x710 JUMP JUMPDEST JUMPDEST POP SWAP2 SWAP1 POP JUMP JUMPDEST PUSH32 0x4E487B7100000000000000000000000000000000000000000000000000000000 PUSH1 0x0 MSTORE PUSH1 0x41 PUSH1 0x4 MSTORE PUSH1 0x24 PUSH1 0x0 REVERT JUMPDEST PUSH1 0x0 DUP2 SWAP1 POP DUP2 PUSH1 0x0 MSTORE PUSH1 0x20 PUSH1 0x0 KECCAK256 SWAP1 POP SWAP2 SWAP1 POP JUMP JUMPDEST PUSH1 0x0 PUSH1 0x20 PUSH1 0x1F DUP4 ADD DIV SWAP1 POP SWAP2 SWAP1 POP JUMP JUMPDEST PUSH1 0x0 DUP3 DUP3 SHL SWAP1 POP SWAP3 SWAP2 POP POP JUMP JUMPDEST PUSH1 0x0 PUSH1 0x8 DUP4 MUL PUSH2 0x801 PUSH32 0xFFFFFFFFFFFFFFFFFFFFFFFFFFFFFFFFFFFFFFFFFFFFFFFFFFFFFFFFFFFFFFFF DUP3 PUSH2 0x7C4 JUMP JUMPDEST PUSH2 0x80B DUP7 DUP4 PUSH2 0x7C4 JUMP JUMPDEST SWAP6 POP DUP1 NOT DUP5 AND SWAP4 POP DUP1 DUP7 AND DUP5 OR SWAP3 POP POP POP SWAP4 SWAP3 POP POP POP JUMP JUMPDEST PUSH1 0x0 DUP2 SWAP1 POP SWAP2 SWAP1 POP JUMP JUMPDEST PUSH1 0x0 PUSH2 0x848 PUSH2 0x843 PUSH2 0x83E DUP5 PUSH2 0x41C JUMP JUMPDEST PUSH2 0x823 JUMP JUMPDEST PUSH2 0x41C JUMP JUMPDEST SWAP1 POP SWAP2 SWAP1 POP JUMP JUMPDEST PUSH1 0x0 DUP2 SWAP1 POP SWAP2 SWAP1 POP JUMP JUMPDEST PUSH2 0x862 DUP4 PUSH2 0x82D JUMP JUMPDEST PUSH2 0x876 PUSH2 0x86E DUP3 PUSH2 0x84F JUMP JUMPDEST DUP5 DUP5 SLOAD PUSH2 0x7D1 JUMP JUMPDEST DUP3 SSTORE POP POP POP POP JUMP JUMPDEST PUSH1 0x0 SWAP1 JUMP JUMPDEST PUSH2 0x88B PUSH2 0x87E JUMP JUMPDEST PUSH2 0x896 DUP2 DUP5 DUP5 PUSH2 0x859 JUMP JUMPDEST POP POP POP JUMP JUMPDEST JUMPDEST DUP2 DUP2 LT ISZERO PUSH2 0x8BA JUMPI PUSH2 0x8AF PUSH1 0x0 DUP3 PUSH2 0x883 JUMP JUMPDEST PUSH1 0x1 DUP2 ADD SWAP1 POP PUSH2 0x89C JUMP JUMPDEST POP POP JUMP JUMPDEST PUSH1 0x1F DUP3 GT ISZERO PUSH2 0x8FF JUMPI PUSH2 0x8D0 DUP2 PUSH2 0x79F JUMP JUMPDEST PUSH2 0x8D9 DUP5 PUSH2 0x7B4 JUMP JUMPDEST DUP2 ADD PUSH1 0x20 DUP6 LT ISZERO PUSH2 0x8E8 JUMPI DUP2 SWAP1 POP JUMPDEST PUSH2 0x8FC PUSH2 0x8F4 DUP6 PUSH2 0x7B4 JUMP JUMPDEST DUP4 ADD DUP3 PUSH2 0x89B JUMP JUMPDEST POP POP JUMPDEST POP POP POP JUMP JUMPDEST PUSH1 0x0 DUP3 DUP3 SHR SWAP1 POP SWAP3 SWAP2 POP POP JUMP JUMPDEST PUSH1 0x0 PUSH2 0x922 PUSH1 0x0 NOT DUP5 PUSH1 0x8 MUL PUSH2 0x904 JUMP JUMPDEST NOT DUP1 DUP4 AND SWAP2 POP POP SWAP3 SWAP2 POP POP JUMP JUMPDEST PUSH1 0x0 PUSH2 0x93B DUP4 DUP4 PUSH2 0x911 JUMP JUMPDEST SWAP2 POP DUP3 PUSH1 0x2 MUL DUP3 OR SWAP1 POP SWAP3 SWAP2 POP POP JUMP JUMPDEST PUSH2 0x954 DUP3 PUSH2 0x47F JUMP JUMPDEST PUSH8 0xFFFFFFFFFFFFFFFF DUP2 GT ISZERO PUSH2 0x96D JUMPI PUSH2 0x96C PUSH2 0x770 JUMP JUMPDEST JUMPDEST PUSH2 0x977 DUP3 SLOAD PUSH2 0x73F JUMP JUMPDEST PUSH2 0x982 DUP3 DUP3 DUP6 PUSH2 0x8BE JUMP JUMPDEST PUSH1 0x0 PUSH1 0x20 SWAP1 POP PUSH1 0x1F DUP4 GT PUSH1 0x1 DUP2 EQ PUSH2 0x9B5 JUMPI PUSH1 0x0 DUP5 ISZERO PUSH2 0x9A3 JUMPI DUP3 DUP8 ADD MLOAD SWAP1 POP JUMPDEST PUSH2 0x9AD DUP6 DUP3 PUSH2 0x92F JUMP JUMPDEST DUP7 SSTORE POP PUSH2 0xA15 JUMP JUMPDEST PUSH1 0x1F NOT DUP5 AND PUSH2 0x9C3 DUP7 PUSH2 0x79F JUMP JUMPDEST PUSH1 0x0 JUMPDEST DUP3 DUP2 LT ISZERO PUSH2 0x9EB JUMPI DUP5 DUP10 ADD MLOAD DUP3 SSTORE PUSH1 0x1 DUP3 ADD SWAP2 POP PUSH1 0x20 DUP6 ADD SWAP5 POP PUSH1 0x20 DUP2 ADD SWAP1 POP PUSH2 0x9C6 JUMP JUMPDEST DUP7 DUP4 LT ISZERO PUSH2 0xA08 JUMPI DUP5 DUP10 ADD MLOAD PUSH2 0xA04 PUSH1 0x1F DUP10 AND DUP3 PUSH2 0x911 JUMP JUMPDEST DUP4 SSTORE POP JUMPDEST PUSH1 0x1 PUSH1 0x2 DUP9 MUL ADD DUP9 SSTORE POP POP POP JUMPDEST POP POP POP POP POP POP JUMP JUMPDEST PUSH1 0x0 DUP3 SWAP1 POP SWAP3 SWAP2 POP POP JUMP JUMPDEST PUSH2 0xA32 DUP4 DUP4 PUSH2 0xA1D JUMP JUMPDEST PUSH8 0xFFFFFFFFFFFFFFFF DUP2 GT ISZERO PUSH2 0xA4B JUMPI PUSH2 0xA4A PUSH2 0x770 JUMP JUMPDEST JUMPDEST PUSH2 0xA55 DUP3 SLOAD PUSH2 0x73F JUMP JUMPDEST PUSH2 0xA60 DUP3 DUP3 DUP6 PUSH2 0x8BE JUMP JUMPDEST PUSH1 0x0 PUSH1 0x1F DUP4 GT PUSH1 0x1 DUP2 EQ PUSH2 0xA8F JUMPI PUSH1 0x0 DUP5 ISZERO PUSH2 0xA7D JUMPI DUP3 DUP8 ADD CALLDATALOAD SWAP1 POP JUMPDEST PUSH2 0xA87 DUP6 DUP3 PUSH2 0x92F JUMP JUMPDEST DUP7 SSTORE POP PUSH2 0xAEF JUMP JUMPDEST PUSH1 0x1F NOT DUP5 AND PUSH2 0xA9D DUP7 PUSH2 0x79F JUMP JUMPDEST PUSH1 0x0 JUMPDEST DUP3 DUP2 LT ISZERO PUSH2 0xAC5 JUMPI DUP5 DUP10 ADD CALLDATALOAD DUP3 SSTORE PUSH1 0x1 DUP3 ADD SWAP2 POP PUSH1 0x20 DUP6 ADD SWAP5 POP PUSH1 0x20 DUP2 ADD SWAP1 POP PUSH2 0xAA0 JUMP JUMPDEST DUP7 DUP4 LT ISZERO PUSH2 0xAE2 JUMPI DUP5 DUP10 ADD CALLDATALOAD PUSH2 0xADE PUSH1 0x1F DUP10 AND DUP3 PUSH2 0x911 JUMP JUMPDEST DUP4 SSTORE POP JUMPDEST PUSH1 0x1 PUSH1 0x2 DUP9 MUL ADD DUP9 SSTORE POP POP POP JUMPDEST POP POP POP POP POP POP POP JUMP INVALID LOG2 PUSH5 0x6970667358 0x22 SLT KECCAK256 0xD4 SWAP3 0xBF 0xEA SHL 0xE6 0xB6 0xDE PUSH10 0xF6596A48537C9869762C TIMESTAMP TIMESTAMP 0xEC ORIGIN 0x4F 0xB7 0xE7 0x49 0xCB 0xC8 SAR EXTCODEHASH PUSH16 0x64736F6C634300080F00330000000000 "
		},
		"gasEstimates": {
			"creation": {
				"codeDepositCost": "572400",
				"executionCost": "606",
				"totalCost": "573006"
			},
			"external": {
				"create(string)": "infinite",
				"get(uint256)": "infinite",
				"toggleCompleted(uint256)": "33320",
				"updateText(uint256,string)": "infinite"
			}
		},
		"methodIdentifiers": {
			"create(string)": "b6a46b3b",
			"get(uint256)": "9507d39a",
			"toggleCompleted(uint256)": "455f5024",
			"updateText(uint256,string)": "cd111614"
		}
	},
	"abi": [
		{
			"inputs": [
				{
					"internalType": "string",
					"name": "_text",
					"type": "string"
				}
			],
			"name": "create",
			"outputs": [],
			"stateMutability": "nonpayable",
			"type": "function"
		},
		{
			"inputs": [
				{
					"internalType": "uint256",
					"name": "_index",
					"type": "uint256"
				}
			],
			"name": "get",
			"outputs": [
				{
					"internalType": "string",
					"name": "text",
					"type": "string"
				},
				{
					"internalType": "bool",
					"name": "completed",
					"type": "bool"
				}
			],
			"stateMutability": "view",
			"type": "function"
		},
		{
			"inputs": [
				{
					"internalType": "uint256",
					"name": "_index",
					"type": "uint256"
				}
			],
			"name": "toggleCompleted",
			"outputs": [],
			"stateMutability": "nonpayable",
			"type": "function"
		},
		{
			"inputs": [
				{
					"internalType": "uint256",
					"name": "_index",
					"type": "uint256"
				},
				{
					"internalType": "string",
					"name": "_text",
					"type": "string"
				}
			],
			"name": "updateText",
			"outputs": [],
			"stateMutability": "nonpayable",
			"type": "function"
		}
	]
}