{
	"data": {
		"bytecode": {
			"linkReferences": {},
			"object": "608060405234801561001057600080fd5b50610999806100206000396000f3fe608060405234801561001057600080fd5b506004361061004c5760003560e01c80632f4ea5ea1461005157806397aba7f914610081578063a35f8a40146100b1578063abe5026a146100e1575b600080fd5b61006b60048036038101906100669190610341565b610111565b604051610078919061037d565b60405180910390f35b61009b600480360381019061009691906103fd565b610141565b6040516100a8919061049e565b60405180910390f35b6100cb60048036038101906100c69190610571565b6101f5565b6040516100d8919061037d565b60405180910390f35b6100fb60048036038101906100f691906105f9565b610231565b60405161010891906106e3565b60405180910390f35b6000816040516020016101249190610776565b604051602081830303815290604052805190602001209050919050565b60008060008061019486868080601f016020809104026020016040519081016040528093929190818152602001838380828437600081840152601f19601f82011690508083019250505050505050610299565b925092509250600187828585604051600081526020016040526040516101bd94939291906107b8565b6020604051602081039080840390855afa1580156101df573d6000803e3d6000fd5b5050506020604051035193505050509392505050565b6000858585858560405160200161021095949392919061089a565b60405160208183030381529060405280519060200120905095945050505050565b60008061024189898989896101f5565b9050600061024e82610111565b90508a73ffffffffffffffffffffffffffffffffffffffff16610272828787610141565b73ffffffffffffffffffffffffffffffffffffffff16149250505098975050505050505050565b600080600060418451146102e2576040517f08c379a00000000000000000000000000000000000000000000000000000000081526004016102d990610943565b60405180910390fd5b6020840151925060408401519150606084015160001a90509193909250565b600080fd5b600080fd5b6000819050919050565b61031e8161030b565b811461032957600080fd5b50565b60008135905061033b81610315565b92915050565b60006020828403121561035757610356610301565b5b60006103658482850161032c565b91505092915050565b6103778161030b565b82525050565b6000602082019050610392600083018461036e565b92915050565b600080fd5b600080fd5b600080fd5b60008083601f8401126103bd576103bc610398565b5b8235905067ffffffffffffffff8111156103da576103d961039d565b5b6020830191508360018202830111156103f6576103f56103a2565b5b9250929050565b60008060006040848603121561041657610415610301565b5b60006104248682870161032c565b935050602084013567ffffffffffffffff81111561044557610444610306565b5b610451868287016103a7565b92509250509250925092565b600073ffffffffffffffffffffffffffffffffffffffff82169050919050565b60006104888261045d565b9050919050565b6104988161047d565b82525050565b60006020820190506104b3600083018461048f565b92915050565b6104c28161047d565b81146104cd57600080fd5b50565b6000813590506104df816104b9565b92915050565b6000819050919050565b6104f8816104e5565b811461050357600080fd5b50565b600081359050610515816104ef565b92915050565b60008083601f84011261053157610530610398565b5b8235905067ffffffffffffffff81111561054e5761054d61039d565b5b60208301915083600182028301111561056a576105696103a2565b5b9250929050565b60008060008060006080868803121561058d5761058c610301565b5b600061059b888289016104d0565b95505060206105ac88828901610506565b945050604086013567ffffffffffffffff8111156105cd576105cc610306565b5b6105d98882890161051b565b935093505060606105ec88828901610506565b9150509295509295909350565b60008060008060008060008060c0898b03121561061957610618610301565b5b60006106278b828c016104d0565b98505060206106388b828c016104d0565b97505060406106498b828c01610506565b965050606089013567ffffffffffffffff81111561066a57610669610306565b5b6106768b828c0161051b565b955095505060806106898b828c01610506565b93505060a089013567ffffffffffffffff8111156106aa576106a9610306565b5b6106b68b828c016103a7565b92509250509295985092959890939650565b60008115159050919050565b6106dd816106c8565b82525050565b60006020820190506106f860008301846106d4565b92915050565b600081905092915050565b7f19457468657265756d205369676e6564204d6573736167653a0a333200000000600082015250565b600061073f601c836106fe565b915061074a82610709565b601c82019050919050565b6000819050919050565b61077061076b8261030b565b610755565b82525050565b600061078182610732565b915061078d828461075f565b60208201915081905092915050565b600060ff82169050919050565b6107b28161079c565b82525050565b60006080820190506107cd600083018761036e565b6107da60208301866107a9565b6107e7604083018561036e565b6107f4606083018461036e565b95945050505050565b60008160601b9050919050565b6000610815826107fd565b9050919050565b60006108278261080a565b9050919050565b61083f61083a8261047d565b61081c565b82525050565b6000819050919050565b61086061085b826104e5565b610845565b82525050565b82818337600083830152505050565b600061088183856106fe565b935061088e838584610866565b82840190509392505050565b60006108a6828861082e565b6014820191506108b6828761084f565b6020820191506108c7828587610875565b91506108d3828461084f565b6020820191508190509695505050505050565b600082825260208201905092915050565b7f696e76616c6964207369676e6174757265000000000000000000000000000000600082015250565b600061092d6011836108e6565b9150610938826108f7565b602082019050919050565b6000602082019050818103600083015261095c81610920565b905091905056fea26469706673582212201dcede75c546dec659f57b505858975ec5f281458e80b4cfb0d62ad5a95b8af164736f6c634300080f0033",
			"opcodes": "PUSH1 0x80 PUSH1 0x40 MSTORE CALLVALUE DUP1 ISZERO PUSH2 0x10 JUMPI PUSH1 0x0 DUP1 REVERT JUMPDEST POP PUSH2 0x999 DUP1 PUSH2 0x20 PUSH1 0x0 CODECOPY PUSH1 0x0 RETURN INVALID PUSH1 0x80 PUSH1 0x40 MSTORE CALLVALUE DUP1 ISZERO PUSH2 0x10 JUMPI PUSH1 0x0 DUP1 REVERT JUMPDEST POP PUSH1 0x4 CALLDATASIZE LT PUSH2 0x4C JUMPI PUSH1 0x0 CALLDATALOAD PUSH1 0xE0 SHR DUP1 PUSH4 0x2F4EA5EA EQ PUSH2 0x51 JUMPI DUP1 PUSH4 0x97ABA7F9 EQ PUSH2 0x81 JUMPI DUP1 PUSH4 0xA35F8A40 EQ PUSH2 0xB1 JUMPI DUP1 PUSH4 0xABE5026A EQ PUSH2 0xE1 JUMPI JUMPDEST PUSH1 0x0 DUP1 REVERT JUMPDEST PUSH2 0x6B PUSH1 0x4 DUP1 CALLDATASIZE SUB DUP2 ADD SWAP1 PUSH2 0x66 SWAP2 SWAP1 PUSH2 0x341 JUMP JUMPDEST PUSH2 0x111 JUMP JUMPDEST PUSH1 0x40 MLOAD PUSH2 0x78 SWAP2 SWAP1 PUSH2 0x37D JUMP JUMPDEST PUSH1 0x40 MLOAD DUP1 SWAP2 SUB SWAP1 RETURN JUMPDEST PUSH2 0x9B PUSH1 0x4 DUP1 CALLDATASIZE SUB DUP2 ADD SWAP1 PUSH2 0x96 SWAP2 SWAP1 PUSH2 0x3FD JUMP JUMPDEST PUSH2 0x141 JUMP JUMPDEST PUSH1 0x40 MLOAD PUSH2 0xA8 SWAP2 SWAP1 PUSH2 0x49E JUMP JUMPDEST PUSH1 0x40 MLOAD DUP1 SWAP2 SUB SWAP1 RETURN JUMPDEST PUSH2 0xCB PUSH1 0x4 DUP1 CALLDATASIZE SUB DUP2 ADD SWAP1 PUSH2 0xC6 SWAP2 SWAP1 PUSH2 0x571 JUMP JUMPDEST PUSH2 0x1F5 JUMP JUMPDEST PUSH1 0x40 MLOAD PUSH2 0xD8 SWAP2 SWAP1 PUSH2 0x37D JUMP JUMPDEST PUSH1 0x40 MLOAD DUP1 SWAP2 SUB SWAP1 RETURN JUMPDEST PUSH2 0xFB PUSH1 0x4 DUP1 CALLDATASIZE SUB DUP2 ADD SWAP1 PUSH2 0xF6 SWAP2 SWAP1 PUSH2 0x5F9 JUMP JUMPDEST PUSH2 0x231 JUMP JUMPDEST PUSH1 0x40 MLOAD PUSH2 0x108 SWAP2 SWAP1 PUSH2 0x6E3 JUMP JUMPDEST PUSH1 0x40 MLOAD DUP1 SWAP2 SUB SWAP1 RETURN JUMPDEST PUSH1 0x0 DUP2 PUSH1 0x40 MLOAD PUSH1 0x20 ADD PUSH2 0x124 SWAP2 SWAP1 PUSH2 0x776 JUMP JUMPDEST PUSH1 0x40 MLOAD PUSH1 0x20 DUP2 DUP4 SUB SUB DUP2 MSTORE SWAP1 PUSH1 0x40 MSTORE DUP1 MLOAD SWAP1 PUSH1 0x20 ADD KECCAK256 SWAP1 POP SWAP2 SWAP1 POP JUMP JUMPDEST PUSH1 0x0 DUP1 PUSH1 0x0 DUP1 PUSH2 0x194 DUP7 DUP7 DUP1 DUP1 PUSH1 0x1F ADD PUSH1 0x20 DUP1 SWAP2 DIV MUL PUSH1 0x20 ADD PUSH1 0x40 MLOAD SWAP1 DUP2 ADD PUSH1 0x40 MSTORE DUP1 SWAP4 SWAP3 SWAP2 SWAP1 DUP2 DUP2 MSTORE PUSH1 0x20 ADD DUP4 DUP4 DUP1 DUP3 DUP5 CALLDATACOPY PUSH1 0x0 DUP2 DUP5 ADD MSTORE PUSH1 0x1F NOT PUSH1 0x1F DUP3 ADD AND SWAP1 POP DUP1 DUP4 ADD SWAP3 POP POP POP POP POP POP POP PUSH2 0x299 JUMP JUMPDEST SWAP3 POP SWAP3 POP SWAP3 POP PUSH1 0x1 DUP8 DUP3 DUP6 DUP6 PUSH1 0x40 MLOAD PUSH1 0x0 DUP2 MSTORE PUSH1 0x20 ADD PUSH1 0x40 MSTORE PUSH1 0x40 MLOAD PUSH2 0x1BD SWAP5 SWAP4 SWAP3 SWAP2 SWAP1 PUSH2 0x7B8 JUMP JUMPDEST PUSH1 0x20 PUSH1 0x40 MLOAD PUSH1 0x20 DUP2 SUB SWAP1 DUP1 DUP5 SUB SWAP1 DUP6 GAS STATICCALL ISZERO DUP1 ISZERO PUSH2 0x1DF JUMPI RETURNDATASIZE PUSH1 0x0 DUP1 RETURNDATACOPY RETURNDATASIZE PUSH1 0x0 REVERT JUMPDEST POP POP POP PUSH1 0x20 PUSH1 0x40 MLOAD SUB MLOAD SWAP4 POP POP POP POP SWAP4 SWAP3 POP POP POP JUMP JUMPDEST PUSH1 0x0 DUP6 DUP6 DUP6 DUP6 DUP6 PUSH1 0x40 MLOAD PUSH1 0x20 ADD PUSH2 0x210 SWAP6 SWAP5 SWAP4 SWAP3 SWAP2 SWAP1 PUSH2 0x89A JUMP JUMPDEST PUSH1 0x40 MLOAD PUSH1 0x20 DUP2 DUP4 SUB SUB DUP2 MSTORE SWAP1 PUSH1 0x40 MSTORE DUP1 MLOAD SWAP1 PUSH1 0x20 ADD KECCAK256 SWAP1 POP SWAP6 SWAP5 POP POP POP POP POP JUMP JUMPDEST PUSH1 0x0 DUP1 PUSH2 0x241 DUP10 DUP10 DUP10 DUP10 DUP10 PUSH2 0x1F5 JUMP JUMPDEST SWAP1 POP PUSH1 0x0 PUSH2 0x24E DUP3 PUSH2 0x111 JUMP JUMPDEST SWAP1 POP DUP11 PUSH20 0xFFFFFFFFFFFFFFFFFFFFFFFFFFFFFFFFFFFFFFFF AND PUSH2 0x272 DUP3 DUP8 DUP8 PUSH2 0x141 JUMP JUMPDEST PUSH20 0xFFFFFFFFFFFFFFFFFFFFFFFFFFFFFFFFFFFFFFFF AND EQ SWAP3 POP POP POP SWAP9 SWAP8 POP POP POP POP POP POP POP POP JUMP JUMPDEST PUSH1 0x0 DUP1 PUSH1 0x0 PUSH1 0x41 DUP5 MLOAD EQ PUSH2 0x2E2 JUMPI PUSH1 0x40 MLOAD PUSH32 0x8C379A000000000000000000000000000000000000000000000000000000000 DUP2 MSTORE PUSH1 0x4 ADD PUSH2 0x2D9 SWAP1 PUSH2 0x943 JUMP JUMPDEST PUSH1 0x40 MLOAD DUP1 SWAP2 SUB SWAP1 REVERT JUMPDEST PUSH1 0x20 DUP5 ADD MLOAD SWAP3 POP PUSH1 0x40 DUP5 ADD MLOAD SWAP2 POP PUSH1 0x60 DUP5 ADD MLOAD PUSH1 0x0 BYTE SWAP1 POP SWAP2 SWAP4 SWAP1 SWAP3 POP JUMP JUMPDEST PUSH1 0x0 DUP1 REVERT JUMPDEST PUSH1 0x0 DUP1 REVERT JUMPDEST PUSH1 0x0 DUP2 SWAP1 POP SWAP2 SWAP1 POP JUMP JUMPDEST PUSH2 0x31E DUP2 PUSH2 0x30B JUMP JUMPDEST DUP2 EQ PUSH2 0x329 JUMPI PUSH1 0x0 DUP1 REVERT JUMPDEST POP JUMP JUMPDEST PUSH1 0x0 DUP2 CALLDATALOAD SWAP1 POP PUSH2 0x33B DUP2 PUSH2 0x315 JUMP JUMPDEST SWAP3 SWAP2 POP POP JUMP JUMPDEST PUSH1 0x0 PUSH1 0x20 DUP3 DUP5 SUB SLT ISZERO PUSH2 0x357 JUMPI PUSH2 0x356 PUSH2 0x301 JUMP JUMPDEST JUMPDEST PUSH1 0x0 PUSH2 0x365 DUP5 DUP3 DUP6 ADD PUSH2 0x32C JUMP JUMPDEST SWAP2 POP POP SWAP3 SWAP2 POP POP JUMP JUMPDEST PUSH2 0x377 DUP2 PUSH2 0x30B JUMP JUMPDEST DUP3 MSTORE POP POP JUMP JUMPDEST PUSH1 0x0 PUSH1 0x20 DUP3 ADD SWAP1 POP PUSH2 0x392 PUSH1 0x0 DUP4 ADD DUP5 PUSH2 0x36E JUMP JUMPDEST SWAP3 SWAP2 POP POP JUMP JUMPDEST PUSH1 0x0 DUP1 REVERT JUMPDEST PUSH1 0x0 DUP1 REVERT JUMPDEST PUSH1 0x0 DUP1 REVERT JUMPDEST PUSH1 0x0 DUP1 DUP4 PUSH1 0x1F DUP5 ADD SLT PUSH2 0x3BD JUMPI PUSH2 0x3BC PUSH2 0x398 JUMP JUMPDEST JUMPDEST DUP3 CALLDATALOAD SWAP1 POP PUSH8 0xFFFFFFFFFFFFFFFF DUP2 GT ISZERO PUSH2 0x3DA JUMPI PUSH2 0x3D9 PUSH2 0x39D JUMP JUMPDEST JUMPDEST PUSH1 0x20 DUP4 ADD SWAP2 POP DUP4 PUSH1 0x1 DUP3 MUL DUP4 ADD GT ISZERO PUSH2 0x3F6 JUMPI PUSH2 0x3F5 PUSH2 0x3A2 JUMP JUMPDEST JUMPDEST SWAP3 POP SWAP3 SWAP1 POP JUMP JUMPDEST PUSH1 0x0 DUP1 PUSH1 0x0 PUSH1 0x40 DUP5 DUP7 SUB SLT ISZERO PUSH2 0x416 JUMPI PUSH2 0x415 PUSH2 0x301 JUMP JUMPDEST JUMPDEST PUSH1 0x0 PUSH2 0x424 DUP7 DUP3 DUP8 ADD PUSH2 0x32C JUMP JUMPDEST SWAP4 POP POP PUSH1 0x20 DUP5 ADD CALLDATALOAD PUSH8 0xFFFFFFFFFFFFFFFF DUP2 GT ISZERO PUSH2 0x445 JUMPI PUSH2 0x444 PUSH2 0x306 JUMP JUMPDEST JUMPDEST PUSH2 0x451 DUP7 DUP3 DUP8 ADD PUSH2 0x3A7 JUMP JUMPDEST SWAP3 POP SWAP3 POP POP SWAP3 POP SWAP3 POP SWAP3 JUMP JUMPDEST PUSH1 0x0 PUSH20 0xFFFFFFFFFFFFFFFFFFFFFFFFFFFFFFFFFFFFFFFF DUP3 AND SWAP1 POP SWAP2 SWAP1 POP JUMP JUMPDEST PUSH1 0x0 PUSH2 0x488 DUP3 PUSH2 0x45D JUMP JUMPDEST SWAP1 POP SWAP2 SWAP1 POP JUMP JUMPDEST PUSH2 0x498 DUP2 PUSH2 0x47D JUMP JUMPDEST DUP3 MSTORE POP POP JUMP JUMPDEST PUSH1 0x0 PUSH1 0x20 DUP3 ADD SWAP1 POP PUSH2 0x4B3 PUSH1 0x0 DUP4 ADD DUP5 PUSH2 0x48F JUMP JUMPDEST SWAP3 SWAP2 POP POP JUMP JUMPDEST PUSH2 0x4C2 DUP2 PUSH2 0x47D JUMP JUMPDEST DUP2 EQ PUSH2 0x4CD JUMPI PUSH1 0x0 DUP1 REVERT JUMPDEST POP JUMP JUMPDEST PUSH1 0x0 DUP2 CALLDATALOAD SWAP1 POP PUSH2 0x4DF DUP2 PUSH2 0x4B9 JUMP JUMPDEST SWAP3 SWAP2 POP POP JUMP JUMPDEST PUSH1 0x0 DUP2 SWAP1 POP SWAP2 SWAP1 POP JUMP JUMPDEST PUSH2 0x4F8 DUP2 PUSH2 0x4E5 JUMP JUMPDEST DUP2 EQ PUSH2 0x503 JUMPI PUSH1 0x0 DUP1 REVERT JUMPDEST POP JUMP JUMPDEST PUSH1 0x0 DUP2 CALLDATALOAD SWAP1 POP PUSH2 0x515 DUP2 PUSH2 0x4EF JUMP JUMPDEST SWAP3 SWAP2 POP POP JUMP JUMPDEST PUSH1 0x0 DUP1 DUP4 PUSH1 0x1F DUP5 ADD SLT PUSH2 0x531 JUMPI PUSH2 0x530 PUSH2 0x398 JUMP JUMPDEST JUMPDEST DUP3 CALLDATALOAD SWAP1 POP PUSH8 0xFFFFFFFFFFFFFFFF DUP2 GT ISZERO PUSH2 0x54E JUMPI PUSH2 0x54D PUSH2 0x39D JUMP JUMPDEST JUMPDEST PUSH1 0x20 DUP4 ADD SWAP2 POP DUP4 PUSH1 0x1 DUP3 MUL DUP4 ADD GT ISZERO PUSH2 0x56A JUMPI PUSH2 0x569 PUSH2 0x3A2 JUMP JUMPDEST JUMPDEST SWAP3 POP SWAP3 SWAP1 POP JUMP JUMPDEST PUSH1 0x0 DUP1 PUSH1 0x0 DUP1 PUSH1 0x0 PUSH1 0x80 DUP7 DUP9 SUB SLT ISZERO PUSH2 0x58D JUMPI PUSH2 0x58C PUSH2 0x301 JUMP JUMPDEST JUMPDEST PUSH1 0x0 PUSH2 0x59B DUP9 DUP3 DUP10 ADD PUSH2 0x4D0 JUMP JUMPDEST SWAP6 POP POP PUSH1 0x20 PUSH2 0x5AC DUP9 DUP3 DUP10 ADD PUSH2 0x506 JUMP JUMPDEST SWAP5 POP POP PUSH1 0x40 DUP7 ADD CALLDATALOAD PUSH8 0xFFFFFFFFFFFFFFFF DUP2 GT ISZERO PUSH2 0x5CD JUMPI PUSH2 0x5CC PUSH2 0x306 JUMP JUMPDEST JUMPDEST PUSH2 0x5D9 DUP9 DUP3 DUP10 ADD PUSH2 0x51B JUMP JUMPDEST SWAP4 POP SWAP4 POP POP PUSH1 0x60 PUSH2 0x5EC DUP9 DUP3 DUP10 ADD PUSH2 0x506 JUMP JUMPDEST SWAP2 POP POP SWAP3 SWAP6 POP SWAP3 SWAP6 SWAP1 SWAP4 POP JUMP JUMPDEST PUSH1 0x0 DUP1 PUSH1 0x0 DUP1 PUSH1 0x0 DUP1 PUSH1 0x0 DUP1 PUSH1 0xC0 DUP10 DUP12 SUB SLT ISZERO PUSH2 0x619 JUMPI PUSH2 0x618 PUSH2 0x301 JUMP JUMPDEST JUMPDEST PUSH1 0x0 PUSH2 0x627 DUP12 DUP3 DUP13 ADD PUSH2 0x4D0 JUMP JUMPDEST SWAP9 POP POP PUSH1 0x20 PUSH2 0x638 DUP12 DUP3 DUP13 ADD PUSH2 0x4D0 JUMP JUMPDEST SWAP8 POP POP PUSH1 0x40 PUSH2 0x649 DUP12 DUP3 DUP13 ADD PUSH2 0x506 JUMP JUMPDEST SWAP7 POP POP PUSH1 0x60 DUP10 ADD CALLDATALOAD PUSH8 0xFFFFFFFFFFFFFFFF DUP2 GT ISZERO PUSH2 0x66A JUMPI PUSH2 0x669 PUSH2 0x306 JUMP JUMPDEST JUMPDEST PUSH2 0x676 DUP12 DUP3 DUP13 ADD PUSH2 0x51B JUMP JUMPDEST SWAP6 POP SWAP6 POP POP PUSH1 0x80 PUSH2 0x689 DUP12 DUP3 DUP13 ADD PUSH2 0x506 JUMP JUMPDEST SWAP4 POP POP PUSH1 0xA0 DUP10 ADD CALLDATALOAD PUSH8 0xFFFFFFFFFFFFFFFF DUP2 GT ISZERO PUSH2 0x6AA JUMPI PUSH2 0x6A9 PUSH2 0x306 JUMP JUMPDEST JUMPDEST PUSH2 0x6B6 DUP12 DUP3 DUP13 ADD PUSH2 0x3A7 JUMP JUMPDEST SWAP3 POP SWAP3 POP POP SWAP3 SWAP6 SWAP9 POP SWAP3 SWAP6 SWAP9 SWAP1 SWAP4 SWAP7 POP JUMP JUMPDEST PUSH1 0x0 DUP2 ISZERO ISZERO SWAP1 POP SWAP2 SWAP1 POP JUMP JUMPDEST PUSH2 0x6DD DUP2 PUSH2 0x6C8 JUMP JUMPDEST DUP3 MSTORE POP POP JUMP JUMPDEST PUSH1 0x0 PUSH1 0x20 DUP3 ADD SWAP1 POP PUSH2 0x6F8 PUSH1 0x0 DUP4 ADD DUP5 PUSH2 0x6D4 JUMP JUMPDEST SWAP3 SWAP2 POP POP JUMP JUMPDEST PUSH1 0x0 DUP2 SWAP1 POP SWAP3 SWAP2 POP POP JUMP JUMPDEST PUSH32 0x19457468657265756D205369676E6564204D6573736167653A0A333200000000 PUSH1 0x0 DUP3 ADD MSTORE POP JUMP JUMPDEST PUSH1 0x0 PUSH2 0x73F PUSH1 0x1C DUP4 PUSH2 0x6FE JUMP JUMPDEST SWAP2 POP PUSH2 0x74A DUP3 PUSH2 0x709 JUMP JUMPDEST PUSH1 0x1C DUP3 ADD SWAP1 POP SWAP2 SWAP1 POP JUMP JUMPDEST PUSH1 0x0 DUP2 SWAP1 POP SWAP2 SWAP1 POP JUMP JUMPDEST PUSH2 0x770 PUSH2 0x76B DUP3 PUSH2 0x30B JUMP JUMPDEST PUSH2 0x755 JUMP JUMPDEST DUP3 MSTORE POP POP JUMP JUMPDEST PUSH1 0x0 PUSH2 0x781 DUP3 PUSH2 0x732 JUMP JUMPDEST SWAP2 POP PUSH2 0x78D DUP3 DUP5 PUSH2 0x75F JUMP JUMPDEST PUSH1 0x20 DUP3 ADD SWAP2 POP DUP2 SWAP1 POP SWAP3 SWAP2 POP POP JUMP JUMPDEST PUSH1 0x0 PUSH1 0xFF DUP3 AND SWAP1 POP SWAP2 SWAP1 POP JUMP JUMPDEST PUSH2 0x7B2 DUP2 PUSH2 0x79C JUMP JUMPDEST DUP3 MSTORE POP POP JUMP JUMPDEST PUSH1 0x0 PUSH1 0x80 DUP3 ADD SWAP1 POP PUSH2 0x7CD PUSH1 0x0 DUP4 ADD DUP8 PUSH2 0x36E JUMP JUMPDEST PUSH2 0x7DA PUSH1 0x20 DUP4 ADD DUP7 PUSH2 0x7A9 JUMP JUMPDEST PUSH2 0x7E7 PUSH1 0x40 DUP4 ADD DUP6 PUSH2 0x36E JUMP JUMPDEST PUSH2 0x7F4 PUSH1 0x60 DUP4 ADD DUP5 PUSH2 0x36E JUMP JUMPDEST SWAP6 SWAP5 POP POP POP POP POP JUMP JUMPDEST PUSH1 0x0 DUP2 PUSH1 0x60 SHL SWAP1 POP SWAP2 SWAP1 POP JUMP JUMPDEST PUSH1 0x0 PUSH2 0x815 DUP3 PUSH2 0x7FD JUMP JUMPDEST SWAP1 POP SWAP2 SWAP1 POP JUMP JUMPDEST PUSH1 0x0 PUSH2 0x827 DUP3 PUSH2 0x80A JUMP JUMPDEST SWAP1 POP SWAP2 SWAP1 POP JUMP JUMPDEST PUSH2 0x83F PUSH2 0x83A DUP3 PUSH2 0x47D JUMP JUMPDEST PUSH2 0x81C JUMP JUMPDEST DUP3 MSTORE POP POP JUMP JUMPDEST PUSH1 0x0 DUP2 SWAP1 POP SWAP2 SWAP1 POP JUMP JUMPDEST PUSH2 0x860 PUSH2 0x85B DUP3 PUSH2 0x4E5 JUMP JUMPDEST PUSH2 0x845 JUMP JUMPDEST DUP3 MSTORE POP POP JUMP JUMPDEST DUP3 DUP2 DUP4 CALLDATACOPY PUSH1 0x0 DUP4 DUP4 ADD MSTORE POP POP POP JUMP JUMPDEST PUSH1 0x0 PUSH2 0x881 DUP4 DUP6 PUSH2 0x6FE JUMP JUMPDEST SWAP4 POP PUSH2 0x88E DUP4 DUP6 DUP5 PUSH2 0x866 JUMP JUMPDEST DUP3 DUP5 ADD SWAP1 POP SWAP4 SWAP3 POP POP POP JUMP JUMPDEST PUSH1 0x0 PUSH2 0x8A6 DUP3 DUP9 PUSH2 0x82E JUMP JUMPDEST PUSH1 0x14 DUP3 ADD SWAP2 POP PUSH2 0x8B6 DUP3 DUP8 PUSH2 0x84F JUMP JUMPDEST PUSH1 0x20 DUP3 ADD SWAP2 POP PUSH2 0x8C7 DUP3 DUP6 DUP8 PUSH2 0x875 JUMP JUMPDEST SWAP2 POP PUSH2 0x8D3 DUP3 DUP5 PUSH2 0x84F JUMP JUMPDEST PUSH1 0x20 DUP3 ADD SWAP2 POP DUP2 SWAP1 POP SWAP7 SWAP6 POP POP POP POP POP POP JUMP JUMPDEST PUSH1 0x0 DUP3 DUP3 MSTORE PUSH1 0x20 DUP3 ADD SWAP1 POP SWAP3 SWAP2 POP POP JUMP JUMPDEST PUSH32 0x696E76616C6964207369676E6174757265000000000000000000000000000000 PUSH1 0x0 DUP3 ADD MSTORE POP JUMP JUMPDEST PUSH1 0x0 PUSH2 0x92D PUSH1 0x11 DUP4 PUSH2 0x8E6 JUMP JUMPDEST SWAP2 POP PUSH2 0x938 DUP3 PUSH2 0x8F7 JUMP JUMPDEST PUSH1 0x20 DUP3 ADD SWAP1 POP SWAP2 SWAP1 POP JUMP JUMPDEST PUSH1 0x0 PUSH1 0x20 DUP3 ADD SWAP1 POP DUP2 DUP2 SUB PUSH1 0x0 DUP4 ADD MSTORE PUSH2 0x95C DUP2 PUSH2 0x920 JUMP JUMPDEST SWAP1 POP SWAP2 SWAP1 POP JUMP INVALID LOG2 PUSH5 0x6970667358 0x22 SLT KECCAK256 SAR 0xCE 0xDE PUSH22 0xC546DEC659F57B505858975EC5F281458E80B4CFB0D6 0x2A 0xD5 0xA9 JUMPDEST DUP11 CALL PUSH5 0x736F6C6343 STOP ADDMOD 0xF STOP CALLER "
		},
		"gasEstimates": {
			"creation": {
				"codeDepositCost": "491400",
				"executionCost": "524",
				"totalCost": "491924"
			},
			"external": {
				"getEthSignedHash(bytes32)": "infinite",
				"getMessageHash(address,uint256,string,uint256)": "infinite",
				"recoverSigner(bytes32,bytes)": "infinite",
				"verify(address,address,uint256,string,uint256,bytes)": "infinite"
			},
			"internal": {
				"splitSignature(bytes memory)": "infinite"
			}
		},
		"methodIdentifiers": {
			"getEthSignedHash(bytes32)": "2f4ea5ea",
			"getMessageHash(address,uint256,string,uint256)": "a35f8a40",
			"recoverSigner(bytes32,bytes)": "97aba7f9",
			"verify(address,address,uint256,string,uint256,bytes)": "abe5026a"
		}
	},
	"abi": [
		{
			"inputs": [
				{
					"internalType": "bytes32",
					"name": "_hash",
					"type": "bytes32"
				}
			],
			"name": "getEthSignedHash",
			"outputs": [
				{
					"internalType": "bytes32",
					"name": "",
					"type": "bytes32"
				}
			],
			"stateMutability": "pure",
			"type": "function"
		},
		{
			"inputs": [
				{
					"internalType": "address",
					"name": "_to",
					"type": "address"
				},
				{
					"internalType": "uint256",
					"name": "_amount",
					"type": "uint256"
				},
				{
					"internalType": "string",
					"name": "_msg",
					"type": "string"
				},
				{
					"internalType": "uint256",
					"name": "_nonce",
					"type": "uint256"
				}
			],
			"name": "getMessageHash",
			"outputs": [
				{
					"internalType": "bytes32",
					"name": "",
					"type": "bytes32"
				}
			],
			"stateMutability": "pure",
			"type": "function"
		},
		{
			"inputs": [
				{
					"internalType": "bytes32",
					"name": "_ethSignedHash",
					"type": "bytes32"
				},
				{
					"internalType": "bytes",
					"name": "_signature",
					"type": "bytes"
				}
			],
			"name": "recoverSigner",
			"outputs": [
				{
					"internalType": "address",
					"name": "",
					"type": "address"
				}
			],
			"stateMutability": "pure",
			"type": "function"
		},
		{
			"inputs": [
				{
					"internalType": "address",
					"name": "_signer",
					"type": "address"
				},
				{
					"internalType": "address",
					"name": "_to",
					"type": "address"
				},
				{
					"internalType": "uint256",
					"name": "_amount",
					"type": "uint256"
				},
				{
					"internalType": "string",
					"name": "_msg",
					"type": "string"
				},
				{
					"internalType": "uint256",
					"name": "_nonce",
					"type": "uint256"
				},
				{
					"internalType": "bytes",
					"name": "_signature",
					"type": "bytes"
				}
			],
			"name": "verify",
			"outputs": [
				{
					"internalType": "bool",
					"name": "",
					"type": "bool"
				}
			],
			"stateMutability": "pure",
			"type": "function"
		}
	]
}