{
	"contracts/Applications/etherWallet.sol": {
		"EthWallet": {
			"abi": [
				{
					"inputs": [],
					"stateMutability": "nonpayable",
					"type": "constructor"
				},
				{
					"inputs": [],
					"name": "getBalance",
					"outputs": [
						{
							"internalType": "uint256",
							"name": "",
							"type": "uint256"
						}
					],
					"stateMutability": "view",
					"type": "function"
				},
				{
					"inputs": [],
					"name": "topUp",
					"outputs": [],
					"stateMutability": "payable",
					"type": "function"
				},
				{
					"inputs": [
						{
							"internalType": "uint256",
							"name": "_amount",
							"type": "uint256"
						}
					],
					"name": "withdraw",
					"outputs": [],
					"stateMutability": "nonpayable",
					"type": "function"
				},
				{
					"stateMutability": "payable",
					"type": "receive"
				}
			],
			"devdoc": {
				"kind": "dev",
				"methods": {},
				"version": 1
			},
			"evm": {
				"assembly": "    /* \"contracts/Applications/etherWallet.sol\":62:763  contract EthWallet {... */\n  mstore(0x40, 0x80)\n    /* \"contracts/Applications/etherWallet.sol\":114:174  constructor() {... */\n  callvalue\n  dup1\n  iszero\n  tag_1\n  jumpi\n  0x00\n  dup1\n  revert\ntag_1:\n  pop\n    /* \"contracts/Applications/etherWallet.sol\":155:165  msg.sender */\n  caller\n    /* \"contracts/Applications/etherWallet.sol\":139:144  owner */\n  0x00\n  dup1\n    /* \"contracts/Applications/etherWallet.sol\":139:166  owner = payable(msg.sender) */\n  0x0100\n  exp\n  dup2\n  sload\n  dup2\n  0xffffffffffffffffffffffffffffffffffffffff\n  mul\n  not\n  and\n  swap1\n  dup4\n  0xffffffffffffffffffffffffffffffffffffffff\n  and\n  mul\n  or\n  swap1\n  sstore\n  pop\n    /* \"contracts/Applications/etherWallet.sol\":62:763  contract EthWallet {... */\n  dataSize(sub_0)\n  dup1\n  dataOffset(sub_0)\n  0x00\n  codecopy\n  0x00\n  return\nstop\n\nsub_0: assembly {\n        /* \"contracts/Applications/etherWallet.sol\":62:763  contract EthWallet {... */\n      mstore(0x40, 0x80)\n      jumpi(tag_1, lt(calldatasize, 0x04))\n      shr(0xe0, calldataload(0x00))\n      dup1\n      0x12065fe0\n      eq\n      tag_3\n      jumpi\n      dup1\n      0x2e1a7d4d\n      eq\n      tag_4\n      jumpi\n      dup1\n      0xdc29f1de\n      eq\n      tag_5\n      jumpi\n      jump(tag_2)\n    tag_1:\n      jumpi(tag_2, calldatasize)\n      stop\n    tag_2:\n      0x00\n      dup1\n      revert\n        /* \"contracts/Applications/etherWallet.sol\":627:724  function getBalance() public view returns(uint256){... */\n    tag_3:\n      callvalue\n      dup1\n      iszero\n      tag_8\n      jumpi\n      0x00\n      dup1\n      revert\n    tag_8:\n      pop\n      tag_9\n      tag_10\n      jump\t// in\n    tag_9:\n      mload(0x40)\n      tag_11\n      swap2\n      swap1\n      tag_12\n      jump\t// in\n    tag_11:\n      mload(0x40)\n      dup1\n      swap2\n      sub\n      swap1\n      return\n        /* \"contracts/Applications/etherWallet.sol\":392:518  function withdraw(uint256 _amount) public checkWithdraw(_amount) {... */\n    tag_4:\n      callvalue\n      dup1\n      iszero\n      tag_13\n      jumpi\n      0x00\n      dup1\n      revert\n    tag_13:\n      pop\n      tag_14\n      0x04\n      dup1\n      calldatasize\n      sub\n      dup2\n      add\n      swap1\n      tag_15\n      swap2\n      swap1\n      tag_16\n      jump\t// in\n    tag_15:\n      tag_17\n      jump\t// in\n    tag_14:\n      stop\n        /* \"contracts/Applications/etherWallet.sol\":526:619  function topUp() public payable {... */\n    tag_5:\n      tag_18\n      tag_19\n      jump\t// in\n    tag_18:\n      stop\n        /* \"contracts/Applications/etherWallet.sol\":627:724  function getBalance() public view returns(uint256){... */\n    tag_10:\n        /* \"contracts/Applications/etherWallet.sol\":669:676  uint256 */\n      0x00\n        /* \"contracts/Applications/etherWallet.sol\":695:716  address(this).balance */\n      selfbalance\n        /* \"contracts/Applications/etherWallet.sol\":688:716  return address(this).balance */\n      swap1\n      pop\n        /* \"contracts/Applications/etherWallet.sol\":627:724  function getBalance() public view returns(uint256){... */\n      swap1\n      jump\t// out\n        /* \"contracts/Applications/etherWallet.sol\":392:518  function withdraw(uint256 _amount) public checkWithdraw(_amount) {... */\n    tag_17:\n        /* \"contracts/Applications/etherWallet.sol\":448:455  _amount */\n      dup1\n        /* \"contracts/Applications/etherWallet.sol\":250:260  msg.sender */\n      caller\n        /* \"contracts/Applications/etherWallet.sol\":241:260  owner == msg.sender */\n      0xffffffffffffffffffffffffffffffffffffffff\n      and\n        /* \"contracts/Applications/etherWallet.sol\":241:246  owner */\n      0x00\n      dup1\n      sload\n      swap1\n      0x0100\n      exp\n      swap1\n      div\n      0xffffffffffffffffffffffffffffffffffffffff\n      and\n        /* \"contracts/Applications/etherWallet.sol\":241:260  owner == msg.sender */\n      0xffffffffffffffffffffffffffffffffffffffff\n      and\n      eq\n        /* \"contracts/Applications/etherWallet.sol\":233:288  require(owner == msg.sender, \"not the contract owner.\") */\n      tag_22\n      jumpi\n      mload(0x40)\n      0x08c379a000000000000000000000000000000000000000000000000000000000\n      dup2\n      mstore\n      0x04\n      add\n      tag_23\n      swap1\n      tag_24\n      jump\t// in\n    tag_23:\n      mload(0x40)\n      dup1\n      swap2\n      sub\n      swap1\n      revert\n    tag_22:\n        /* \"contracts/Applications/etherWallet.sol\":317:338  address(this).balance */\n      selfbalance\n        /* \"contracts/Applications/etherWallet.sol\":307:314  _amount */\n      dup2\n        /* \"contracts/Applications/etherWallet.sol\":307:338  _amount < address(this).balance */\n      lt\n        /* \"contracts/Applications/etherWallet.sol\":299:364  require(_amount < address(this).balance, \"insufficient balance.\") */\n      tag_25\n      jumpi\n      mload(0x40)\n      0x08c379a000000000000000000000000000000000000000000000000000000000\n      dup2\n      mstore\n      0x04\n      add\n      tag_26\n      swap1\n      tag_27\n      jump\t// in\n    tag_26:\n      mload(0x40)\n      dup1\n      swap2\n      sub\n      swap1\n      revert\n    tag_25:\n        /* \"contracts/Applications/etherWallet.sol\":476:481  owner */\n      0x00\n      dup1\n      sload\n      swap1\n      0x0100\n      exp\n      swap1\n      div\n      0xffffffffffffffffffffffffffffffffffffffff\n      and\n        /* \"contracts/Applications/etherWallet.sol\":468:491  payable(owner).transfer */\n      0xffffffffffffffffffffffffffffffffffffffff\n      and\n        /* \"contracts/Applications/etherWallet.sol\":468:510  payable(owner).transfer(_amount * 1 ether) */\n      0x08fc\n        /* \"contracts/Applications/etherWallet.sol\":502:509  1 ether */\n      0x0de0b6b3a7640000\n        /* \"contracts/Applications/etherWallet.sol\":492:499  _amount */\n      dup5\n        /* \"contracts/Applications/etherWallet.sol\":492:509  _amount * 1 ether */\n      tag_29\n      swap2\n      swap1\n      tag_30\n      jump\t// in\n    tag_29:\n        /* \"contracts/Applications/etherWallet.sol\":468:510  payable(owner).transfer(_amount * 1 ether) */\n      swap1\n      dup2\n      iszero\n      mul\n      swap1\n      mload(0x40)\n      0x00\n      mload(0x40)\n      dup1\n      dup4\n      sub\n      dup2\n      dup6\n      dup9\n      dup9\n      call\n      swap4\n      pop\n      pop\n      pop\n      pop\n      iszero\n      dup1\n      iszero\n      tag_32\n      jumpi\n      returndatasize\n      0x00\n      dup1\n      returndatacopy\n      revert(0x00, returndatasize)\n    tag_32:\n      pop\n        /* \"contracts/Applications/etherWallet.sol\":392:518  function withdraw(uint256 _amount) public checkWithdraw(_amount) {... */\n      pop\n      pop\n      jump\t// out\n        /* \"contracts/Applications/etherWallet.sol\":526:619  function topUp() public payable {... */\n    tag_19:\n        /* \"contracts/Applications/etherWallet.sol\":585:589  this */\n      address\n        /* \"contracts/Applications/etherWallet.sol\":569:600  payable(address(this)).transfer */\n      0xffffffffffffffffffffffffffffffffffffffff\n      and\n        /* \"contracts/Applications/etherWallet.sol\":569:611  payable(address(this)).transfer(msg.value) */\n      0x08fc\n        /* \"contracts/Applications/etherWallet.sol\":601:610  msg.value */\n      callvalue\n        /* \"contracts/Applications/etherWallet.sol\":569:611  payable(address(this)).transfer(msg.value) */\n      swap1\n      dup2\n      iszero\n      mul\n      swap1\n      mload(0x40)\n      0x00\n      mload(0x40)\n      dup1\n      dup4\n      sub\n      dup2\n      dup6\n      dup9\n      dup9\n      call\n      swap4\n      pop\n      pop\n      pop\n      pop\n      iszero\n      dup1\n      iszero\n      tag_35\n      jumpi\n      returndatasize\n      0x00\n      dup1\n      returndatacopy\n      revert(0x00, returndatasize)\n    tag_35:\n      pop\n        /* \"contracts/Applications/etherWallet.sol\":526:619  function topUp() public payable {... */\n      jump\t// out\n        /* \"#utility.yul\":7:84   */\n    tag_36:\n        /* \"#utility.yul\":44:51   */\n      0x00\n        /* \"#utility.yul\":73:78   */\n      dup2\n        /* \"#utility.yul\":62:78   */\n      swap1\n      pop\n        /* \"#utility.yul\":7:84   */\n      swap2\n      swap1\n      pop\n      jump\t// out\n        /* \"#utility.yul\":90:208   */\n    tag_37:\n        /* \"#utility.yul\":177:201   */\n      tag_52\n        /* \"#utility.yul\":195:200   */\n      dup2\n        /* \"#utility.yul\":177:201   */\n      tag_36\n      jump\t// in\n    tag_52:\n        /* \"#utility.yul\":172:175   */\n      dup3\n        /* \"#utility.yul\":165:202   */\n      mstore\n        /* \"#utility.yul\":90:208   */\n      pop\n      pop\n      jump\t// out\n        /* \"#utility.yul\":214:436   */\n    tag_12:\n        /* \"#utility.yul\":307:311   */\n      0x00\n        /* \"#utility.yul\":345:347   */\n      0x20\n        /* \"#utility.yul\":334:343   */\n      dup3\n        /* \"#utility.yul\":330:348   */\n      add\n        /* \"#utility.yul\":322:348   */\n      swap1\n      pop\n        /* \"#utility.yul\":358:429   */\n      tag_54\n        /* \"#utility.yul\":426:427   */\n      0x00\n        /* \"#utility.yul\":415:424   */\n      dup4\n        /* \"#utility.yul\":411:428   */\n      add\n        /* \"#utility.yul\":402:408   */\n      dup5\n        /* \"#utility.yul\":358:429   */\n      tag_37\n      jump\t// in\n    tag_54:\n        /* \"#utility.yul\":214:436   */\n      swap3\n      swap2\n      pop\n      pop\n      jump\t// out\n        /* \"#utility.yul\":523:640   */\n    tag_39:\n        /* \"#utility.yul\":632:633   */\n      0x00\n        /* \"#utility.yul\":629:630   */\n      dup1\n        /* \"#utility.yul\":622:634   */\n      revert\n        /* \"#utility.yul\":769:891   */\n    tag_41:\n        /* \"#utility.yul\":842:866   */\n      tag_59\n        /* \"#utility.yul\":860:865   */\n      dup2\n        /* \"#utility.yul\":842:866   */\n      tag_36\n      jump\t// in\n    tag_59:\n        /* \"#utility.yul\":835:840   */\n      dup2\n        /* \"#utility.yul\":832:867   */\n      eq\n        /* \"#utility.yul\":822:885   */\n      tag_60\n      jumpi\n        /* \"#utility.yul\":881:882   */\n      0x00\n        /* \"#utility.yul\":878:879   */\n      dup1\n        /* \"#utility.yul\":871:883   */\n      revert\n        /* \"#utility.yul\":822:885   */\n    tag_60:\n        /* \"#utility.yul\":769:891   */\n      pop\n      jump\t// out\n        /* \"#utility.yul\":897:1036   */\n    tag_42:\n        /* \"#utility.yul\":943:948   */\n      0x00\n        /* \"#utility.yul\":981:987   */\n      dup2\n        /* \"#utility.yul\":968:988   */\n      calldataload\n        /* \"#utility.yul\":959:988   */\n      swap1\n      pop\n        /* \"#utility.yul\":997:1030   */\n      tag_62\n        /* \"#utility.yul\":1024:1029   */\n      dup2\n        /* \"#utility.yul\":997:1030   */\n      tag_41\n      jump\t// in\n    tag_62:\n        /* \"#utility.yul\":897:1036   */\n      swap3\n      swap2\n      pop\n      pop\n      jump\t// out\n        /* \"#utility.yul\":1042:1371   */\n    tag_16:\n        /* \"#utility.yul\":1101:1107   */\n      0x00\n        /* \"#utility.yul\":1150:1152   */\n      0x20\n        /* \"#utility.yul\":1138:1147   */\n      dup3\n        /* \"#utility.yul\":1129:1136   */\n      dup5\n        /* \"#utility.yul\":1125:1148   */\n      sub\n        /* \"#utility.yul\":1121:1153   */\n      slt\n        /* \"#utility.yul\":1118:1237   */\n      iszero\n      tag_64\n      jumpi\n        /* \"#utility.yul\":1156:1235   */\n      tag_65\n      tag_39\n      jump\t// in\n    tag_65:\n        /* \"#utility.yul\":1118:1237   */\n    tag_64:\n        /* \"#utility.yul\":1276:1277   */\n      0x00\n        /* \"#utility.yul\":1301:1354   */\n      tag_66\n        /* \"#utility.yul\":1346:1353   */\n      dup5\n        /* \"#utility.yul\":1337:1343   */\n      dup3\n        /* \"#utility.yul\":1326:1335   */\n      dup6\n        /* \"#utility.yul\":1322:1344   */\n      add\n        /* \"#utility.yul\":1301:1354   */\n      tag_42\n      jump\t// in\n    tag_66:\n        /* \"#utility.yul\":1291:1354   */\n      swap2\n      pop\n        /* \"#utility.yul\":1247:1364   */\n      pop\n        /* \"#utility.yul\":1042:1371   */\n      swap3\n      swap2\n      pop\n      pop\n      jump\t// out\n        /* \"#utility.yul\":1377:1546   */\n    tag_43:\n        /* \"#utility.yul\":1461:1472   */\n      0x00\n        /* \"#utility.yul\":1495:1501   */\n      dup3\n        /* \"#utility.yul\":1490:1493   */\n      dup3\n        /* \"#utility.yul\":1483:1502   */\n      mstore\n        /* \"#utility.yul\":1535:1539   */\n      0x20\n        /* \"#utility.yul\":1530:1533   */\n      dup3\n        /* \"#utility.yul\":1526:1540   */\n      add\n        /* \"#utility.yul\":1511:1540   */\n      swap1\n      pop\n        /* \"#utility.yul\":1377:1546   */\n      swap3\n      swap2\n      pop\n      pop\n      jump\t// out\n        /* \"#utility.yul\":1552:1725   */\n    tag_44:\n        /* \"#utility.yul\":1692:1717   */\n      0x6e6f742074686520636f6e7472616374206f776e65722e000000000000000000\n        /* \"#utility.yul\":1688:1689   */\n      0x00\n        /* \"#utility.yul\":1680:1686   */\n      dup3\n        /* \"#utility.yul\":1676:1690   */\n      add\n        /* \"#utility.yul\":1669:1718   */\n      mstore\n        /* \"#utility.yul\":1552:1725   */\n      pop\n      jump\t// out\n        /* \"#utility.yul\":1731:2097   */\n    tag_45:\n        /* \"#utility.yul\":1873:1876   */\n      0x00\n        /* \"#utility.yul\":1894:1961   */\n      tag_70\n        /* \"#utility.yul\":1958:1960   */\n      0x17\n        /* \"#utility.yul\":1953:1956   */\n      dup4\n        /* \"#utility.yul\":1894:1961   */\n      tag_43\n      jump\t// in\n    tag_70:\n        /* \"#utility.yul\":1887:1961   */\n      swap2\n      pop\n        /* \"#utility.yul\":1970:2063   */\n      tag_71\n        /* \"#utility.yul\":2059:2062   */\n      dup3\n        /* \"#utility.yul\":1970:2063   */\n      tag_44\n      jump\t// in\n    tag_71:\n        /* \"#utility.yul\":2088:2090   */\n      0x20\n        /* \"#utility.yul\":2083:2086   */\n      dup3\n        /* \"#utility.yul\":2079:2091   */\n      add\n        /* \"#utility.yul\":2072:2091   */\n      swap1\n      pop\n        /* \"#utility.yul\":1731:2097   */\n      swap2\n      swap1\n      pop\n      jump\t// out\n        /* \"#utility.yul\":2103:2522   */\n    tag_24:\n        /* \"#utility.yul\":2269:2273   */\n      0x00\n        /* \"#utility.yul\":2307:2309   */\n      0x20\n        /* \"#utility.yul\":2296:2305   */\n      dup3\n        /* \"#utility.yul\":2292:2310   */\n      add\n        /* \"#utility.yul\":2284:2310   */\n      swap1\n      pop\n        /* \"#utility.yul\":2356:2365   */\n      dup2\n        /* \"#utility.yul\":2350:2354   */\n      dup2\n        /* \"#utility.yul\":2346:2366   */\n      sub\n        /* \"#utility.yul\":2342:2343   */\n      0x00\n        /* \"#utility.yul\":2331:2340   */\n      dup4\n        /* \"#utility.yul\":2327:2344   */\n      add\n        /* \"#utility.yul\":2320:2367   */\n      mstore\n        /* \"#utility.yul\":2384:2515   */\n      tag_73\n        /* \"#utility.yul\":2510:2514   */\n      dup2\n        /* \"#utility.yul\":2384:2515   */\n      tag_45\n      jump\t// in\n    tag_73:\n        /* \"#utility.yul\":2376:2515   */\n      swap1\n      pop\n        /* \"#utility.yul\":2103:2522   */\n      swap2\n      swap1\n      pop\n      jump\t// out\n        /* \"#utility.yul\":2528:2699   */\n    tag_46:\n        /* \"#utility.yul\":2668:2691   */\n      0x696e73756666696369656e742062616c616e63652e0000000000000000000000\n        /* \"#utility.yul\":2664:2665   */\n      0x00\n        /* \"#utility.yul\":2656:2662   */\n      dup3\n        /* \"#utility.yul\":2652:2666   */\n      add\n        /* \"#utility.yul\":2645:2692   */\n      mstore\n        /* \"#utility.yul\":2528:2699   */\n      pop\n      jump\t// out\n        /* \"#utility.yul\":2705:3071   */\n    tag_47:\n        /* \"#utility.yul\":2847:2850   */\n      0x00\n        /* \"#utility.yul\":2868:2935   */\n      tag_76\n        /* \"#utility.yul\":2932:2934   */\n      0x15\n        /* \"#utility.yul\":2927:2930   */\n      dup4\n        /* \"#utility.yul\":2868:2935   */\n      tag_43\n      jump\t// in\n    tag_76:\n        /* \"#utility.yul\":2861:2935   */\n      swap2\n      pop\n        /* \"#utility.yul\":2944:3037   */\n      tag_77\n        /* \"#utility.yul\":3033:3036   */\n      dup3\n        /* \"#utility.yul\":2944:3037   */\n      tag_46\n      jump\t// in\n    tag_77:\n        /* \"#utility.yul\":3062:3064   */\n      0x20\n        /* \"#utility.yul\":3057:3060   */\n      dup3\n        /* \"#utility.yul\":3053:3065   */\n      add\n        /* \"#utility.yul\":3046:3065   */\n      swap1\n      pop\n        /* \"#utility.yul\":2705:3071   */\n      swap2\n      swap1\n      pop\n      jump\t// out\n        /* \"#utility.yul\":3077:3496   */\n    tag_27:\n        /* \"#utility.yul\":3243:3247   */\n      0x00\n        /* \"#utility.yul\":3281:3283   */\n      0x20\n        /* \"#utility.yul\":3270:3279   */\n      dup3\n        /* \"#utility.yul\":3266:3284   */\n      add\n        /* \"#utility.yul\":3258:3284   */\n      swap1\n      pop\n        /* \"#utility.yul\":3330:3339   */\n      dup2\n        /* \"#utility.yul\":3324:3328   */\n      dup2\n        /* \"#utility.yul\":3320:3340   */\n      sub\n        /* \"#utility.yul\":3316:3317   */\n      0x00\n        /* \"#utility.yul\":3305:3314   */\n      dup4\n        /* \"#utility.yul\":3301:3318   */\n      add\n        /* \"#utility.yul\":3294:3341   */\n      mstore\n        /* \"#utility.yul\":3358:3489   */\n      tag_79\n        /* \"#utility.yul\":3484:3488   */\n      dup2\n        /* \"#utility.yul\":3358:3489   */\n      tag_47\n      jump\t// in\n    tag_79:\n        /* \"#utility.yul\":3350:3489   */\n      swap1\n      pop\n        /* \"#utility.yul\":3077:3496   */\n      swap2\n      swap1\n      pop\n      jump\t// out\n        /* \"#utility.yul\":3502:3682   */\n    tag_48:\n        /* \"#utility.yul\":3550:3627   */\n      0x4e487b7100000000000000000000000000000000000000000000000000000000\n        /* \"#utility.yul\":3547:3548   */\n      0x00\n        /* \"#utility.yul\":3540:3628   */\n      mstore\n        /* \"#utility.yul\":3647:3651   */\n      0x11\n        /* \"#utility.yul\":3644:3645   */\n      0x04\n        /* \"#utility.yul\":3637:3652   */\n      mstore\n        /* \"#utility.yul\":3671:3675   */\n      0x24\n        /* \"#utility.yul\":3668:3669   */\n      0x00\n        /* \"#utility.yul\":3661:3676   */\n      revert\n        /* \"#utility.yul\":3688:4036   */\n    tag_30:\n        /* \"#utility.yul\":3728:3735   */\n      0x00\n        /* \"#utility.yul\":3751:3771   */\n      tag_82\n        /* \"#utility.yul\":3769:3770   */\n      dup3\n        /* \"#utility.yul\":3751:3771   */\n      tag_36\n      jump\t// in\n    tag_82:\n        /* \"#utility.yul\":3746:3771   */\n      swap2\n      pop\n        /* \"#utility.yul\":3785:3805   */\n      tag_83\n        /* \"#utility.yul\":3803:3804   */\n      dup4\n        /* \"#utility.yul\":3785:3805   */\n      tag_36\n      jump\t// in\n    tag_83:\n        /* \"#utility.yul\":3780:3805   */\n      swap3\n      pop\n        /* \"#utility.yul\":3973:3974   */\n      dup2\n        /* \"#utility.yul\":3905:3971   */\n      0xffffffffffffffffffffffffffffffffffffffffffffffffffffffffffffffff\n        /* \"#utility.yul\":3901:3975   */\n      div\n        /* \"#utility.yul\":3898:3899   */\n      dup4\n        /* \"#utility.yul\":3895:3976   */\n      gt\n        /* \"#utility.yul\":3890:3891   */\n      dup3\n        /* \"#utility.yul\":3883:3892   */\n      iszero\n        /* \"#utility.yul\":3876:3893   */\n      iszero\n        /* \"#utility.yul\":3872:3977   */\n      and\n        /* \"#utility.yul\":3869:4000   */\n      iszero\n      tag_84\n      jumpi\n        /* \"#utility.yul\":3980:3998   */\n      tag_85\n      tag_48\n      jump\t// in\n    tag_85:\n        /* \"#utility.yul\":3869:4000   */\n    tag_84:\n        /* \"#utility.yul\":4028:4029   */\n      dup3\n        /* \"#utility.yul\":4025:4026   */\n      dup3\n        /* \"#utility.yul\":4021:4030   */\n      mul\n        /* \"#utility.yul\":4010:4030   */\n      swap1\n      pop\n        /* \"#utility.yul\":3688:4036   */\n      swap3\n      swap2\n      pop\n      pop\n      jump\t// out\n\n    auxdata: 0xa2646970667358221220f104d0e75108a3d484d9418fe7d5db9bf2b0abd12fb198af27044ddff66736c164736f6c63430008100033\n}\n",
				"bytecode": {
					"linkReferences": {},
					"object": "608060405234801561001057600080fd5b50336000806101000a81548173ffffffffffffffffffffffffffffffffffffffff021916908373ffffffffffffffffffffffffffffffffffffffff16021790555061047c806100606000396000f3fe6080604052600436106100385760003560e01c806312065fe0146100445780632e1a7d4d1461006f578063dc29f1de146100985761003f565b3661003f57005b600080fd5b34801561005057600080fd5b506100596100a2565b604051610066919061025b565b60405180910390f35b34801561007b57600080fd5b50610096600480360381019061009191906102a7565b6100aa565b005b6100a06101f9565b005b600047905090565b803373ffffffffffffffffffffffffffffffffffffffff1660008054906101000a900473ffffffffffffffffffffffffffffffffffffffff1673ffffffffffffffffffffffffffffffffffffffff1614610139576040517f08c379a000000000000000000000000000000000000000000000000000000000815260040161013090610331565b60405180910390fd5b47811061017b576040517f08c379a00000000000000000000000000000000000000000000000000000000081526004016101729061039d565b60405180910390fd5b60008054906101000a900473ffffffffffffffffffffffffffffffffffffffff1673ffffffffffffffffffffffffffffffffffffffff166108fc670de0b6b3a7640000846101c991906103ec565b9081150290604051600060405180830381858888f193505050501580156101f4573d6000803e3d6000fd5b505050565b3073ffffffffffffffffffffffffffffffffffffffff166108fc349081150290604051600060405180830381858888f1935050505015801561023f573d6000803e3d6000fd5b50565b6000819050919050565b61025581610242565b82525050565b6000602082019050610270600083018461024c565b92915050565b600080fd5b61028481610242565b811461028f57600080fd5b50565b6000813590506102a18161027b565b92915050565b6000602082840312156102bd576102bc610276565b5b60006102cb84828501610292565b91505092915050565b600082825260208201905092915050565b7f6e6f742074686520636f6e7472616374206f776e65722e000000000000000000600082015250565b600061031b6017836102d4565b9150610326826102e5565b602082019050919050565b6000602082019050818103600083015261034a8161030e565b9050919050565b7f696e73756666696369656e742062616c616e63652e0000000000000000000000600082015250565b60006103876015836102d4565b915061039282610351565b602082019050919050565b600060208201905081810360008301526103b68161037a565b9050919050565b7f4e487b7100000000000000000000000000000000000000000000000000000000600052601160045260246000fd5b60006103f782610242565b915061040283610242565b9250817fffffffffffffffffffffffffffffffffffffffffffffffffffffffffffffffff048311821515161561043b5761043a6103bd565b5b82820290509291505056fea2646970667358221220f104d0e75108a3d484d9418fe7d5db9bf2b0abd12fb198af27044ddff66736c164736f6c63430008100033",
					"opcodes": "PUSH1 0x80 PUSH1 0x40 MSTORE CALLVALUE DUP1 ISZERO PUSH2 0x10 JUMPI PUSH1 0x0 DUP1 REVERT JUMPDEST POP CALLER PUSH1 0x0 DUP1 PUSH2 0x100 EXP DUP2 SLOAD DUP2 PUSH20 0xFFFFFFFFFFFFFFFFFFFFFFFFFFFFFFFFFFFFFFFF MUL NOT AND SWAP1 DUP4 PUSH20 0xFFFFFFFFFFFFFFFFFFFFFFFFFFFFFFFFFFFFFFFF AND MUL OR SWAP1 SSTORE POP PUSH2 0x47C DUP1 PUSH2 0x60 PUSH1 0x0 CODECOPY PUSH1 0x0 RETURN INVALID PUSH1 0x80 PUSH1 0x40 MSTORE PUSH1 0x4 CALLDATASIZE LT PUSH2 0x38 JUMPI PUSH1 0x0 CALLDATALOAD PUSH1 0xE0 SHR DUP1 PUSH4 0x12065FE0 EQ PUSH2 0x44 JUMPI DUP1 PUSH4 0x2E1A7D4D EQ PUSH2 0x6F JUMPI DUP1 PUSH4 0xDC29F1DE EQ PUSH2 0x98 JUMPI PUSH2 0x3F JUMP JUMPDEST CALLDATASIZE PUSH2 0x3F JUMPI STOP JUMPDEST PUSH1 0x0 DUP1 REVERT JUMPDEST CALLVALUE DUP1 ISZERO PUSH2 0x50 JUMPI PUSH1 0x0 DUP1 REVERT JUMPDEST POP PUSH2 0x59 PUSH2 0xA2 JUMP JUMPDEST PUSH1 0x40 MLOAD PUSH2 0x66 SWAP2 SWAP1 PUSH2 0x25B JUMP JUMPDEST PUSH1 0x40 MLOAD DUP1 SWAP2 SUB SWAP1 RETURN JUMPDEST CALLVALUE DUP1 ISZERO PUSH2 0x7B JUMPI PUSH1 0x0 DUP1 REVERT JUMPDEST POP PUSH2 0x96 PUSH1 0x4 DUP1 CALLDATASIZE SUB DUP2 ADD SWAP1 PUSH2 0x91 SWAP2 SWAP1 PUSH2 0x2A7 JUMP JUMPDEST PUSH2 0xAA JUMP JUMPDEST STOP JUMPDEST PUSH2 0xA0 PUSH2 0x1F9 JUMP JUMPDEST STOP JUMPDEST PUSH1 0x0 SELFBALANCE SWAP1 POP SWAP1 JUMP JUMPDEST DUP1 CALLER PUSH20 0xFFFFFFFFFFFFFFFFFFFFFFFFFFFFFFFFFFFFFFFF AND PUSH1 0x0 DUP1 SLOAD SWAP1 PUSH2 0x100 EXP SWAP1 DIV PUSH20 0xFFFFFFFFFFFFFFFFFFFFFFFFFFFFFFFFFFFFFFFF AND PUSH20 0xFFFFFFFFFFFFFFFFFFFFFFFFFFFFFFFFFFFFFFFF AND EQ PUSH2 0x139 JUMPI PUSH1 0x40 MLOAD PUSH32 0x8C379A000000000000000000000000000000000000000000000000000000000 DUP2 MSTORE PUSH1 0x4 ADD PUSH2 0x130 SWAP1 PUSH2 0x331 JUMP JUMPDEST PUSH1 0x40 MLOAD DUP1 SWAP2 SUB SWAP1 REVERT JUMPDEST SELFBALANCE DUP2 LT PUSH2 0x17B JUMPI PUSH1 0x40 MLOAD PUSH32 0x8C379A000000000000000000000000000000000000000000000000000000000 DUP2 MSTORE PUSH1 0x4 ADD PUSH2 0x172 SWAP1 PUSH2 0x39D JUMP JUMPDEST PUSH1 0x40 MLOAD DUP1 SWAP2 SUB SWAP1 REVERT JUMPDEST PUSH1 0x0 DUP1 SLOAD SWAP1 PUSH2 0x100 EXP SWAP1 DIV PUSH20 0xFFFFFFFFFFFFFFFFFFFFFFFFFFFFFFFFFFFFFFFF AND PUSH20 0xFFFFFFFFFFFFFFFFFFFFFFFFFFFFFFFFFFFFFFFF AND PUSH2 0x8FC PUSH8 0xDE0B6B3A7640000 DUP5 PUSH2 0x1C9 SWAP2 SWAP1 PUSH2 0x3EC JUMP JUMPDEST SWAP1 DUP2 ISZERO MUL SWAP1 PUSH1 0x40 MLOAD PUSH1 0x0 PUSH1 0x40 MLOAD DUP1 DUP4 SUB DUP2 DUP6 DUP9 DUP9 CALL SWAP4 POP POP POP POP ISZERO DUP1 ISZERO PUSH2 0x1F4 JUMPI RETURNDATASIZE PUSH1 0x0 DUP1 RETURNDATACOPY RETURNDATASIZE PUSH1 0x0 REVERT JUMPDEST POP POP POP JUMP JUMPDEST ADDRESS PUSH20 0xFFFFFFFFFFFFFFFFFFFFFFFFFFFFFFFFFFFFFFFF AND PUSH2 0x8FC CALLVALUE SWAP1 DUP2 ISZERO MUL SWAP1 PUSH1 0x40 MLOAD PUSH1 0x0 PUSH1 0x40 MLOAD DUP1 DUP4 SUB DUP2 DUP6 DUP9 DUP9 CALL SWAP4 POP POP POP POP ISZERO DUP1 ISZERO PUSH2 0x23F JUMPI RETURNDATASIZE PUSH1 0x0 DUP1 RETURNDATACOPY RETURNDATASIZE PUSH1 0x0 REVERT JUMPDEST POP JUMP JUMPDEST PUSH1 0x0 DUP2 SWAP1 POP SWAP2 SWAP1 POP JUMP JUMPDEST PUSH2 0x255 DUP2 PUSH2 0x242 JUMP JUMPDEST DUP3 MSTORE POP POP JUMP JUMPDEST PUSH1 0x0 PUSH1 0x20 DUP3 ADD SWAP1 POP PUSH2 0x270 PUSH1 0x0 DUP4 ADD DUP5 PUSH2 0x24C JUMP JUMPDEST SWAP3 SWAP2 POP POP JUMP JUMPDEST PUSH1 0x0 DUP1 REVERT JUMPDEST PUSH2 0x284 DUP2 PUSH2 0x242 JUMP JUMPDEST DUP2 EQ PUSH2 0x28F JUMPI PUSH1 0x0 DUP1 REVERT JUMPDEST POP JUMP JUMPDEST PUSH1 0x0 DUP2 CALLDATALOAD SWAP1 POP PUSH2 0x2A1 DUP2 PUSH2 0x27B JUMP JUMPDEST SWAP3 SWAP2 POP POP JUMP JUMPDEST PUSH1 0x0 PUSH1 0x20 DUP3 DUP5 SUB SLT ISZERO PUSH2 0x2BD JUMPI PUSH2 0x2BC PUSH2 0x276 JUMP JUMPDEST JUMPDEST PUSH1 0x0 PUSH2 0x2CB DUP5 DUP3 DUP6 ADD PUSH2 0x292 JUMP JUMPDEST SWAP2 POP POP SWAP3 SWAP2 POP POP JUMP JUMPDEST PUSH1 0x0 DUP3 DUP3 MSTORE PUSH1 0x20 DUP3 ADD SWAP1 POP SWAP3 SWAP2 POP POP JUMP JUMPDEST PUSH32 0x6E6F742074686520636F6E7472616374206F776E65722E000000000000000000 PUSH1 0x0 DUP3 ADD MSTORE POP JUMP JUMPDEST PUSH1 0x0 PUSH2 0x31B PUSH1 0x17 DUP4 PUSH2 0x2D4 JUMP JUMPDEST SWAP2 POP PUSH2 0x326 DUP3 PUSH2 0x2E5 JUMP JUMPDEST PUSH1 0x20 DUP3 ADD SWAP1 POP SWAP2 SWAP1 POP JUMP JUMPDEST PUSH1 0x0 PUSH1 0x20 DUP3 ADD SWAP1 POP DUP2 DUP2 SUB PUSH1 0x0 DUP4 ADD MSTORE PUSH2 0x34A DUP2 PUSH2 0x30E JUMP JUMPDEST SWAP1 POP SWAP2 SWAP1 POP JUMP JUMPDEST PUSH32 0x696E73756666696369656E742062616C616E63652E0000000000000000000000 PUSH1 0x0 DUP3 ADD MSTORE POP JUMP JUMPDEST PUSH1 0x0 PUSH2 0x387 PUSH1 0x15 DUP4 PUSH2 0x2D4 JUMP JUMPDEST SWAP2 POP PUSH2 0x392 DUP3 PUSH2 0x351 JUMP JUMPDEST PUSH1 0x20 DUP3 ADD SWAP1 POP SWAP2 SWAP1 POP JUMP JUMPDEST PUSH1 0x0 PUSH1 0x20 DUP3 ADD SWAP1 POP DUP2 DUP2 SUB PUSH1 0x0 DUP4 ADD MSTORE PUSH2 0x3B6 DUP2 PUSH2 0x37A JUMP JUMPDEST SWAP1 POP SWAP2 SWAP1 POP JUMP JUMPDEST PUSH32 0x4E487B7100000000000000000000000000000000000000000000000000000000 PUSH1 0x0 MSTORE PUSH1 0x11 PUSH1 0x4 MSTORE PUSH1 0x24 PUSH1 0x0 REVERT JUMPDEST PUSH1 0x0 PUSH2 0x3F7 DUP3 PUSH2 0x242 JUMP JUMPDEST SWAP2 POP PUSH2 0x402 DUP4 PUSH2 0x242 JUMP JUMPDEST SWAP3 POP DUP2 PUSH32 0xFFFFFFFFFFFFFFFFFFFFFFFFFFFFFFFFFFFFFFFFFFFFFFFFFFFFFFFFFFFFFFFF DIV DUP4 GT DUP3 ISZERO ISZERO AND ISZERO PUSH2 0x43B JUMPI PUSH2 0x43A PUSH2 0x3BD JUMP JUMPDEST JUMPDEST DUP3 DUP3 MUL SWAP1 POP SWAP3 SWAP2 POP POP JUMP INVALID LOG2 PUSH5 0x6970667358 0x22 SLT KECCAK256 CALL DIV 0xD0 0xE7 MLOAD ADDMOD LOG3 0xD4 DUP5 0xD9 COINBASE DUP16 0xE7 0xD5 0xDB SWAP12 CALLCODE 0xB0 0xAB 0xD1 0x2F 0xB1 SWAP9 0xAF 0x27 DIV 0x4D 0xDF 0xF6 PUSH8 0x36C164736F6C6343 STOP ADDMOD LT STOP CALLER "
				},
				"gasEstimates": {
					"creation": {
						"codeDepositCost": "229600",
						"executionCost": "24535",
						"totalCost": "254135"
					},
					"external": {
						"getBalance()": "317",
						"topUp()": "infinite",
						"withdraw(uint256)": "infinite"
					}
				},
				"methodIdentifiers": {
					"getBalance()": "12065fe0",
					"topUp()": "dc29f1de",
					"withdraw(uint256)": "2e1a7d4d"
				}
			},
			"storageLayout": {
				"storage": [
					{
						"astId": 3,
						"contract": "contracts/Applications/etherWallet.sol:EthWallet",
						"label": "owner",
						"offset": 0,
						"slot": "0",
						"type": "t_address"
					}
				],
				"types": {
					"t_address": {
						"encoding": "inplace",
						"label": "address",
						"numberOfBytes": "20"
					}
				}
			},
			"userdoc": {
				"kind": "user",
				"methods": {},
				"version": 1
			}
		}
	}
}